:060000000A128A15922D80
:10000800BE340034013483120313AD01AB1F0D2835
:100018000E281728AA09AB09AA0A0319AB0AAD01C9
:100028000314AD0D17282A08F0002B08F100F2017F
:100038008E30FC007C08F3002D08FD007D08F400DC
:100048000A128A1585270A128A1170088312031367
:10005800AA007108AB007208AC00322808008312AD
:100068000313D400D601D50106158611061286168B
:100078008A280130D1005108D50733305502031CB6
:10008800462847288428D501F10100300A128A152C
:1000980097230A128A110A128A1505240A128A114C
:1000A80083120313D1005108D600E808031D5D2808
:1000B8005E284F280B3056020318632864284F28FF
:1000C800652800300A128A15B0240A128A114A30AB
:1000D8000A128A157D230A128A11831203135608FD
:1000E800D100D2015108F9005208FA000330D300B8
:1000F8005308FB000A128A1137210A128A11842830
:100108000A128A1185250A128A118A288312031372
:1001180054085602031C912892283D280615861576
:1001280006168616FF30D1005108F100FF300A127A
:100138008A1597230A128A11063083120313D300F3
:100148001330D200B130D100D10BA828D20BA82887
:10015800D30BA828AF280800F20072087F3A031DC5
:10016800B628B728C6288316031321088312031359
:10017800E501E50783160313200883120313E4013E
:10018800E4073629720883120313E400E501E41B2F
:10019800E503831603132409F0002509F100F00A8A
:1001A8000319F10A831203136408700783160313F3
:1001B800A6008312031365080318650A71078316DE
:1001C8000313A700831203136408E0070318E10A66
:1001D8006508E1076108803AFF0093307F02031D3C
:1001E800F72889306002031CFA28FB280229883086
:1001F80083120313E0001330E1001929831203135B
:100208006108803AFF006C307F02031D0D297830A9
:100218006002031810291129192978308312031351
:10022800E000EC30E100192919298316031323088B
:10023800A501A5072208A401A4072108A301A30773
:100248002008A201A207831203136508831603136B
:10025800A101A10783120313640883160313A001E5
:10026800A007362908007B08FF3E83120313A0006D
:100278002008B5007B08243E840083138001B60162
:1002880085290A30F0000030F1007A08F301F307FD
:100298007908F201F2070A128A15C9250A128A1189
:1002A8007008303E83120313A0003603FF3A350767
:1002B800243E84002008831380000A30F0000030B8
:1002C800F1007A08F301F3077908F201F2070A123C
:1002D8008A150D260A128A117108FA01FA077008A0
:1002E800F901F9077A087904031D7B297C297E29FD
:1002F8008C298C29013083120313A0002008B6072B
:1003080085297B083602031C8A298B2945298C29D3
:10031800831203133603FF3A3507243EF7000030F3
:10032800F8000A128A155B260A128A11831203132F
:10033800B401AB2920300A128A157D230A128A11CA
:10034800013083120313A0002008B407AB29360834
:10035800A000A101A009A109A00A0319A10A350852
:100368002007A20021080318210AA3002308803AC5
:10037800803C031DC12922083402031CC429C52955
:100388009E29C62908000A128A1534240A128A11DD
:100398000A128A154E240A128A11F10100300A1233
:1003A8008A1597230A128A110A128A152A250A120F
:1003B8008A110A128A15F0230A128A11033083124D
:1003C8000313DF008A30DE005630DD00DD0BEA293A
:1003D800DE0BEA29DF0BEA29F1290A128A155023D4
:1003E8000A128A1100300A128A15B0240A128A11D8
:1003F8004C30F7008030F8000A128A155B260A1282
:100408008A1114300A128A15B0240A128A1152303D
:10041800F7008030F8000A128A155B260A128A1142
:10042800152A8312031306181A2A1B2A152A1D2AAD
:100438001D2A061C202A212A1D2A222A0A128A1568
:1004480050230A128A110A128A11FE220A128A11EC
:100458000A128A1550230A128A1100300A128A15C4
:10046800B0240A128A111030F7008030F8000A12FE
:100478008A155B260A128A11831203136908031D61
:10048800462A4D2A0A128A11AE230A128A11552ABF
:100498004D2A0A128A1185250A128A114D2A4D2AD7
:1004A800552A0A128A110028780883120313A0001B
:1004B8007908A1007A08A2000310210D220DA300DB
:1004C8002308A900A908031D6A2A6B2A752A003087
:1004D800FB000030FA000030F9000030F800FD2A77
:1004E800FD2A7808A0007908A1007A08A200173030
:1004F8000310A20CA10CA00CFF3E031D7C2A2008AF
:10050800A3002308A400F917FF30F805FF30F90508
:100518000030FA057808A5007908A6007A08A7002F
:10052800A8018E30A902A91F9A2A9B2AC02A290845
:10053800803A8F3E0318A12AA22AAD2A0030FB0078
:100548000030FA000030F9000030F800FD2AFD2ADA
:10055800AD2A01300310A80CA70CA60CA50CFF3E71
:10056800031DAE2A0130A0002008A907031DBD2ADB
:10057800BE2AAD2AE42AE42A18302902031CC52A17
:10058800C62ADD2A0030FB000030FA000030F900EE
:100598000030F800FD2AFD2ADD2A0130A0000310F2
:1005A800A50DA60DA70DA80DA00BD32A0130A902F1
:1005B800DD2AA908031DE12AE22AD12AE42AE42A2D
:1005C8002408031DE82AF42AA509A609A709A809E9
:1005D800A50A0319A60A0319A70A0319A80AF42ADF
:1005E8002808FB002708FA002608F9002508F80063
:1005F800FD2A080083120313A9010030A800003067
:10060800A7000030A6000030A5000A2B83120313B0
:1006180006180F2B102B242B122B122B061C152B14
:10062800162B122B172B0130FD007D08A90703306C
:100638002902031C202B212B4C2BA9014C2B4C2BC2
:100648008618272B282B4C2B2A2B2A2B861C2D2B44
:100658002E2B2A2B3D2B3D2BAD2B0130FD007D0889
:10066800E9064C2B0A128A150D270A128A114C2BFF
:100678004C2B831203132908003A0319AD2B013AB6
:100688000319312B033A0319362B4C2B4C2B4C2BCB
:1006980000300A128A15B0240A128A119E2B45309E
:1006A800F7008030F8000A128A155B260A128A11B0
:1006B8001C30F7008030F8000A128A155B260A12EF
:1006C8008A110A2B3E30F7008030F8000A128A158A
:1006D8005B260A128A11831203136908031D752BFE
:1006E8007F2B2530F7008030F8000A128A155B2628
:1006F8000A128A110A2B2E30F7008030F8000A12ED
:100708008A155B260A128A110A2B0A2B3730F70042
:100718008030F8000A128A155B260A128A111C30EA
:10072800F7008030F8000A128A155B260A128A112F
:100738000A2B0A2B831203132908003A0319532B97
:10074800013A0319662B033A03198A2B0A2B0A2B41
:100758000A2B080083120313DC01DA01DB010A12F9
:100768008A1550230A128A1100300A128A15B024F9
:100778000A128A110130F7008030F8000A128A152F
:100788005B260A128A110D3083120313D900AF3089
:10079800D800C130D700D70BCF2BD80BCF2BD90B14
:1007A800CF2B64000A128A1550230A128A11DD2BF6
:1007B800DD2B0A128A15B7230A128A118312031332
:1007C800D7005708DB005B08031DEB2BDD2BEC2B58
:1007D80002300A128A1133200A128A118312031373
:1007E8000611861506128616B430D7005708F10090
:1007F800B4300A128A1597230A128A110D3083120F
:100808000313D900AF30D800C130D700D70B0A2C5A
:10081800D80B0A2CD90B0A2C6400122C0A128A1540
:10082800D5240A128A1183120313D7005708DC0053
:1008380086175C08803A6B3E0318232C242C122C54
:100848000615861506168616FF30D7005708F100DC
:10085800FF300A128A1597230A128A11831203138A
:1008680086130330D9008A30D8005630D700D70B0A
:100878003B2CD80B3B2CD90B3B2C422C831203135B
:100888000611861506128616B430D7005708F100EF
:10089800B4300A128A1597230A128A110D3083126E
:1008A8000313D900AF30D800C130D700D70B5A2C6A
:1008B800D80B5A2CD90B5A2C6400622C83120313C0
:1008C80086170A128A15D5240A128A11831203136D
:1008D800D7005708DC005C08803A6B3E0318752C7B
:1008E800762C622C0615861506168616FF30D7005C
:1008F8005708F100FF300A128A1597230A128A1145
:100908008312031386130330D9008A30D800563077
:10091800D700D70B8D2CD80B8D2CD90B8D2C942C64
:10092800DD2BDD2B0800831203132E08B4002F08DB
:10093800B5003008B6000310350D360DB70037087E
:10094800B800B808031DA92CAA2CB22C0030AE00A0
:100958000030AF000030B000842D842D3108B40081
:100968003208B5003308B6000310350D360DB70050
:100978003708BD00BD08031DC22CC32CCB2C00308A
:10098800AE000030AF000030B000842D842D3D084B
:100998007B3EB4003408B8072E08B4002F08B50011
:1009A8003008B60010300310B60CB50CB40CFF3E7E
:1009B800031DD72C3408B7003708BD003108B40030
:1009C8003208B5003308B60010300310B60CB50C69
:1009D800B40CFF3E031DE92C3408B7003708BD06E8
:1009E8008030B4003408BD05AF17B217FF30B10529
:1009F800FF30B2050030B3050030B9000030BA004E
:100A08000030BB000730B4003408BC000B2D2E1C8E
:100A18000E2D0F2D202D3108B907320803110318A8
:100A2800320A0319182DBA07330803110318330AB9
:100A380003191F2DBB07202D01300310B00CAF0C7C
:100A4800AE0CFF3E031D212D01300310B10DB20D78
:100A5800B30DFF3E031D292D0130BC02031D352DAA
:100A6800362D0B2D372D0930B4003408BC003C2D31
:100A78002E1C3F2D402D512D3108B9073208031186
:100A88000318320A0319492DBA073308031103184A
:100A9800330A0319502DBB07512D01300310B00C38
:100AA800AF0CAE0CFF3E031D522D01300310BB0CE2
:100AB800BA0CB90CFF3E031D5A2D0130BC02031DB0
:100AC800662D672D3C2D682D3908F0003A08F10095
:100AD8003B08F2003808B4003408F3003D08B500BC
:100AE8003508F4000A128A1585270A128A11700837
:100AF80083120313AE007108AF007208B000842D92
:100B080008000A128A15D5240A128A1183120313BF
:100B1800CB004B08EB006B080A128A11B0200A12AE
:100B28008A11831203136508AB01AB076408AA0195
:100B3800AA070A128A1107200A128A1183120313BC
:100B48002A08B1002B08B2002C08B300831603133F
:100B5800300883120313AE0083160313310883127F
:100B68000313AF0083160313320883120313B00074
:100B78000A128A1197240A128A11831203132E0863
:100B8800C1002F08C2003008C3006108AB01AB07E1
:100B98006008AA01AA070A128A1107200A128A11F4
:100BA800831203132A08B1002B08B2002C08B300E3
:100BB800831603132D0883120313AE008316031341
:100BC8002E0883120313AF00831603132F08831212
:100BD8000313B0000A128A1197240A128A11831289
:100BE80003132E08BE002F08BF003008C0000A12E9
:100BF8008A11BA260A128A11831203133E08C10009
:100C08003F08C2004008C300831603132708831255
:100C18000313AB01AB0783160313260883120313D0
:100C2800AA01AA070A128A1107200A128A11831236
:100C380003132A08B1002B08B2002C08B30083164E
:100C480003132A0883120313AE00831603132B0819
:100C580083120313AF00831603132C0883120313A4
:100C6800B0000A128A1197240A128A1183120313F8
:100C78002E08BE002F08BF003008C0000A128A11D3
:100C8800BA260A128A11831203133E08F8003F0895
:100C9800F9004008FA000A128A1158220A128A1129
:100CA800790883120313E301E3077808E201E207F6
:100CB80062086C07CD0063080318630A6D07CE004D
:100CC8004E08803AFF0081307F02031D6D2E0030F0
:100CD8004D02031C702E712E782EFF3083120313E1
:100CE800CD000030CE00822E83120313CE1F7D2E3E
:100CF8007E2E822ECD01CE01822E822E6209CB005D
:100D08006309CC00CB0A0319CC0A6C084B07CF0047
:100D18006D0803186D0A4C07D0005008803AFF0090
:100D280081307F02031D9A2E00304F02031C9D2E36
:100D38009E2EA52EFF3083120313CF000030D00063
:100D4800AF2E83120313D01FAA2EAB2EAF2ECF01C6
:100D5800D001AF2EAF2E4F08CB004B08F1004D0845
:100D68000A128A1597230A128A110800831203139C
:100D78003E08C4003F08C5004008C6000310450DE2
:100D8800460DC7004708CA004108C4004208C5000C
:100D98004308C6000310450D460DC7004708C900A3
:100DA8004A08031DD82EE92E49084A020318DD2EE9
:100DB800DE2EF12E4A03FF3A4907C40019304402D7
:100DC800031CE72EE82EF12EE92E4108BE0042084A
:100DD800BF004308C000FF2FFF2F4908031DF52E51
:100DE800052F4A0849020318FA2EFB2E062F49033D
:100DF800FF3A4A07C40019304402031C042F052F88
:100E0800062FFF2F0630C4004408C800C01F0D2F4E
:100E18000E2F0F2FC817C31F122F132F142F481769
:100E2800BF17FF30BE05FF30BF050030C005C21731
:100E3800FF30C105FF30C2050030C30549084A022A
:100E48000318272F282F592F292F01300310C10DE0
:100E5800C20DC30DFF3E031D2A2F0130C9024908E8
:100E68004A060319382F392F512F0130C802480874
:100E78000739031D402F412F292F512F512F512F53
:100E880001300310C00CBF0CBE0CFF3E031D452FE4
:100E98000130C4004408CA07512F4A084906031DF7
:100EA800562F572F442F902F902F4A084902031886
:100EB8005E2F5F2F902F602F01300310BE0DBF0DE6
:100EC800C00DFF3E031D612F0130CA0249084A06C2
:100ED80003196F2F702F882F0130C802480807396F
:100EE800031D772F782F602F882F882F882F0130A8
:100EF8000310C30CC20CC10CFF3E031D7C2F013034
:100F0800C4004408C907882F4A084906031D8D2FC5
:100F18008E2F7B2F902F902FC81F932F942FA52FA4
:100F2800FF30BE06FF30BF06FF30C0060130BE07E7
:100F3800003003180130BF07003003180130C00724
:100F4800A52F481FA82FA92FBA2FFF30C106FF30A1
:100F5800C206FF30C3060130C10700300318013054
:100F6800C207003003180130C307BA2FC8013E0872
:100F7800C1073F08031103183F0A0319C42FC2070A
:100F8800400803110318400A0319CB2FC307C31FD6
:100F9800CE2FCF2FE32FFF30C106FF30C206FF3020
:100FA800C3060130C107003003180130C207003002
:100FB80003180130C307C8010314C80DE32F410803
:100FC800F0004208F1004308F2004A08C40044084F
:100FD800F3004808C5004508F4000A128A15852759
:100FE8000A128A11700883120313BE007108BF0029
:100FF8007208C000FF2F0800FF1B0A2883137F1800
:1010080083170008840A0319FF0A080008308A00B9
:101018000408840A820700344A3475346E34633411
:10102800743469346F346E340A3443346F3475342D
:101038006E34743400346C3469346E3465340A3474
:1010480066346F346C346C346F3477340034503415
:10105800723465347334733453345734323400344F
:101068004A3475346E346334743469346F346E348E
:1010780000344C3469346E346534203446346C346E
:1010880077340034433461346C34623420340A34A5
:1010980000344D346F346434653420340A340034F9
:1010A800533474346134723474340A3400344C3434
:1010B80053344134303438340034443465346D3476
:0410C8006F3400344D
:10166A00F00070088312031395000800F000700858
:10167A00831203139B000800F000700883120313FF
:10168A0088000800003420344234D734A3343B3471
:10169A000034A0344034F1010314F10D00300A1271
:1016AA008A15FF240A128A150800C030F500750849
:1016BA00F10000300A128A15FF240A128A1508005E
:1016CA00F0007018692B6D2B831203130915702B08
:1016DA008312031309110800F0007018752B792B77
:1016EA008312031306177C2B8312031306130800B5
:1016FA00F6007608F5007508F10001300A128A151D
:10170A00FF240A128A150800F0008B2B8316031394
:10171A00981C902B912B8B2B922B700883120313FE
:10172A0099000800F20071080A128A1535230A1274
:10173A008A1572080A128A153B230A128A150800AA
:10174A00AF2B0A128A15AB260A128A15F6007608FA
:10175A00F700AF2B831203138C1AB42BB52BA62BCD
:10176A00B62B0800583083120313A0002008F80093
:10177A00F9010230A1002108FA006E080A128A153E
:10178A008B240A128A15C92B0800433083120313CB
:10179A00A0002008F800F9010230A1002108FA008F
:1017AA006E080A128A158B240A128A15DC2B080085
:1017BA007E088A007F0882000A128A15DD230A122F
:1017CA008A158000840A04087D0603190034FF0A7A
:1017DA000319FE0AE12B0A128A151C240A128A1519
:1017EA008312031307140A128A15B7230A128A15D9
:1017FA0002300A128A156C240A128A15042C08006F
:10180A005830FD007D08F800F9010314F90DFA01BA
:10181A000314FA0D831203136E080A128A158B2415
:10182A000A128A158312031366081B2C08008316F2
:10183A00031387170713071018158316031787153D
:10184A0056308316031399009A01831203139817CB
:10185A0083160313981683120313181608008312AB
:10186A0003138601870188018901FF308316031358
:10187A00850003308600983087008801033089008C
:10188A000130831603178800890183120313861314
:10189A000800FE308316031392008312031392107A
:1018AA00121495019B011215971317139712171209
:1018BA0097151715971017109D121D129D151D15B6
:1018CA009D101D1006158611061286160800FD00C9
:1018DA0004307D02031C722C732C752CFD01752CAF
:1018EA00443083120313A0002008F8007D08A100E9
:1018FA002108F9000230A2002208FA006E080A1232
:10190A008A158B240A128A158A2C0800FC007C0886
:10191A000A128A1589230A128A1578080A128A1560
:10192A0089230A128A1579080A128A1589230A1242
:10193A008A1578087C07FB0079087B070A128A1542
:10194A0089230A128A157A080A128A155D250A124B
:10195A008A15AF2C0800F600103076020318B62C50
:10196A00B72CC32C7608803EF5007508F1000030CC
:10197A000A128A15FF240A128A15D42C7608EC3E1C
:10198A00F5007508F6007608C03EF5007508F10006
:10199A0000300A128A15FF240A128A15D42C08006C
:1019AA00831203130710D92C0A128A15AB260A12BE
:1019BA008A15F8007808FA0083120313E808031D51
:1019CA00E72CE82CD92C07140A128A15A5230A1227
:1019DA008A157A08FF3A031DF32CF42CF72C7F3072
:1019EA00FE2CFE2C7A08DD3EF8007808F90079080A
:1019FA00FE2C0800F40074080A128A1571230A12D0
:101A0A008A1571080A128A1541230A128A150030AA
:101A1A000A128A1565230A128A150D30F300FB3063
:101A2A00F200F20B162DF30B162D1B2D01300A12A4
:101A3A008A1565230A128A150730F3007D30F200F1
:101A4A00F20B252DF30B252D080001300A128A15F9
:101A5A0065230A128A156230F6006530F500F50B27
:101A6A00342DF60B342D392D3830F5007508F10078
:101A7A0000300A128A15FF240A128A150630F50068
:101A8A007508F10000300A128A15FF240A128A1515
:101A9A000C30F5007508F10000300A128A15FF248F
:101AAA000A128A150A128A1550230A128A15080080
:101ABA00F7000A128A15AB260A128A15F60076086A
:101ACA0083120313E6007708013A031D6D2D6E2D6C
:101ADA00702D912D912D0A128A15AB260A128A159C
:101AEA00F600760883120313E70066084F3A031DCF
:101AFA007F2D802D8E2D67084B3A031D852D862D4F
:101B0A008A2D0130912D912D912D0030912D912DFD
:101B1A00912D0030912D912D0800E001E101E201A3
:101B2A00E301E401E501E601E701E801E901EA016F
:101B3A00EB0183160313A001A101A201A301A401D1
:101B4A00A501A601A701A801A9018313B330FD00CD
:101B5A000B30FE004730FF00AA3084000A128A15B3
:101B6A00E1230A128A156F30FD000030FE000430AE
:101B7A00FF006C3084000A128A15E1230A128A15C2
:101B8A0083010A128A11C729710870040319CE2D1C
:101B9A00CF2D052EF5010314F50DDF2D01300310AD
:101BAA00F00DF10DFF3E031DD42D0130F400740831
:101BBA00F507DF2DF11FE22DE32DD32DE52DE52DC0
:101BCA0071087302031DEB2D70087202031CEE2DBF
:101BDA00EF2DF62D7008F2027108031CF303F302CD
:101BEA00F62D01300310F10CF00CFF3E031DF72D0A
:101BFA000130F502031D022E032EE52D052E052EBA
:101C0A007308F101F1077208F001F0070C2E0800C1
:101C1A00F501F601710870040319142E152E532EBE
:101C2A00F7010314F70D252E01300310F00DF10D05
:101C3A00FF3E031D1A2E0130F4007408F707252E03
:101C4A00F11F282E292E192E2B2E2B2E0130031090
:101C5A00F50DF60DFF3E031D2C2E71087302031DB0
:101C6A00382E70087202031C3B2E3C2E442E70083C
:101C7A00F2027108031CF303F3027514442E0130B7
:101C8A000310F10CF00CFF3E031D452E0130F70244
:101C9A00031D502E512E2B2E532E532E7608F10152
:101CAA00F1077508F001F0075A2E0800992E7808F6
:101CBA0083120313FF00770884000A128A15002092
:101CCA000A128A150A3A03196B2E6C2E7B2E780893
:101CDA00FF00770884000A128A1500200A128A1562
:101CEA000D3A031D792E7A2E812E7B2E0A128A1521
:101CFA005A230A128A15922E780883120313FF00B8
:101D0A00770884000A128A1500200A128A150A1214
:101D1A008A157D230A128A15922E0130F7070318B5
:101D2A00F80A0030F807992E780883120313FF0087
:101D3A00770884000A128A1500200A128A150038C8
:101D4A00031DA82EA92E5C2EAA2E08000030F4002E
:101D5A000030F3000030F2000030F1008312031368
:101D6A00981CB82EB92EE82E18121816E80103147A
:101D7A00E80DFF300C2F0C2FE82E0130F107003050
:101D8A0003180130F207003003180130F30700305E
:101D9A0003180130F40700307402031DDE2E0030F0
:101DAA007302031DDE2E3A307202031DDE2E9930B5
:101DBA007102031CE12EE22EE82EE8010314E80D5D
:101DCA00FF300C2F0C2F8C1EEB2EEC2EC22EED2E7C
:101DDA001A08F0007008F500181DF42EF52E082FC9
:101DEA00FC2EFC2E1A08F0007008F500FC2E8C1A46
:101DFA00FF2E002FF72E012FE8010314E80DFF3004
:101E0A000C2F0C2F0C2FE80175080C2F0C2F080033
:101E1A000A128A15CA230A128A1583120313061193
:101E2A00861506128616B430A2002208F100B430D4
:101E3A000A128A1597230A128A151030831203137D
:101E4A00A4003930A3001B30A200A20B2A2FA30B37
:101E5A002A2FA40B2A2F312F83120313061586115A
:101E6A00061686121030A4003930A3001B30A200D7
:101E7A00A20B3D2FA30B3D2FA40B3D2F442F103057
:101E8A0083120313A4003930A3001B30A200A20B53
:101E9A004C2FA30B4C2FA40B4C2F532F831203133D
:101EAA000611861506128616B430A2002208F10021
:101EBA00B4300A128A1597230A128A15103083122F
:101ECA000313A4003930A3001B30A200A20B6B2F0E
:101EDA00A30B6B2FA40B6B2F722FF10100300A1288
:101EEA008A1597230A128A15831203130615861177
:101EFA00061286160A128A1550230A128A15080033
:101F0A007308031D892F912F720871047004031D31
:101F1A008F2F902FA72F912F0030F0000030F10063
:101F2A000030F200FF2FFF2FA72F0130F5007508B0
:101F3A00F30701300310F20CF10CF00CFF3E031D05
:101F4A009F2FA72FFE307205031DAC2FAD2F9A2F9E
:101F5A00C52FC52F0130F5007508F3070130F007CA
:101F6A00003003180130F107003003180130F2077E
:101F7A0001300310F20CF10CF00CFF3E031DBE2FD2
:101F8A00FF307205031DCA2FCB2FAF2FD82FD82FA2
:101F9A000130F30201300310F00DF10DF20DFF3E96
:101FAA00031DD02FD82FF11FDB2FDC2FCD2F731855
:101FBA00DF2FE02FE62FFF30F0057F30F105FF30ED
:101FCA00F2050310F30C7308F500F601F70110305F
:101FDA000310F50DF60DF70DFF3E031DED2F7508E5
:101FEA00F0047608F1047708F2047408031DFE2F42
:061FFA00FF2FF2170800A2
:02400E00F2ECD2
:00000001FF
