:100000000A128A15A1290134F00070088312031323
:100010009B000800F7000A128A15C5230A128A11EC
:10002000F600760883160313B0007708013A031D23
:100030001A281B281D283E283E280A128A15C52387
:100040000A128A11F600760883160313B1003008ED
:100050004F3A031D2C282D283B2831084B3A031D0D
:1000600032283328372801303E283E283E280030E9
:100070003E283E283E2800303E283E2808008312B5
:1000800003133508BB003608BC003708BD00031059
:100090003C0D3D0DBE003E08BF00BF08031D5128AA
:1000A00052285A280030B5000030B6000030B700A2
:1000B0002C292C293808BB003908BC003A08BD009F
:1000C00003103C0D3D0DBE003E08C400C408031DD6
:1000D0006A286B2873280030B5000030B600003065
:1000E000B7002C292C2944087B3EBB003B08BF07E6
:1000F0003508BB003608BC003708BD0010300310BF
:10010000BD0CBC0CBB0CFF3E031D7F283B08BE0092
:100110003E08C4003808BB003908BC003A08BD00DE
:1001200010300310BD0CBC0CBB0CFF3E031D91280E
:100130003B08BE003E08C4068030BB003B08C40537
:10014000B617B917FF30B805FF30B9050030BA054A
:100150000030C0000030C1000030C2000730BB00DA
:100160003B08C300B328351CB628B728C828380870
:10017000C007390803110318390A0319C028C10739
:100180003A08031103183A0A0319C728C207C828F6
:1001900001300310B70CB60CB50CFF3E031DC92887
:1001A00001300310B80DB90DBA0DFF3E031DD12863
:1001B0000130C302031DDD28DE28B328DF28093003
:1001C000BB003B08C300E428351CE728E828F928D1
:1001D0003808C007390803110318390A0319F12830
:1001E000C1073A08031103183A0A0319F828C2078D
:1001F000F92801300310B70CB60CB50CFF3E031DF7
:10020000FA2801300310C20CC10CC00CFF3E031DC4
:1002100002290130C302031D0E290F29E4281029E9
:100220004008F0004108F1004208F2003F08BB001E
:100230003B08F3004408BC003C08F4000A128A158D
:100240000B250A128A11700883120313B500710876
:10025000B6007208B7002C29080083160313BC01EE
:100260000A128A1512210A128A110A128A152C21E1
:100270000A128A118312031307108715F101003047
:100280000A128A158B200A128A110A128A15512223
:100290000A128A11033083160313BB008A30BA0096
:1002A0005630B900B90B5229BA0B5229BB0B52294F
:1002B00059290A128A15E5200A128A110A128A118E
:1002C0001B230A128A110A128A15D1200A128A11D6
:1002D00000300A128A1546210A128A111C30F900D0
:1002E0008030FA000A128A1502230A128A110D3090
:1002F00083160313BB00AF30BA00C130B900B90B8D
:100300007F29BA0B7F29BB0B7F2964000D30831630
:100310000313BB00AF30BA00C130B900B90B8E294E
:10032000BA0B8E29BB0B8E29640096298312031306
:1003300006189B299C2996299D290A128A15D120E5
:100340000A128A1100300A128A1546210A128A11ED
:100350002630F9008030FA000A128A1502230A12A8
:100360008A1114300A128A1546210A128A11103095
:10037000F9008030FA000A128A1502230A128A1143
:10038000C1290A128A15A6220A128A11831603139A
:10039000B9003908BD003D080A128A1530240A1236
:1003A0008A11831603132F0883120313AF01AF07BB
:1003B000831603132E0883120313AE01AE070A122D
:1003C0008A157A220A128A11831203132E08B800A2
:1003D0002F08B9003008BA008316031348088312A7
:1003E0000313B50083160313490883120313B600E1
:1003F000831603134A0883120313B7000A128A11E3
:100400003F200A128A11831203133508C8003608E8
:10041000C9003708CA00831603132908831203137F
:10042000AF01AF0783160313280883120313AE012D
:10043000AE070A128A157A220A128A11831203134E
:100440002E08B8002F08B9003008BA00831603132D
:10045000450883120313B50083160313460883125D
:100460000313B60083160313470883120313B70060
:100470000A128A113F200A128A11831203133508C7
:10048000C5003608C6003708C7000A128A15BA2602
:100490000A128A11831203134508C8004608C900CE
:1004A0004708CA0083160313270883120313AF01FA
:1004B000AF0783160313260883120313AE01AE079A
:1004C0000A128A157A220A128A11831203132E083D
:1004D000B8002F08B9003008BA0083160313420889
:1004E00083120313B5008316031343088312031307
:1004F000B60083160313440883120313B7000A12CD
:100500008A113F200A128A11831203133508C5008D
:100510003608C6003708C7000A128A15BA260A121A
:100520008A11831203134508A0004608A10047085A
:10053000A2000A128A1514260A128A1183120313C2
:10054000210883160313AD01AD078312031320089E
:1005500083160313AC01AC072C08C83EBE002D085F
:100560000318013E003EBF003F08803AFF00813083
:100570007F02031DBD2A00303E02031CC02AC12A8F
:10058000C82AFF3083160313BE000030BF00D22AF2
:1005900083160313BF1FCD2ACE2AD22ABE01BF0164
:1005A000D22AD22A2C09B9002D09BA00B90A031996
:1005B000BA0A3908C83EC0003A080318013E003E96
:1005C000C1004108803AFF0081307F02031DEA2A02
:1005D00000304002031CED2AEE2AF52AFF30831674
:1005E0000313C0000030C100FF2A83160313C11F8C
:1005F000FA2AFB2AFF2AC001C101FF2AFF2A83121F
:10060000031307108715831603134008B900390830
:10061000F1003E080A128A158B200A128A11C1299C
:10062000C129F10100300A128A158B200A128A11A1
:100630000A128A110028003083160313B700003015
:10064000B6000030B5000030B400262B00300A128E
:100650008A1546210A128A110130F9008030FA0009
:100660000A128A1502230A128A1114300A128A15F4
:1006700046210A128A1183160313480883120313B2
:10068000A00083160313490883120313A1008316E5
:1006900003134A0883120313A2000A128A151426B0
:1006A0000A128A11831203132008EC006C088316C7
:1006B0000313B800380883120313EC00ED016C0833
:1006C000D2006D08D300D4010314D40D0A128A1588
:1006D00086250A128A112E300A128A15E2210A1280
:1006E0008A118316031338080A128A15C1210A12C7
:1006F0008A11831203132E08F8002F08F90030081E
:10070000FA000A128A1571200A128A1178088312D7
:100710000313C8007908C9007A08CA0083160313B6
:10072000480883120313C500831603134908831274
:100730000313C600831603134A0883120313C7006A
:100740000A128A15BA260A128A118312031345085F
:10075000B8004608B9004708BA000030B500C830F4
:10076000B6004230B7000A128A113F200A128A11DD
:10077000831203133508A0003608A1003708A20031
:100780000A128A1514260A128A11831203132108E9
:10079000D301D3072008D201D2070230EC006C0845
:1007A000D4000A128A1586250A128A1120300A12EC
:1007B0008A15E2210A128A1183160313450883124F
:1007C0000313A00083160313460883120313A1002A
:1007D00083160313470883120313A2000A128A1513
:1007E00014260A128A11831203132008EC006C08E5
:1007F00083160313B800380883120313EC00ED01CD
:100800006C08D2006D08D300D4010314D40D0A1271
:100810008A1586250A128A112E300A128A15E221BB
:100820000A128A11003083120313B500C830B600D3
:100830004230B70083160313450883120313C50023
:1008400083160313460883120313C600831603138B
:10085000470883120313C7008316031338080A12CC
:100860008A15C1210A128A11831203132E08F80077
:100870002F08F9003008FA000A128A1571200A12AE
:100880008A11780883120313C8007908C9007A080E
:10089000CA000A128A15BA260A128A118312031391
:1008A0004508B8004608B9004708BA000A128A117C
:1008B0003F200A128A11831203133508A00036085C
:1008C000A1003708A2000030A3002030A40041306E
:1008D000A5000A128A159D240A128A110318712C88
:1008E000722C792C30300A128A15E2210A128A11F0
:1008F000792C8316031338080A128A15C1210A12AB
:100900008A11831203132E08F8002F08F90030080B
:10091000FA000A128A1571200A128A1178088312C5
:100920000313C8007908C9007A08CA0083160313A4
:10093000450883120313C500831603134608831268
:100940000313C60083160313470883120313C7005B
:100950000A128A15BA260A128A118312031345084D
:10096000B8004608B9004708BA000030B500C830E2
:10097000B6004230B7000A128A113F200A128A11CB
:10098000831203133508A0003608A1003708A2001F
:100990000A128A1514260A128A11831203132108D7
:1009A000D301D3072008D201D2070230EC006C0833
:1009B000D4000A128A1586250A128A1120300A12DA
:1009C0008A15E2210A128A11831603134208831240
:1009D0000313A00083160313430883120313A1001B
:1009E00083160313440883120313A2000A128A1504
:1009F00014260A128A11831203132008EC006C08D3
:100A000083160313B800380883120313EC00ED01BA
:100A10006C08D2006D08D3000230EE006E08D400DE
:100A20000A128A1586250A128A1120300A128A159E
:100A3000E2210A128A114D2D00300A128A15462130
:100A40000A128A112D30F9008030FA000A128A1534
:100A500002230A128A115A2D05300A128A154621DC
:100A60000A128A112D30F9008030FA000A128A1514
:100A700002230A128A115A2D0A300A128A154621B7
:100A80000A128A112D30F9008030FA000A128A15F4
:100A900002230A128A115A2D5A2D83160313330882
:100AA000003A03191C2D013A03192C2D033A03199E
:100AB0003C2D5A2D8312031306185F2D602DC72E6F
:100AC000003083160313B7000030B6000030B500C5
:100AD0000030B4009E2D013083160313B40700309C
:100AE00003180130B507003003180130B607003095
:100AF00003180130B70700303702031D892D01307C
:100B00003602031D892D86303502031D892DA13043
:100B10003402031C8C2D8D2D9E2D01308312031366
:100B2000EC006C0883160313B30703303302031C75
:100B30009A2D9B2DA42DB301A42DA42D8312031354
:100B4000061CA32DA42D6B2D83128618A82DA92D6C
:100B5000BA2EFF2FFF2FBA2ECD308312D2004C3089
:100B6000D3003E30D40083160313480883120313C6
:100B7000D50083160313490883120313D600831686
:100B800003134A0883120313D7000A128A1563213C
:100B90000A128A1183120313520883160313C80022
:100BA00083120313530883160313C900831203131C
:100BB000540883160313CA00480883120313A000C5
:100BC00083160313490883120313A100831603132A
:100BD0004A0883120313A2000030A3000030A400CF
:100BE0000030A5000A128A159D240A128A110318E2
:100BF000FA2DFB2DC72E003083160313C8000030DA
:100C0000C9000030CA00C72EC72ED7308312031385
:100C1000D2002330D3003C30D400831603134508A0
:100C200083120313D500831603134608831203139C
:100C3000D60083160313470883120313D7000A1242
:100C40008A1563210A128A1183120313520883162C
:100C50000313C50083120313530883160313C6003E
:100C600083120313540883160313C7004508831225
:100C70000313A00083160313460883120313A10075
:100C800083160313470883120313A2000030A30046
:100C90000030A4000030A5000A128A159D240A1213
:100CA0008A110318542E552EC72E003083160313B5
:100CB000C5000030C6000030C700C72EC72E003068
:100CC00083120313D2008030D3003F30D400831648
:100CD0000313420883120313D5008316031343083A
:100CE00083120313D60083160313440883120313DD
:100CF000D7000A128A1563210A128A11831203137C
:100D0000520883160313C200831203135308831679
:100D10000313C30083120313540883160313C40080
:100D2000420883120313A00083160313430883129F
:100D30000313A10083160313440883120313A200B4
:100D40000030A3000030A4000030A5000A128A156C
:100D50009D240A128A110318AE2EAF2EC72E003022
:100D600083160313C2000030C3000030C400C72E36
:100D7000C72EC72E831603133308003A0319AC2D70
:100D8000013A0319052E033A03195F2EC72E831269
:100D900003138618CC2ECD2E262BCF2ECF2E861CBD
:100DA000D22ED32ECF2EEF2FEF2FCD308312C500B2
:100DB0004C30C6003E30C700831603134808831228
:100DC0000313C80083160313490883120313C900D1
:100DD000831603134A0883120313CA000A128A15E2
:100DE000BA260A128A1183120313450883160313C5
:100DF000C80083120313460883160313C900831225
:100E00000313470883160313CA0000308312031329
:100E1000A0001030A1004130A2008316031348083F
:100E200083120313A30083160313490883120313C9
:100E3000A400831603134A0883120313A5000A12A1
:100E40008A159D240A128A110318272F282F262B72
:100E5000003083160313C8001030C9004130CA00A7
:100E6000262B262BD73083120313C5002330C60050
:100E70003C30C70083160313450883120313C800D0
:100E800083160313460883120313C9008316031342
:100E9000470883120313CA000A128A15BA260A12D7
:100EA0008A1183120313450883160313C5008312A6
:100EB0000313460883160313C6008312031347085F
:100EC00083160313C700003083120313A0004030C1
:100ED000A1004030A20083160313450883120313B8
:100EE000A30083160313460883120313A40083167A
:100EF0000313470883120313A5000A128A159D24C1
:100F00000A128A110318852F862F262B003083168C
:100F10000313C5004030C6004030C700262B262BE7
:100F2000003083120313C5008030C6003F30C70075
:100F300083160313420883120313C8008316031396
:100F4000430883120313C900831603134408831252
:100F50000313CA000A128A15BA260A128A118312CA
:100F60000313450883160313C200831203134608B4
:100F700083160313C3008312031347088316031356
:100F8000C400003083120313A0004830A100423097
:100F9000A20083160313420883120313A3008316CF
:100FA0000313430883120313A40083160313440896
:100FB00083120313A5000A128A159D240A128A11AE
:100FC0000318E32FE42F262B003083160313C200EF
:100FD0004830C3004230C400262B262B262B831614
:100FE00003133308003A0319D52E013A0319322F9F
:100FF000033A0319902F262B262B262B262B08008D
:10100000FF1B0A2883137F1883170008840A03191B
:10101000FF0A080008308A000408840A82070034A6
:101020004B3470342034203420344B346934203431
:10103000203420344B3464342034203400344C3495
:1010400069346E346534203446346F346C346C3417
:101050006F347734003450347234653473347334FD
:10106000203453345734313400344C345334413405
:0E10700030343834203400345F345F340034C0
:1010B000F00070088312031395000800640080019B
:1010C000840A04060319003404065F280034A0349F
:1010D0004134D734A3343D346634B63440343734E5
:1010E00000347A08790478040319772878287B2853
:1010F0008030FA067B287C280800F0007F288316C1
:101100000313981C842885287F288628700883125A
:10111000031399000800F20071080A128A1558207A
:101120000A128A1572080A128A1104200A128A15F4
:101130000800A3280A128A15C5230A128A15F60088
:101140007608F700A328831203138C1AA828A9286D
:101150009A28AA280800583083120313A0002008F8
:10116000F800F9010230A1002108FA006F080A1204
:101170008A152C220A128A15BD2808007E088A00CA
:101180007F0882000A128A15BE200A128A15800082
:10119000840A04087D0603190034FF0A0319FE0AB5
:1011A000C22801300A128A1507220A128A15003055
:1011B000F3000030F2000230F1005830F0000A1263
:1011C0008A15D2220A128A1508000A128A15FA20F4
:1011D0000A128A158312031387160A128A15AB2086
:1011E0000A128A1502300A128A1582210A128A15F9
:1011F000F928080083160313871707138712181599
:1012000083160317871556308316031399009A0126
:10121000831203139817831603139816831203136C
:1012200018160800831203138601870188018901BB
:10123000FF3083160313850003308600903087004B
:1012400088010330890083160317880189018312FE
:101250000313061386130800FE308316031392004F
:10126000831203139210121495019B011215971308
:1012700017139712171297151715971017109D121D
:101280001D129D151D159D101D100800FA0010302F
:101290007A0203184C294D2955297A08803E0A12F2
:1012A0008A1507220A128A1562297A08EC3EF9008B
:1012B0007908FA007A08C03E0A128A1507220A1233
:1012C0008A1562290800803083120313D40655085A
:1012D000C5005608C6005708C7005208C800530882
:1012E000C9005408CA000A128A15BA260A128A15B9
:1012F000831203134508D2004608D3004708D400E0
:1013000081290800FD0004307D02031C88298929F9
:101310008B29FD018B29443083120313A000200880
:10132000F8007D08A1002108F9000230A20022087F
:10133000FA006F080A128A152C220A128A15A029AF
:1013400008008313A0308400B4300A128A155E208E
:101350000A128A15CD30FD000830FE006630FF000D
:10136000C23084000A128A15C2200A128A150A1293
:101370008A1103200A128A15EF0083010A128A11CA
:101380002D29FB007B0883120313B100B201B301C6
:101390003108F0003208F1003308F2008E30B4005A
:1013A0003408F300F4010A128A150B250A128A1573
:1013B000700883120313AE007108AF007208B0000A
:1013C000E1290800F8008312031306167808880044
:1013D00086160030F3000030F2000030F1000A30D1
:1013E000F0000A128A15D2220A128A1583120313F8
:1013F00086120030F3000030F2000030F1000A30B5
:10140000F0000A128A15D2220A128A150800F80082
:101410008312031306127808880086160030F30042
:101420000030F2000030F1003230F0000A128A156C
:10143000D2220A128A158312031386120030F30097
:101440000030F2000030F1003230F0000A128A154C
:10145000D2220A128A150800FC007C080A128A159A
:101460007D200A128A1578080A128A157D200A1230
:101470008A1579080A128A157D200A128A157808B9
:101480007C07FB0079087B070A128A157D200A1267
:101490008A157A080A128A110A200A128A15502A15
:1014A00008008316031388010612861201300A12FF
:1014B0008A1507220A128A1502300A128A15072293
:1014C0000A128A1506300A128A1507220A128A158C
:1014D0000C300A128A1507220A128A1538300A12AD
:1014E0008A1507220A128A150A128A15D1200A12B1
:1014F0008A150800FD0183120313AF1F802A812A79
:101500008A2AAE09AF09AE0A0319AF0AFD01031416
:10151000FD0D8A2A2E08F0002F08F100F2018E300E
:10152000FB007B08F3007D08FC007C08F4000A1235
:101530008A150B250A128A15700883120313AE0050
:101540007108AF007208B000A52A080083120313C7
:101550008712AA2A0A128A15C5230A128A15F800C8
:101560007808FA0083160313B208031DB82AB92AB3
:10157000AA2A8312031387160A128A1599200A12BF
:101580008A157A08FF3A031DC62AC72ACA2A7F305D
:10159000D12AD12A7A08DD3EF8007808F9007908C6
:1015A000D12A08007308720471047004031DD92A3B
:1015B000DA2ADC2A012B012B0130F4000030F5007F
:1015C0000030F6000030F7007408F0027508031CC4
:1015D000750FEB2AEC2AF1027608031C760FF12A2C
:1015E000F22AF2027708031C770FF72AF82AF3028F
:1015F0007308720471047004031DFF2A002BDC2A97
:10160000012B08001A2B7A0883120313FF007908B4
:1016100084000A128A1500200A128A150A128A15F5
:10162000E2210A128A150130F9070318FA0A00307C
:10163000FA071A2B7A08790403191F2B202B322B57
:101640007A0883120313FF00790884000A128A15AE
:1016500000200A128A150038031D2F2B302B032B74
:10166000322B322B0800710870040319382B392BE8
:101670006F2BF5010314F50D492B01300310F00D0C
:10168000F10DFF3E031D3E2B0130F4007408F507F9
:10169000492BF11F4C2B4D2B3D2B4F2B4F2B710802
:1016A0007302031D552B70087202031C582B592B13
:1016B000602B7008F2027108031CF303F302602B25
:1016C00001300310F10CF00CFF3E031D612B0130C3
:1016D000F502031D6C2B6D2B4F2B6F2B6F2B73089B
:1016E000F101F1077208F001F007762B0800F5010F
:1016F000F6017108700403197E2B7F2BBD2BF701B7
:101700000314F70D8F2B01300310F00DF10DFF3E88
:10171000031D842B0130F4007408F7078F2BF11F91
:10172000922B932B832B952B952B01300310F50DCA
:10173000F60DFF3E031D962B71087302031DA22BAD
:1017400070087202031CA52BA62BAE2B7008F202A8
:101750007108031CF303F3027514AE2B0130031060
:10176000F10CF00CFF3E031DAF2B0130F702031DFF
:10177000BA2BBB2B952BBD2BBD2B7608F101F107A6
:101780007508F001F007C42B08000030F4000030A9
:10179000F3000030F2000030F10083120313981CB4
:1017A000D22BD32B062C1812181683160313B20152
:1017B0000314B20DFF302F2C2F2C062C0130F10713
:1017C000003003180130F207003003180130F3072E
:1017D000003003180130F40700307402031DFA2BA7
:1017E00000307302031DFA2B3A307202031DFA2BEC
:1017F00099307102031CFD2BFE2B062C831603135C
:10180000B2010314B20DFF302F2C2F2C83128C1E2B
:101810000A2C0B2CDE2B0C2C1A08F0007008F5009B
:10182000181D132C142C292C1B2C1B2C1A08F0000F
:101830007008F5001B2C8C1A1E2C1F2C162C202C2B
:1018400083160313B2010314B20DFF302F2C2F2C7B
:101850002F2C83160313B20175082F2C2F2C080090
:10186000F20072087F3A031D362C372C402C831669
:1018700003132108AF01AF072008AE01AE079C2C6F
:10188000720883160313AE00AF01AE1BAF03240929
:10189000F0002509F100F00A0319F10A2E0870077B
:1018A000A6002F0803182F0A7107A7002E08A80703
:1018B0000318A90A2F08A9072908803AFF008730D2
:1018C0007F02031D652CD1302802031C682C692C73
:1018D000702CD03083160313A8000730A900872C82
:1018E000831603132908803AFF0078307F02031D16
:1018F0007B2C3030280203187E2C7F2C872C303034
:1019000083160313A800F830A900872C872C8316B0
:1019100003132308A501A5072208A401A407210891
:10192000A301A3072008A201A2072F08A101A10774
:101930002E08A001A0079C2C080083120313A21FED
:10194000A22CA32CC92C0030A6000030A7008030A8
:10195000A8002009A9002109AA002209AB00A90AB0
:101960000319AA0A0319AB0A2908A6072A080318AB
:101970002A0FBB2CBC2CA7072B0803182B0FC12C3C
:10198000C22CA8072608A0002708A1002808A2004A
:10199000C92CA51FCC2CCD2CF32C0030A600003078
:1019A000A7008030A8002309A9002409AA0025095E
:1019B000AB00A90A0319AA0A0319AB0A2908A6074A
:1019C0002A0803182A0FE52CE62CA7072B08031872
:1019D0002B0FEB2CEC2CA8072608A3002708A4004B
:1019E0002808A500F32C8030A2068030A506250823
:1019F0002202031D012D24082102031D012D2308AD
:101A000020020318042D052D072D03100A2D0314A1
:101A10000A2D0A2D08007308031D0F2D172D7208BB
:101A200071047004031D152D162D2D2D172D00305A
:101A3000F0000030F1000030F200852D852D2D2DB5
:101A40000130F5007508F30701300310F20CF10CBA
:101A5000F00CFF3E031D252D2D2DFE307205031DBC
:101A6000322D332D202D4B2D4B2D0130F5007508D7
:101A7000F3070130F007003003180130F1070030A0
:101A800003180130F20701300310F20CF10CF00CD6
:101A9000FF3E031D442DFF307205031D502D512DB7
:101AA000352D5E2D5E2D0130F30201300310F00D57
:101AB000F10DF20DFF3E031D562D5E2DF11F612D20
:101AC000622D532D7318652D662D6C2DFF30F0059A
:101AD0007F30F105FF30F2050310F30C7308F500B9
:101AE000F601F70110300310F50DF60DF70DFF3E6E
:101AF000031D732D7508F0047608F1047708F204CD
:101B00007408031D842D852DF2170800831203131A
:101B10005408FF3ED5005508EA005408593E840099
:101B200083138001EB01D42D0A30F0000030F10066
:101B30005308F301F3075208F201F2070A128A155B
:101B400033230A128A157008303E83120313D5001E
:101B50006B03FF3A6A07593E8400550883138000DF
:101B60000A30F0000030F1005308F301F307520887
:101B7000F201F2070A128A1577230A128A157108F0
:101B800083120313D301D3077008D201D20753087D
:101B90005204031DCC2DCD2DCF2DDB2DDB2D01309F
:101BA000D5005508EB07D42D54086B02031CD92D22
:101BB000DA2D942DDB2D6B03FF3A6A07593EF900AD
:101BC0000030FA000A128A1502230A128A158312BB
:101BD0000313E901F82D20300A128A15E2210A12B6
:101BE0008A15013083120313D5005508E907F82D33
:101BF0006B08D500D601D509D609D50A0319D60A2E
:101C00006A085507D70056080318560AD80058081E
:101C1000803A803C031D0E2E57086902031C112ECA
:101C2000122EEB2D132E0800831203132008A4009C
:101C30002108A5002208A6000310250D260DA700E7
:101C40002708AD00AD08031D262E272E312E0030AB
:101C5000A3000030A2000030A1000030A000B92E87
:101C6000B92E2008A4002108A5002208A6001730DC
:101C70000310A60CA50CA40CFF3E031D382E24084F
:101C8000A7002708A800A117FF30A005FF30A10575
:101C90000030A2052008A9002108AA002208AB00F4
:101CA000AC018E30AD02AD1F562E572E7C2E2D0866
:101CB000803A8F3E03185D2E5E2E692E0030A30001
:101CC0000030A2000030A1000030A000B92EB92ED3
:101CD000692E01300310AC0CAB0CAA0CA90CFF3E12
:101CE000031D6A2E0130A4002408AD07031D792EC0
:101CF0007A2E692EA02EA02E18302D02031C812EC4
:101D0000822E992E0030A3000030A2000030A100E6
:101D10000030A000B92EB92E992E0130A400031076
:101D2000A90DAA0DAB0DAC0DA40B8F2E0130AD0289
:101D3000992EAD08031D9D2E9E2E8D2EA02EA02E19
:101D40002808031DA42EB02EA909AA09AB09AC09C5
:101D5000A90A0319AA0A0319AB0A0319AC0AB02E7F
:101D60002C08A3002B08A2002A08A1002908A00023
:101D7000B92E0800831203134508CB004608CC0097
:101D80004708CD0003104C0D4D0DCE004E08D1007C
:101D90004808CB004908CC004A08CD0003104C0D80
:101DA0004D0DCE004E08D0005108031DD82EE92E4F
:101DB000500851020318DD2EDE2EF12E5103FF3A9A
:101DC0005007CB0019304B02031CE72EE82EF12EF2
:101DD000E92E4808C5004908C6004A08C700FF2F79
:101DE000FF2F5008031DF52E052F51085002031830
:101DF000FA2EFB2E062F5003FF3A5107CB00193065
:101E00004B02031C042F052F062FFF2F0630CB009B
:101E10004B08CF00C71F0D2F0E2F0F2FCF17CA1F34
:101E2000122F132F142F4F17C617FF30C505FF3081
:101E3000C6050030C705C917FF30C805FF30C90502
:101E40000030CA05500851020318272F282F592F98
:101E5000292F01300310C80DC90DCA0DFF3E031D07
:101E60002A2F0130D002500851060319382F392F7C
:101E7000512F0130CF024F080739031D402F412F4A
:101E8000292F512F512F512F01300310C70CC60C91
:101E9000C50CFF3E031D452F0130CB004B08D10779
:101EA000512F51085006031D562F572F442F902FA6
:101EB000902F5108500203185E2F5F2F902F602F34
:101EC00001300310C50DC60DC70DFF3E031D612F68
:101ED0000130D1025008510603196F2F702F882F3F
:101EE0000130CF024F080739031D772F782F602F5D
:101EF000882F882F882F01300310CA0CC90CC80CFA
:101F0000FF3E031D7C2F0130CB004B08D007882FEC
:101F100051085006031D8D2F8E2F7B2F902F902F51
:101F2000CF1F932F942FA52FFF30C506FF30C60675
:101F3000FF30C7060130C507003003180130C6075F
:101F4000003003180130C707A52F4F1FA82FA92F56
:101F5000BA2FFF30C806FF30C906FF30CA0601306D
:101F6000C807003003180130C907003003180130DA
:101F7000CA07BA2FCF014508C8074608031103183E
:101F8000460A0319C42FC907470803110318470A53
:101F90000319CB2FCA07CA1FCE2FCF2FE32FFF3035
:101FA000C806FF30C906FF30CA060130C807003036
:101FB00003180130C907003003180130CA07CF01E8
:101FC0000314CF0DE32F4808F0004908F1004A0838
:101FD000F2005108CB004B08F3004F08CC004C082E
:101FE000F4000A128A150B250A128A15700883124A
:101FF0000313C5007108C6007208C700FF2F080050
:02400E00F2ECD2
:00000001FF
