:020000040000FA
:06000000BAEF3DF0120012
:020006001200E6
:06000800B8EF39F0120010
:06001800C1EF39F01200F7
:02001E000100DF
:0C002000AB7B00006F000000010000003E
:04002C00D9CFE6FF43
:10003000E1CFD9FF030EE126060EDF6E010EDB6A6B
:10004000020EDB6AF250800B01E0010EE76E020E39
:10005000E7CFDBFFF250400B01E0010EE76E010E2F
:10006000E7CFDBFFF29EF29CDF06DF5002E18B84DC
:1000700016D0FE0EDBCFE6FFA6EC3CF0E552000901
:1000800003E003EC3DF0F0D7E66AF0EC3CF0E5521B
:10009000000903E003EC3DF0E7D703EC3DF0020E6E
:1000A000DB50E8B0F28EE8A0F29E010EDB50E8B023
:1000B000F28CE8A0F29C030EE15C02E2E16AE552F8
:1000C000E16EE552E7CFD9FF1200D9CFE6FFE1CFCD
:1000D000D9FF030EE126060EDF6E010EDB6A020E6B
:1000E000DB6AF250800B01E0010EE76E020EE7CFF3
:1000F000DBFFF250400B01E0010EE76E010EE7CF8F
:10010000DBFFF29EF29CDF06DF5002E18B8417D00A
:10011000FE0EDBCFE6FFA6EC3CF0E552000903E063
:1001200003EC3DF0F0D7140EE66EF0EC3CF0E55237
:10013000000903E003EC3DF0E6D703EC3DF0020ECE
:10014000DB50E8B0F28EE8A0F29E010EDB50E8B082
:10015000F28CE8A0F29C030EE15C02E2E16AE55257
:10016000E16EE552E7CFD9FF1200D9CFE6FFE1CF2C
:10017000D9FF040EE126DE52060EDD6E020EDB6AAA
:10018000030EDB6AF250800B01E0010EE76E030EF6
:10019000E7CFDBFFF250400B01E0010EE76E020EED
:1001A000E7CFDBFFF29EF29C010EDB06DB5002E1A3
:1001B0008B8417D0FE0EDBCFE6FFA6EC3CF0E552B9
:1001C000000903E003EC3DF0EFD7010EE66EF0EC22
:1001D0003CF0E552000903E003EC3DF0E5D703EC09
:1001E0003DF0030EDB50E8B0F28EE8A0F29E020E66
:1001F000DB50E8B0F28CE8A0F29C040EE15C02E275
:10020000E16AE552E16EE552E7CFD9FF1200D9CF9E
:10021000E6FFE1CFD9FF040EE126DE52060EDD6EC9
:10022000020EDB6A030EDB6AF250800B01E0010E66
:10023000E76E030EE7CFDBFFF250400B01E0010E4B
:10024000E76E020EE7CFDBFFF29EF29C010EDB06AB
:10025000DB5002E18B8417D0FE0EDBCFE6FFA6EC6D
:100260003CF0E552000903E003EC3DF0EFD7150E3A
:10027000E66EF0EC3CF0E552000903E003EC3DF0E3
:10028000E5D703EC3DF0030EDB50E8B0F28EE8A0BA
:10029000F29E020EDB50E8B0F28CE8A0F29C040E55
:1002A000E15C02E2E16AE552E16EE552E7CFD9FF97
:1002B0001200D9CFE6FFE1CFD9FF030EE126060EEB
:1002C000DF6E010EDB6A020EDB6AF250800B01E08A
:1002D000010EE76E020EE7CFDBFFF250400B01E0AC
:1002E000010EE76E010EE7CFDBFFF29EF29CDF0608
:1002F000DF5002E18B8417D0FE0EDBCFE6FFA6ECC9
:100300003CF0E552000903E003EC3DF0F0D7020EAB
:10031000E66EF0EC3CF0E552000903E003EC3DF042
:10032000E6D703EC3DF0020EDB50E8B0F28EE8A019
:10033000F29E010EDB50E8B0F28CE8A0F29C030EB6
:10034000E15C02E2E16AE552E16EE552E7CFD9FFF6
:100350001200D9CFE6FFE1CFD9FF030EE126060E4A
:10036000DF6E010EDB6A020EDB6AF250800B01E0E9
:10037000010EE76E020EE7CFDBFFF250400B01E00B
:10038000010EE76E010EE7CFDBFFF29EF29CDF0667
:10039000DF5002E18B8417D0FE0EDBCFE6FFA6EC28
:1003A0003CF0E552000903E003EC3DF0F0D7160EF7
:1003B000E66EF0EC3CF0E552000903E003EC3DF0A2
:1003C000E6D703EC3DF0020EDB50E8B0F28EE8A079
:1003D000F29E010EDB50E8B0F28CE8A0F29C030E16
:1003E000E15C02E2E16AE552E16EE552E7CFD9FF56
:1003F0001200D9CFE6FFE1CFD9FF040EE126DE528D
:10040000060EDD6E020EDB6A030EDB6AF250800B15
:1004100001E0010EE76E030EE7CFDBFFF250400B69
:1004200001E0010EE76E020EE7CFDBFFF29EF29CC9
:10043000010EDB06DB5002E18B8417D0FE0EDBCF12
:10044000E6FFA6EC3CF0E552000903E003EC3DF0CA
:10045000EFD7030EE66EF0EC3CF0E552000903E046
:1004600003EC3DF0E5D703EC3DF0030EDB50E8B0C4
:10047000F28EE8A0F29E020EDB50E8B0F28CE8A00B
:10048000F29C040EE15C02E2E16AE552E16EE552A3
:10049000E7CFD9FF1200D9CFE6FFE1CFD9FF040E95
:1004A000E126DE52060EDD6E020EDB6A030EDB6A0B
:1004B000F250800B01E0010EE76E030EE7CFDBFF89
:1004C000F250400B01E0010EE76E020EE7CFDBFFBA
:1004D000F29EF29C010EDB06DB5002E18B8417D00A
:1004E000FE0EDBCFE6FFA6EC3CF0E552000903E090
:1004F00003EC3DF0EFD7170EE66EF0EC3CF0E55262
:10050000000903E003EC3DF0E5D703EC3DF0030EFA
:10051000DB50E8B0F28EE8A0F29E020EDB50E8B0AD
:10052000F28CE8A0F29C040EE15C02E2E16AE55282
:10053000E16EE552E7CFD9FF1200D9CFE6FFE1CF58
:10054000D9FF030EE126060EDF6E010EDB6A020EF6
:10055000DB6AF250800B01E0010EE76E020EE7CF7E
:10056000DBFFF250400B01E0010EE76E010EE7CF1A
:10057000DBFFF29EF29CDF06DF5002E18B8417D096
:10058000FE0EDBCFE6FFA6EC3CF0E552000903E0EF
:1005900003EC3DF0F0D7040EE66EF0EC3CF0E552D3
:1005A000000903E003EC3DF0E6D703EC3DF0020E5A
:1005B000DB50E8B0F28EE8A0F29E010EDB50E8B00E
:1005C000F28CE8A0F29C030EE15C02E2E16AE552E3
:1005D000E16EE552E7CFD9FF1200D9CFE6FFE1CFB8
:1005E000D9FF030EE126060EDF6E010EDB6A020E56
:1005F000DB6AF250800B01E0010EE76E020EE7CFDE
:10060000DBFFF250400B01E0010EE76E010EE7CF79
:10061000DBFFF29EF29CDF06DF5002E18B8417D0F5
:10062000FE0EDBCFE6FFA6EC3CF0E552000903E04E
:1006300003EC3DF0F0D7180EE66EF0EC3CF0E5521E
:10064000000903E003EC3DF0E6D703EC3DF0020EB9
:10065000DB50E8B0F28EE8A0F29E010EDB50E8B06D
:10066000F28CE8A0F29C030EE15C02E2E16AE55242
:10067000E16EE552E7CFD9FF1200D9CFE6FFE1CF17
:10068000D9FF030EE126060EDF6E010EDB6A020EB5
:10069000DB6AF250800B01E0010EE76E020EE7CF3D
:1006A000DBFFF250400B01E0010EE76E010EE7CFD9
:1006B000DBFFF29EF29CDF06DF5002E18B8417D055
:1006C000FE0EDBCFE6FFA6EC3CF0E552000903E0AE
:1006D00003EC3DF0F0D7050EE66EF0EC3CF0E55291
:1006E000000903E003EC3DF0E6D703EC3DF0020E19
:1006F000DB50E8B0F28EE8A0F29E010EDB50E8B0CD
:10070000F28CE8A0F29C030EE15C02E2E16AE552A1
:10071000E16EE552E7CFD9FF1200D9CFE6FFE1CF76
:10072000D9FF030EE126060EDF6E010EDB6A020E14
:10073000DB6AF250800B01E0010EE76E020EE7CF9C
:10074000DBFFF250400B01E0010EE76E010EE7CF38
:10075000DBFFF29EF29CDF06DF5002E18B8417D0B4
:10076000FE0EDBCFE6FFA6EC3CF0E552000903E00D
:1007700003EC3DF0F0D7190EE66EF0EC3CF0E552DC
:10078000000903E003EC3DF0E6D703EC3DF0020E78
:10079000DB50E8B0F28EE8A0F29E010EDB50E8B02C
:1007A000F28CE8A0F29C030EE15C02E2E16AE55201
:1007B000E16EE552E7CFD9FF1200D9CFE6FFE1CFD6
:1007C000D9FF030EE126060EDF6E010EDB6A020E74
:1007D000DB6AF250800B01E0010EE76E020EE7CFFC
:1007E000DBFFF250400B01E0010EE76E010EE7CF98
:1007F000DBFFF29EF29CDF06DF5002E18B8417D014
:10080000FE0EDBCFE6FFA6EC3CF0E552000903E06C
:1008100003EC3DF0F0D7060EE66EF0EC3CF0E5524E
:10082000000903E003EC3DF0E6D703EC3DF0020ED7
:10083000DB50E8B0F28EE8A0F29E010EDB50E8B08B
:10084000F28CE8A0F29C030EE15C02E2E16AE55260
:10085000E16EE552E7CFD9FF1200D9CFE6FFE1CF35
:10086000D9FF030EE126060EDF6E010EDB6A020ED3
:10087000DB6AF250800B01E0010EE76E020EE7CF5B
:10088000DBFFF250400B01E0010EE76E010EE7CFF7
:10089000DBFFF29EF29CDF06DF5002E18B8417D073
:1008A000FE0EDBCFE6FFA6EC3CF0E552000903E0CC
:1008B00003EC3DF0F0D71A0EE66EF0EC3CF0E5529A
:1008C000000903E003EC3DF0E6D703EC3DF0020E37
:1008D000DB50E8B0F28EE8A0F29E010EDB50E8B0EB
:1008E000F28CE8A0F29C030EE15C02E2E16AE552C0
:1008F000E16EE552E7CFD9FF1200D9CFE6FFE1CF95
:10090000D9FF030EE126060EDF6E010EDB6A020E32
:10091000DB6AF250800B01E0010EE76E020EE7CFBA
:10092000DBFFF250400B01E0010EE76E010EE7CF56
:10093000DBFFF29EF29CDF06DF5002E18B8417D0D2
:10094000FE0EDBCFE6FFA6EC3CF0E552000903E02B
:1009500003EC3DF0F0D7070EE66EF0EC3CF0E5520C
:10096000000903E003EC3DF0E6D703EC3DF0020E96
:10097000DB50E8B0F28EE8A0F29E010EDB50E8B04A
:10098000F28CE8A0F29C030EE15C02E2E16AE5521F
:10099000E16EE552E7CFD9FF1200D9CFE6FFE1CFF4
:1009A000D9FF030EE126060EDF6E010EDB6A020E92
:1009B000DB6AF250800B01E0010EE76E020EE7CF1A
:1009C000DBFFF250400B01E0010EE76E010EE7CFB6
:1009D000DBFFF29EF29CDF06DF5002E18B8417D032
:1009E000FE0EDBCFE6FFA6EC3CF0E552000903E08B
:1009F00003EC3DF0F0D71B0EE66EF0EC3CF0E55258
:100A0000000903E003EC3DF0E6D703EC3DF0020EF5
:100A1000DB50E8B0F28EE8A0F29E010EDB50E8B0A9
:100A2000F28CE8A0F29C030EE15C02E2E16AE5527E
:100A3000E16EE552E7CFD9FF1200D9CFE6FFE1CF53
:100A4000D9FF030EE126060EDF6E010EDB6A020EF1
:100A5000DB6AF250800B01E0010EE76E020EE7CF79
:100A6000DBFFF250400B01E0010EE76E010EE7CF15
:100A7000DBFFF29EF29CDF06DF5002E18B8422D086
:100A8000FE0EDBCFE6FFA6EC3CF0E552000903E0EA
:100A900003EC3DF0F0D7080EE66EF0EC3CF0E552CA
:100AA000000903E003EC3DF0E6D7FD0EDBCFE6FFE7
:100AB000F0EC3CF0E552000903E003EC3DF0DBD73D
:100AC00003EC3DF0020EDB50E8B0F28EE8A0F29E9F
:100AD000010EDB50E8B0F28CE8A0F29C030EE15C62
:100AE00002E2E16AE552E16EE552E7CFD9FF12007A
:100AF000D9CFE6FFE1CFD9FF030EE126060EDF6E68
:100B0000010EDB6A020EDB6AF250800B01E0010E7F
:100B1000E76E020EE7CFDBFFF250400B01E0010E63
:100B2000E76E010EE7CFDBFFF29EF29CDF06DF509F
:100B300002E18B8422D0FE0EDBCFE6FFA6EC3CF078
:100B4000E552000903E003EC3DF0F0D71C0EE66E21
:100B5000F0EC3CF0E552000903E003EC3DF0E6D791
:100B6000FD0EDBCFE6FFF0EC3CF0E552000903E0C0
:100B700003EC3DF0DBD703EC3DF0020EDB50E8B0B8
:100B8000F28EE8A0F29E010EDB50E8B0F28CE8A0F5
:100B9000F29C030EE15C02E2E16AE552E16EE5528D
:100BA000E7CFD9FF1200D9CFE6FFE1CFD9FF030E7F
:100BB000E126060EDF6E010EDB6A020EDB6AF250E2
:100BC000800B01E0010EE76E020EE7CFDBFFF25073
:100BD000400B01E0010EE76E010EE7CFDBFFF29E56
:100BE000F29CDF06DF5002E18B8422D0FE0EDBCFC9
:100BF000E6FFA6EC3CF0E552000903E003EC3DF013
:100C0000F0D7090EE66EF0EC3CF0E552000903E087
:100C100003EC3DF0E6D7FD0EDBCFE6FFF0EC3CF059
:100C2000E552000903E003EC3DF0DBD703EC3DF0B7
:100C3000020EDB50E8B0F28EE8A0F29E010EDB500F
:100C4000E8B0F28CE8A0F29C030EE15C02E2E16AFB
:100C5000E552E16EE552E7CFD9FF1200D9CFE6FFAA
:100C6000E1CFD9FF030EE126060EDF6E010EDB6A2F
:100C7000020EDB6AF250800B01E0010EE76E020EFD
:100C8000E7CFDBFFF250400B01E0010EE76E010EF3
:100C9000E7CFDBFFF29EF29CDF06DF5002E18B84A0
:100CA00022D0FE0EDBCFE6FFA6EC3CF0E5520009B9
:100CB00003E003EC3DF0F0D71D0EE66EF0EC3CF0E7
:100CC000E552000903E003EC3DF0E6D7FD0EDBCF73
:100CD000E6FFF0EC3CF0E552000903E003EC3DF0E8
:100CE000DBD703EC3DF0020EDB50E8B0F28EE8A05B
:100CF000F29E010EDB50E8B0F28CE8A0F29C030EED
:100D0000E15C02E2E16AE552E16EE552E7CFD9FF2C
:100D10001200D9CFE6FFE1CFD9FF030EE126060E80
:100D2000DF6E010EDB6A020EDB6AF250800B01E01F
:100D3000010EE76E020EE7CFDBFFF250400B01E041
:100D4000010EE76E010EE7CFDBFFF29EF29CDF069D
:100D5000DF5002E18B8422D0FE0EDBCFE6FFA6EC53
:100D60003CF0E552000903E003EC3DF0F0D71F0E24
:100D7000E66EF0EC3CF0E552000903E003EC3DF0D8
:100D8000E6D7FD0EDBCFE6FFF0EC3CF0E5520009C4
:100D900003E003EC3DF0DBD703EC3DF0020EDB504B
:100DA000E8B0F28EE8A0F29E010EDB50E8B0F28CC3
:100DB000E8A0F29C030EE15C02E2E16AE552E16E1A
:100DC000E552E7CFD9FF1200D9CFE6FFE1CFD9FF37
:100DD000030EE126060EDF6E010EDB6A020EDB6AF1
:100DE000F250800B01E0010EE76E020EE7CFDBFF51
:100DF000F250400B01E0010EE76E010EE7CFDBFF82
:100E0000F29EF29CDF06DF5002E18B8422D0FE0EC0
:100E1000DBCFE6FFA6EC3CF0E552000903E003EC73
:100E20003DF0F0D7200EE66EF0EC3CF0E552000904
:100E300003E003EC3DF0E6D7FD0EDBCFE6FFF0EC80
:100E40003CF0E552000903E003EC3DF0DBD703EC96
:100E50003DF0020EDB50E8B0F28EE8A0F29E010EEB
:100E6000DB50E8B0F28CE8A0F29C030EE15C02E2F9
:100E7000E16AE552E16EE552E7CFD9FF1200D9CF22
:100E8000E6FFE1CFD9FF030EE126060EDF6E010E6D
:100E9000DB6A020EDB6AF250800B01E0010EE76EA6
:100EA000020EE7CFDBFFF250400B01E0010EE76ED0
:100EB000010EE7CFDBFFF29EF29CDF06DF5002E17E
:100EC0008B8422D0FE0EDBCFE6FFA6EC3CF0E55291
:100ED000000903E003EC3DF0F0D71E0EE66EF0ECE7
:100EE0003CF0E552000903E003EC3DF0E6D7FD0ECF
:100EF000DBCFE6FFF0EC3CF0E552000903E003EC49
:100F00003DF0DBD703EC3DF0020EDB50E8B0F28E93
:100F1000E8A0F29E010EDB50E8B0F28CE8A0F29C53
:100F2000030EE15C02E2E16AE552E16EE552E7CFD1
:100F3000D9FF1200D9CFE6FFE1CFD9FF030EE1269A
:100F4000060EDF6E010EDB6A020EDB6AF250800BCA
:100F500001E0010EE76E020EE7CFDBFFF250400B1F
:100F600001E0010EE76E010EE7CFDBFFF29EF29C7F
:100F7000DF06DF5002E18B8417D0FE0EDBCFE6FFE9
:100F8000A6EC3CF0E552000903E003EC3DF0F0D79D
:100F9000290EE66EF0EC3CF0E552000903E003ECAC
:100FA0003DF0E6D703EC3DF0020EDB50E8B0F28EE8
:100FB000E8A0F29E010EDB50E8B0F28CE8A0F29CB3
:100FC000030EE15C02E2E16AE552E16EE552E7CF31
:100FD000D9FF1200D9CFE6FFE1CFD9FF030EE126FA
:100FE000060EDF6E010EDB6A020EDB6AF250800B2A
:100FF00001E0010EE76E020EE7CFDBFFF250400B7F
:1010000001E0010EE76E010EE7CFDBFFF29EF29CDE
:10101000DF06DF5002E18B8417D0FE0EDBCFE6FF48
:10102000A6EC3CF0E552000903E003EC3DF0F0D7FC
:101030002A0EE66EF0EC3CF0E552000903E003EC0A
:101040003DF0E6D703EC3DF0020EDB50E8B0F28E47
:10105000E8A0F29E010EDB50E8B0F28CE8A0F29C12
:10106000030EE15C02E2E16AE552E16EE552E7CF90
:10107000D9FF1200D9CFE6FFE1CFD9FF060EE12656
:10108000F36E030EF3CFDBFF040EDB6A050EDB6AA3
:10109000F250800B01E0010EE76E050EE7CFDBFF9B
:1010A000F250400B01E0010EE76E040EE7CFDBFFCC
:1010B000F29EF29CFA0EDB50E76E020EE7CFDBFFEA
:1010C000FA0EDBCF10F0FB0EDBCF11F0FC0EDBCF06
:1010D00012F0FD0EDBCF13F0080ED890133212324F
:1010E00011321032E806F9E1010E10C0DBFFFA0EF2
:1010F000DBCF10F0FB0EDBCF11F0FC0EDBCF12F0DC
:10110000FD0EDBCF13F0100ED890133212321132D5
:101110001032E806F9E11050DF6E030EDB06DB50FB
:1011200002E18B8458D0FE0EDBCFE6FFA6EC3CF04C
:10113000E552000903E003EC3DF0EFD7330EE66E15
:10114000F0EC3CF0E552000903E003EC3DF0E5D79C
:10115000DFCFE6FFF0EC3CF0E552000903E003ECE2
:101160003DF0DBD7010EDBCFE6FFF0EC3CF0E552C3
:10117000000903E003EC3DF0D0D7020EDBCFE6FF21
:10118000F0EC3CF0E552000903E003EC3DF0C5D77C
:10119000F90EDBCFE6FFF0EC3CF0E552000903E08E
:1011A00003EC3DF0BAD7F80EDBCFE6FFF0EC3CF0F5
:1011B000E552000903E003EC3DF0AFD7F70EDBCFBB
:1011C000E6FFF0EC3CF0E552000903E003EC3DF0F3
:1011D000A4D703EC3DF0050EDB50E8B0F28EE8A09A
:1011E000F29E040EDB50E8B0F28CE8A0F29C060EF2
:1011F000E15C02E2E16AE552E16EE552E7CFD9FF38
:101200001200D9CFE6FFE1CFD9FF060EE126F36E3B
:10121000030EF3CFDBFF040EDB6A050EDB6AF25030
:10122000800B01E0010EE76E050EE7CFDBFFF25009
:10123000400B01E0010EE76E040EE7CFDBFFF29EEC
:10124000F29CFA0EDB50E76E020EE7CFDBFFFA0EE0
:10125000DBCF10F0FB0EDBCF11F0FC0EDBCF12F07A
:10126000FD0EDBCF13F0080ED8901332123211327C
:101270001032E806F9E1010E10C0DBFFFA0EDBCFF9
:1012800010F0FB0EDBCF11F0FC0EDBCF12F0FD0EE9
:10129000DBCF13F0100ED89013321232113210320D
:1012A000E806F9E11050DF6E030EDB06DB5002E1C9
:1012B0008B8458D0FE0EDBCFE6FFA6EC3CF0E55267
:1012C000000903E003EC3DF0EFD7340EE66EF0ECDE
:1012D0003CF0E552000903E003EC3DF0E5D7DFCF39
:1012E000E6FFF0EC3CF0E552000903E003EC3DF0D2
:1012F000DBD7010EDBCFE6FFF0EC3CF0E552000956
:1013000003E003EC3DF0D0D7020EDBCFE6FFF0ECBC
:101310003CF0E552000903E003EC3DF0C5D7F90EBF
:10132000DBCFE6FFF0EC3CF0E552000903E003EC14
:101330003DF0BAD7F80EDBCFE6FFF0EC3CF0E5521B
:10134000000903E003EC3DF0AFD7F70EDBCFE6FF7B
:10135000F0EC3CF0E552000903E003EC3DF0A4D7CB
:1013600003EC3DF0050EDB50E8B0F28EE8A0F29EF3
:10137000040EDB50E8B0F28CE8A0F29C060EE15CB3
:1013800002E2E16AE552E16EE552E7CFD9FF1200D1
:10139000D9CFE6FFE1CFD9FF080EE126DE6ADE6A8B
:1013A000DE6ADD6ADD52DD52060EF36E040EF3CF07
:1013B000DBFF060EDB6A070EDB6AF250800B01E0F2
:1013C000010EE76E070EE7CFDBFFF250400B01E0A6
:1013D000010EE76E060EE7CFDBFFF29EF29C040ED5
:1013E000DB06DB5002E18B84BBD0FE0EDBCFE6FFD9
:1013F000A6EC3CF0E552000903E003EC3DF0EFD72A
:10140000650EE66EF0EC3CF0E552000903E003ECFB
:101410003DF0E5D703EC3DF0FE0EDBCFE6FFCBEC75
:101420003CF0E552000903E003EC3DF0D8D709ECAD
:101430003DF0E76E050EE7CFDBFFDBCF10F0000ECF
:1014400010C0DFFF010EDB6A020EDB6A030EDB6AEF
:10145000D9CFE9FFDACFEAFFEECF10F0EECF11F0EF
:10146000EECF12F0EFCF13F0080E1F0B07E0D8906D
:101470001036113612361336E806F9E110C0DFFFD8
:10148000010E11C0DBFF020E12C0DBFF030E13C002
:10149000DBFF09EC3DF0E76E050EE7CFDBFFDBCFAE
:1014A00010F0116A126A136AD9CFE9FFDACFEAFFA6
:1014B000EE501012EE501112EE501212EE501312A6
:1014C00010C0DFFF010E11C0DBFF020E12C0DBFFF8
:1014D000030E13C0DBFFD9CFE9FFDACFEAFFEECF6F
:1014E00010F0EECF11F0EECF12F0EFCF13F0080EA8
:1014F0001F0B07E0D8901036113612361336E80667
:10150000F9E110C0DFFF010E11C0DBFF020E12C0B7
:10151000DBFF030E13C0DBFF20EC3DF0E76E050E92
:10152000E7CFDBFFDBCF10F0116A126A136AD9CF65
:10153000E9FFDACFEAFFEE501012EE501112EE5032
:101540001212EE50131210C0DFFF010E11C0DBFFAC
:10155000020E12C0DBFF030E13C0DBFF03EC3DF0F5
:10156000070EDB50E8B0F28EE8A0F29E060EDB50CC
:10157000E8B0F28CE8A0F29CDECF04F0DECF05F0FC
:10158000DECF06F0DDCF07F0DD52DD52080EE15C64
:1015900003E200D0E16AE552E16EE552E7CFD9FF00
:1015A0001200D9CFE6FFE1CFD9FF080EE126DE6AAF
:1015B000DE6ADE6ADD6ADD52DD52060EF36E040E6F
:1015C000F3CFDBFF060EDB6A070EDB6AF250800BFF
:1015D00001E0010EE76E070EE7CFDBFFF250400B94
:1015E00001E0010EE76E060EE7CFDBFFF29EF29CF4
:1015F000040EDB06DB5002E18B84BBD0FE0EDBCF9A
:10160000E6FFA6EC3CF0E552000903E003EC3DF0F8
:10161000EFD7660EE66EF0EC3CF0E552000903E011
:1016200003EC3DF0E5D703EC3DF0FE0EDBCFE6FF2B
:10163000CBEC3CF0E552000903E003EC3DF0D8D7D9
:1016400009EC3DF0E76E050EE7CFDBFFDBCF10F0D6
:10165000000E10C0DFFF010EDB6A020EDB6A030E14
:10166000DB6AD9CFE9FFDACFEAFFEECF10F0EECF99
:1016700011F0EECF12F0EFCF13F0080E1F0B07E0C2
:10168000D8901036113612361336E806F9E110C03C
:10169000DFFF010E11C0DBFF020E12C0DBFF030EE5
:1016A00013C0DBFF09EC3DF0E76E050EE7CFDBFF73
:1016B000DBCF10F0116A126A136AD9CFE9FFDACFD3
:1016C000EAFFEE501012EE501112EE501212EE50D0
:1016D000131210C0DFFF010E11C0DBFF020E12C09B
:1016E000DBFF030E13C0DBFFD9CFE9FFDACFEAFF40
:1016F000EECF10F0EECF11F0EECF12F0EFCF13F0EF
:10170000080E1F0B07E0D89010361136123613362C
:10171000E806F9E110C0DFFF010E11C0DBFF020E89
:1017200012C0DBFF030E13C0DBFF20EC3DF0E76EC1
:10173000050EE7CFDBFFDBCF10F0116A126A136AE8
:10174000D9CFE9FFDACFEAFFEE501012EE501112B6
:10175000EE501212EE50131210C0DFFF010E11C036
:10176000DBFF020E12C0DBFF030E13C0DBFF03EC36
:101770003DF0070EDB50E8B0F28EE8A0F29E060EB8
:10178000DB50E8B0F28CE8A0F29CDECF04F0DECFB4
:1017900005F0DECF06F0DDCF07F0DD52DD52080E9A
:1017A000E15C03E200D0E16AE552E16EE552E7CF89
:1017B000D9FF1200D9CFE6FFE1CFD9FF040EE12611
:1017C000060EDF6E020EDB6A030EDB6AF250800B40
:1017D00001E0010EE76E030EE7CFDBFFF250400B96
:1017E00001E0010EE76E020EE7CFDBFFF29EF29CF6
:1017F000DF06DF5002E18B842AD0FE0EDBCFE6FF4E
:10180000A6EC3CF0E552000903E003EC3DF0F0D714
:10181000790EE66EF0EC3CF0E552000903E003ECD3
:101820003DF0E6D703EC3DF0FE0EDBCFE6FFCBEC60
:101830003CF0E552000903E003EC3DF0D9D720EC81
:101840003DF0E76E010EE7CFDBFF03EC3DF0030E4A
:10185000DB50E8B0F28EE8A0F29E020EDB50E8B05A
:10186000F28CE8A0F29C010EDB50106E040EE15CDD
:1018700003E200D0E16AE552E16E1050E552E7CF95
:10188000D9FF1200D9CFE6FFE1CFD9FF040EE12640
:10189000060EDF6E020EDB6A030EDB6AF250800B6F
:1018A00001E0010EE76E030EE7CFDBFFF250400BC5
:1018B00001E0010EE76E020EE7CFDBFFF29EF29C25
:1018C000DF06DF5002E18B842AD0FE0EDBCFE6FF7D
:1018D000A6EC3CF0E552000903E003EC3DF0F0D744
:1018E0007A0EE66EF0EC3CF0E552000903E003EC02
:1018F0003DF0E6D703EC3DF0FE0EDBCFE6FFCBEC90
:101900003CF0E552000903E003EC3DF0D9D720ECB0
:101910003DF0E76E010EE7CFDBFF03EC3DF0030E79
:10192000DB50E8B0F28EE8A0F29E020EDB50E8B089
:10193000F28CE8A0F29C010EDB50106E040EE15C0C
:1019400003E200D0E16AE552E16E1050E552E7CFC4
:10195000D9FF1200D9CFE6FFE1CFD9FF040EE1266F
:10196000060EDF6E020EDB6A030EDB6AF250800B9E
:1019700001E0010EE76E030EE7CFDBFFF250400BF4
:1019800001E0010EE76E020EE7CFDBFFF29EF29C54
:10199000DF06DF5002E18B842AD0FE0EDBCFE6FFAC
:1019A000A6EC3CF0E552000903E003EC3DF0F0D773
:1019B000830EE66EF0EC3CF0E552000903E003EC28
:1019C0003DF0E6D703EC3DF0FE0EDBCFE6FFCBECBF
:1019D0003CF0E552000903E003EC3DF0D9D720ECE0
:1019E0003DF0E76E010EE7CFDBFF03EC3DF0030EA9
:1019F000DB50E8B0F28EE8A0F29E020EDB50E8B0B9
:101A0000F28CE8A0F29C010EDB50106E040EE15C3B
:101A100003E200D0E16AE552E16E1050E552E7CFF3
:101A2000D9FF1200D9CFE6FFE1CFD9FF040EE1269E
:101A3000060EDF6E020EDB6A030EDB6AF250800BCD
:101A400001E0010EE76E030EE7CFDBFFF250400B23
:101A500001E0010EE76E020EE7CFDBFFF29EF29C83
:101A6000DF06DF5002E18B842AD0FE0EDBCFE6FFDB
:101A7000A6EC3CF0E552000903E003EC3DF0F0D7A2
:101A8000840EE66EF0EC3CF0E552000903E003EC56
:101A90003DF0E6D703EC3DF0FE0EDBCFE6FFCBECEE
:101AA0003CF0E552000903E003EC3DF0D9D720EC0F
:101AB0003DF0E76E010EE7CFDBFF03EC3DF0030ED8
:101AC000DB50E8B0F28EE8A0F29E020EDB50E8B0E8
:101AD000F28CE8A0F29C010EDB50106E040EE15C6B
:101AE00003E200D0E16AE552E16E1050E552E7CF23
:101AF000D9FF1200D9CFE6FFE1CFD9FF040EE126CE
:101B0000060EDF6E020EDB6A030EDB6AF250800BFC
:101B100001E0010EE76E030EE7CFDBFFF250400B52
:101B200001E0010EE76E020EE7CFDBFFF29EF29CB2
:101B3000DF06DF5002E18B842AD0FE0EDBCFE6FF0A
:101B4000A6EC3CF0E552000903E003EC3DF0F0D7D1
:101B50008D0EE66EF0EC3CF0E552000903E003EC7C
:101B60003DF0E6D703EC3DF0FE0EDBCFE6FFCBEC1D
:101B70003CF0E552000903E003EC3DF0D9D720EC3E
:101B80003DF0E76E010EE7CFDBFF03EC3DF0030E07
:101B9000DB50E8B0F28EE8A0F29E020EDB50E8B017
:101BA000F28CE8A0F29C010EDB50106E040EE15C9A
:101BB00003E200D0E16AE552E16E1050E552E7CF52
:101BC000D9FF1200D9CFE6FFE1CFD9FF040EE126FD
:101BD000060EDF6E020EDB6A030EDB6AF250800B2C
:101BE00001E0010EE76E030EE7CFDBFFF250400B82
:101BF00001E0010EE76E020EE7CFDBFFF29EF29CE2
:101C0000DF06DF5002E18B842AD0FE0EDBCFE6FF39
:101C1000A6EC3CF0E552000903E003EC3DF0F0D700
:101C20008E0EE66EF0EC3CF0E552000903E003ECAA
:101C30003DF0E6D703EC3DF0FE0EDBCFE6FFCBEC4C
:101C40003CF0E552000903E003EC3DF0D9D720EC6D
:101C50003DF0E76E010EE7CFDBFF03EC3DF0030E36
:101C6000DB50E8B0F28EE8A0F29E020EDB50E8B046
:101C7000F28CE8A0F29C010EDB50106E040EE15CC9
:101C800003E200D0E16AE552E16E1050E552E7CF81
:101C9000D9FF1200D9CFE6FFE1CFD9FF040EE1262C
:101CA000060EDF6E020EDB6A030EDB6AF250800B5B
:101CB00001E0010EE76E030EE7CFDBFFF250400BB1
:101CC00001E0010EE76E020EE7CFDBFFF29EF29C11
:101CD000DF06DF5002E18B842AD0FE0EDBCFE6FF69
:101CE000A6EC3CF0E552000903E003EC3DF0F0D730
:101CF000970EE66EF0EC3CF0E552000903E003ECD1
:101D00003DF0E6D703EC3DF0FE0EDBCFE6FFCBEC7B
:101D10003CF0E552000903E003EC3DF0D9D720EC9C
:101D20003DF0E76E010EE7CFDBFF03EC3DF0030E65
:101D3000DB50E8B0F28EE8A0F29E020EDB50E8B075
:101D4000F28CE8A0F29C010EDB50106E040EE15CF8
:101D500003E200D0E16AE552E16E1050E552E7CFB0
:101D6000D9FF1200D9CFE6FFE1CFD9FF040EE1265B
:101D7000060EDF6E020EDB6A030EDB6AF250800B8A
:101D800001E0010EE76E030EE7CFDBFFF250400BE0
:101D900001E0010EE76E020EE7CFDBFFF29EF29C40
:101DA000DF06DF5002E18B842AD0FE0EDBCFE6FF98
:101DB000A6EC3CF0E552000903E003EC3DF0F0D75F
:101DC000980EE66EF0EC3CF0E552000903E003ECFF
:101DD0003DF0E6D703EC3DF0FE0EDBCFE6FFCBECAB
:101DE0003CF0E552000903E003EC3DF0D9D720ECCC
:101DF0003DF0E76E010EE7CFDBFF03EC3DF0030E95
:101E0000DB50E8B0F28EE8A0F29E020EDB50E8B0A4
:101E1000F28CE8A0F29C010EDB50106E040EE15C27
:101E200003E200D0E16AE552E16E1050E552E7CFDF
:101E3000D9FF1200D9CFE6FFE1CFD9FF030EE1268B
:101E4000060EDF6E010EDB6A020EDB6AF250800BBB
:101E500001E0010EE76E020EE7CFDBFFF250400B10
:101E600001E0010EE76E010EE7CFDBFFF29EF29C70
:101E7000DF06DF5002E18B8417D0FE0EDBCFE6FFDA
:101E8000A6EC3CF0E552000903E003EC3DF0F0D78E
:101E90003D0EE66EF0EC3CF0E552000903E003EC89
:101EA0003DF0E6D703EC3DF0020EDB50E8B0F28ED9
:101EB000E8A0F29E010EDB50E8B0F28CE8A0F29CA4
:101EC000030EE15C02E2E16AE552E16EE552E7CF22
:101ED000D9FF1200D9CFE6FFE1CFD9FF030EE126EB
:101EE000060EDF6E010EDB6A020EDB6AF250800B1B
:101EF00001E0010EE76E020EE7CFDBFFF250400B70
:101F000001E0010EE76E010EE7CFDBFFF29EF29CCF
:101F1000DF06DF5002E18B8417D0FE0EDBCFE6FF39
:101F2000A6EC3CF0E552000903E003EC3DF0F0D7ED
:101F30003E0EE66EF0EC3CF0E552000903E003ECE7
:101F40003DF0E6D703EC3DF0020EDB50E8B0F28E38
:101F5000E8A0F29E010EDB50E8B0F28CE8A0F29C03
:101F6000030EE15C02E2E16AE552E16EE552E7CF81
:041F7000D9FF120083
:0C1F7400D9CFE6FFE1CFD9FF030EE12634
:101F8000060EDF6E010EDB6A020EDB6AF250800B7A
:101F900001E0010EE76E020EE7CFDBFFF250400BCF
:101FA00001E0010EE76E010EE7CFDBFFF29EF29C2F
:101FB000DF06DF5002E18B8417D0FE0EDBCFE6FF99
:101FC000A6EC3CF0E552000903E003EC3DF0F0D74D
:101FD000010EE66EF0EC3CF0E552000903E003EC84
:101FE0003DF0E6D703EC3DF0020EDB50E8B0F28E98
:101FF000E8A0F29E010EDB50E8B0F28CE8A0F29C63
:10200000030EE15C02E2E16AE552E16EE552E7CFE0
:10201000D9FF1200D9CFE6FFE1CFD9FF030EE126A9
:10202000060EDF6E010EDB6A020EDB6AF250800BD9
:1020300001E0010EE76E020EE7CFDBFFF250400B2E
:1020400001E0010EE76E010EE7CFDBFFF29EF29C8E
:10205000DF06DF5002E18B8417D0FE0EDBCFE6FFF8
:10206000A6EC3CF0E552000903E003EC3DF0F0D7AC
:10207000020EE66EF0EC3CF0E552000903E003ECE2
:102080003DF0E6D703EC3DF0020EDB50E8B0F28EF7
:10209000E8A0F29E010EDB50E8B0F28CE8A0F29CC2
:1020A000030EE15C02E2E16AE552E16EE552E7CF40
:1020B000D9FF1200D9CFE6FFE1CFD9FF030EE12609
:1020C000060EDF6E010EDB6A020EDB6AF250800B39
:1020D00001E0010EE76E020EE7CFDBFFF250400B8E
:1020E00001E0010EE76E010EE7CFDBFFF29EF29CEE
:1020F000DF06DF5002E18B8417D0FE0EDBCFE6FF58
:10210000A6EC3CF0E552000903E003EC3DF0F0D70B
:10211000030EE66EF0EC3CF0E552000903E003EC40
:102120003DF0E6D703EC3DF0020EDB50E8B0F28E56
:10213000E8A0F29E010EDB50E8B0F28CE8A0F29C21
:10214000030EE15C02E2E16AE552E16EE552E7CF9F
:10215000D9FF1200D9CFE6FFE1CFD9FF030EE12668
:10216000060EDF6E010EDB6A020EDB6AF250800B98
:1021700001E0010EE76E020EE7CFDBFFF250400BED
:1021800001E0010EE76E010EE7CFDBFFF29EF29C4D
:10219000DF06DF5002E18B8417D0FE0EDBCFE6FFB7
:1021A000A6EC3CF0E552000903E003EC3DF0F0D76B
:1021B000040EE66EF0EC3CF0E552000903E003EC9F
:1021C0003DF0E6D703EC3DF0020EDB50E8B0F28EB6
:1021D000E8A0F29E010EDB50E8B0F28CE8A0F29C81
:1021E000030EE15C02E2E16AE552E16EE552E7CFFF
:1021F000D9FF1200D9CFE6FFE1CFD9FF030EE126C8
:10220000060EDF6E010EDB6A020EDB6AF250800BF7
:1022100001E0010EE76E020EE7CFDBFFF250400B4C
:1022200001E0010EE76E010EE7CFDBFFF29EF29CAC
:10223000DF06DF5002E18B8422D0FE0EDBCFE6FF0B
:10224000A6EC3CF0E552000903E003EC3DF0F0D7CA
:10225000050EE66EF0EC3CF0E552000903E003ECFD
:102260003DF0E6D7FD0EDBCFE6FFF0EC3CF0E552AB
:10227000000903E003EC3DF0DBD703EC3DF0020E78
:10228000DB50E8B0F28EE8A0F29E010EDB50E8B021
:10229000F28CE8A0F29C030EE15C02E2E16AE552F6
:1022A000E16EE552E7CFD9FF1200D9CFE6FFE1CFCB
:1022B000D9FF030EE126060EDF6E010EDB6A020E69
:1022C000DB6AF250800B01E0010EE76E020EE7CFF1
:1022D000DBFFF250400B01E0010EE76E010EE7CF8D
:1022E000DBFFF29EF29CDF06DF5002E18B8422D0FE
:1022F000FE0EDBCFE6FFA6EC3CF0E552000903E062
:1023000003EC3DF0F0D7060EE66EF0EC3CF0E55243
:10231000000903E003EC3DF0E6D7FD0EDBCFE6FF5E
:10232000F0EC3CF0E552000903E003EC3DF0DBD7B4
:1023300003EC3DF0020EDB50E8B0F28EE8A0F29E16
:10234000010EDB50E8B0F28CE8A0F29C030EE15CD9
:1023500002E2E16AE552E16EE552E7CFD9FF1200F1
:10236000D9CFE6FFE1CFD9FF030EE126060EDF6EDF
:10237000010EDB6A020EDB6AF250800B01E0010EF7
:10238000E76E020EE7CFDBFFF250400B01E0010EDB
:10239000E76E010EE7CFDBFFF29EF29CDF06DF5017
:1023A00002E18B8417D0FE0EDBCFE6FFA6EC3CF0FB
:1023B000E552000903E003EC3DF0F0D7070EE66EAE
:1023C000F0EC3CF0E552000903E003EC3DF0E6D709
:1023D00003EC3DF0020EDB50E8B0F28EE8A0F29E76
:1023E000010EDB50E8B0F28CE8A0F29C030EE15C39
:1023F00002E2E16AE552E16EE552E7CFD9FF120051
:10240000D9CFE6FFE1CFD9FF030EE126060EDF6E3E
:10241000010EDB6A020EDB6AF250800B01E0010E56
:10242000E76E020EE7CFDBFFF250400B01E0010E3A
:10243000E76E010EE7CFDBFFF29EF29CDF06DF5076
:1024400002E18B8417D0FE0EDBCFE6FFA6EC3CF05A
:10245000E552000903E003EC3DF0F0D7080EE66E0C
:10246000F0EC3CF0E552000903E003EC3DF0E6D768
:1024700003EC3DF0020EDB50E8B0F28EE8A0F29ED5
:10248000010EDB50E8B0F28CE8A0F29C030EE15C98
:1024900002E2E16AE552E16EE552E7CFD9FF1200B0
:1024A000D9CFE6FFE1CFD9FF030EE126060EDF6E9E
:1024B000010EDB6A020EDB6AF250800B01E0010EB6
:1024C000E76E020EE7CFDBFFF250400B01E0010E9A
:1024D000E76E010EE7CFDBFFF29EF29CDF06DF50D6
:1024E00002E18B8417D0FE0EDBCFE6FFA6EC3CF0BA
:1024F000E552000903E003EC3DF0F0D7090EE66E6B
:10250000F0EC3CF0E552000903E003EC3DF0E6D7C7
:1025100003EC3DF0020EDB50E8B0F28EE8A0F29E34
:10252000010EDB50E8B0F28CE8A0F29C030EE15CF7
:1025300002E2E16AE552E16EE552E7CFD9FF12000F
:10254000D9CFE6FFE1CFD9FF030EE126060EDF6EFD
:10255000010EDB6A020EDB6AF250800B01E0010E15
:10256000E76E020EE7CFDBFFF250400B01E0010EF9
:10257000E76E010EE7CFDBFFF29EF29CDF06DF5035
:1025800002E18B8417D0FE0EDBCFE6FFA6EC3CF019
:10259000E552000903E003EC3DF0F0D70A0EE66EC9
:1025A000F0EC3CF0E552000903E003EC3DF0E6D727
:1025B00003EC3DF0020EDB50E8B0F28EE8A0F29E94
:1025C000010EDB50E8B0F28CE8A0F29C030EE15C57
:1025D00002E2E16AE552E16EE552E7CFD9FF12006F
:1025E000D9CFE6FFE1CFD9FF050EE126060EDF6E5B
:1025F000030EDB6A040EDB6AF250800B01E0010E71
:10260000E76E040EE7CFDBFFF250400B01E0010E56
:10261000E76E030EE7CFDBFFF29EF29CFC0EDB5071
:10262000E76E020EE7CFDBFFFC0EDBCF10F0FD0EF6
:10263000DBCF11F011C010F0116A010E10C0DBFFEA
:10264000DF06DF5002E18B844ED0FE0EDBCFE6FFCB
:10265000A6EC3CF0E552000903E003EC3DF0F0D7B6
:102660000B0EE66EF0EC3CF0E552000903E003ECE3
:102670003DF0E6D7010EDBCFE6FFF0EC3CF0E55293
:10268000000903E003EC3DF0DBD7020EDBCFE6FFF1
:10269000F0EC3CF0E552000903E003EC3DF0D0D74C
:1026A000FB0EDBCFE6FFF0EC3CF0E552000903E067
:1026B00003EC3DF0C5D7FA0EDBCFE6FFF0EC3CF0C3
:1026C000E552000903E003EC3DF0BAD7F90EDBCF89
:1026D000E6FFF0EC3CF0E552000903E003EC3DF0CE
:1026E000AFD703EC3DF0040EDB50E8B0F28EE8A06B
:1026F000F29E030EDB50E8B0F28CE8A0F29C050ECF
:10270000E15C02E2E16AE552E16EE552E7CFD9FF12
:102710001200D9CFE6FFE1CFD9FF050EE126060E64
:10272000DF6E030EDB6A040EDB6AF250800B01E001
:10273000010EE76E040EE7CFDBFFF250400B01E025
:10274000010EE76E030EE7CFDBFFF29EF29CFC0E5C
:10275000DB50E76E020EE7CFDBFFFC0EDBCF10F0A5
:10276000FD0EDBCF11F011C010F0116A010E10C088
:10277000DBFFDF06DF5002E18B844ED0FE0EDBCFA5
:10278000E6FFA6EC3CF0E552000903E003EC3DF067
:10279000F0D70C0EE66EF0EC3CF0E552000903E0D9
:1027A00003EC3DF0E6D7010EDBCFE6FFF0EC3CF0AA
:1027B000E552000903E003EC3DF0DBD7020EDBCF6E
:1027C000E6FFF0EC3CF0E552000903E003EC3DF0DD
:1027D000D0D7FB0EDBCFE6FFF0EC3CF0E552000972
:1027E00003E003EC3DF0C5D7FA0EDBCFE6FFF0ECDB
:1027F0003CF0E552000903E003EC3DF0BAD7F90ED6
:10280000DBCFE6FFF0EC3CF0E552000903E003EC1F
:102810003DF0AFD703EC3DF0040EDB50E8B0F28E94
:10282000E8A0F29E030EDB50E8B0F28CE8A0F29C28
:10283000050EE15C02E2E16AE552E16EE552E7CFA6
:10284000D9FF1200D9CFE6FFE1CFD9FF030EE12671
:10285000060EDF6E010EDB6A020EDB6AF250800BA1
:1028600001E0010EE76E020EE7CFDBFFF250400BF6
:1028700001E0010EE76E010EE7CFDBFFF29EF29C56
:10288000DF06DF5002E18B8417D0FE0EDBCFE6FFC0
:10289000A6EC3CF0E552000903E003EC3DF0F0D774
:1028A0000D0EE66EF0EC3CF0E552000903E003EC9F
:1028B0003DF0E6D703EC3DF0020EDB50E8B0F28EBF
:1028C000E8A0F29E010EDB50E8B0F28CE8A0F29C8A
:1028D000030EE15C02E2E16AE552E16EE552E7CF08
:1028E000D9FF1200D9CFE6FFE1CFD9FF030EE126D1
:1028F000060EDF6E010EDB6A020EDB6AF250800B01
:1029000001E0010EE76E020EE7CFDBFFF250400B55
:1029100001E0010EE76E010EE7CFDBFFF29EF29CB5
:10292000DF06DF5002E18B8417D0FE0EDBCFE6FF1F
:10293000A6EC3CF0E552000903E003EC3DF0F0D7D3
:102940000E0EE66EF0EC3CF0E552000903E003ECFD
:102950003DF0E6D703EC3DF0020EDB50E8B0F28E1E
:10296000E8A0F29E010EDB50E8B0F28CE8A0F29CE9
:10297000030EE15C02E2E16AE552E16EE552E7CF67
:10298000D9FF1200D9CFE6FFE1CFD9FF070EE1262C
:10299000060EDF6E010EDB6A020EDB6A030EDB6AD7
:1029A000040EDB6A050EDB6A060EDB6AF250800B52
:1029B00001E0010EE76E060EE7CFDBFFF250400BA1
:1029C00001E0010EE76E050EE7CFDBFFF29EF29C01
:1029D000DF06DF5002E18B8430D0FE0EDBCFE6FF56
:1029E000A6EC3CF0E552000903E003EC3DF0F0D723
:1029F0000F0EE66EF0EC3CF0E552000903E003EC4C
:102A00003DF0E6D703EC3DF0FE0EDBCFE6FFCBEC6E
:102A10003CF0E552000903E003EC3DF0D9D709ECA6
:102A20003DF0E76E010EE7CFDBFF20EC3DF0E76EF7
:102A3000020EE7CFDBFF03EC3DF0010EDB50E66E4C
:102A4000D950030FE96EDACFEAFFE552E750EE6E98
:102A5000ED6A030EDBCF10F0040EDBCF11F010C0D7
:102A600011F0106A030E10C0DBFF040E11C0DBFF73
:102A7000020EDB50E76E030EDBCF10F0040EDBCF4F
:102A800011F0E7501012030E10C0DBFF040E11C04E
:102A9000DBFF060EDB50E8B0F28EE8A0F29E050EDA
:102AA000DB50E8B0F28CE8A0F29C030EDBCF10F014
:102AB000040EDBCF11F010C0F3FF11C0F4FF070EBE
:102AC000E15C03E200D0E16AE552E16EE552E7CF56
:102AD000D9FF1200D9CFE6FFE1CFD9FF070EE126DB
:102AE000060EDF6E010EDB6A020EDB6A030EDB6A86
:102AF000040EDB6A050EDB6A060EDB6AF250800B01
:102B000001E0010EE76E060EE7CFDBFFF250400B4F
:102B100001E0010EE76E050EE7CFDBFFF29EF29CAF
:102B2000DF06DF5002E18B8430D0FE0EDBCFE6FF04
:102B3000A6EC3CF0E552000903E003EC3DF0F0D7D1
:102B4000100EE66EF0EC3CF0E552000903E003ECF9
:102B50003DF0E6D703EC3DF0FE0EDBCFE6FFCBEC1D
:102B60003CF0E552000903E003EC3DF0D9D709EC55
:102B70003DF0E76E010EE7CFDBFF20EC3DF0E76EA6
:102B8000020EE7CFDBFF03EC3DF0010EDB50E66EFB
:102B9000D950030FE96EDACFEAFFE552E750EE6E47
:102BA000ED6A030EDBCF10F0040EDBCF11F010C086
:102BB00011F0106A030E10C0DBFF040E11C0DBFF22
:102BC000020EDB50E76E030EDBCF10F0040EDBCFFE
:102BD00011F0E7501012030E10C0DBFF040E11C0FD
:102BE000DBFF060EDB50E8B0F28EE8A0F29E050E89
:102BF000DB50E8B0F28CE8A0F29C030EDBCF10F0C3
:102C0000040EDBCF11F010C0F3FF11C0F4FF070E6C
:102C1000E15C03E200D0E16AE552E16EE552E7CF04
:102C2000D9FF1200D9CFE6FFE1CFD9FF040EE1268C
:102C3000060EDF6E010EDB6A020EDB6A030EDB6A34
:102C4000F250800B01E0010EE76E030EE7CFDBFFD1
:102C5000F250400B01E0010EE76E020EE7CFDBFF02
:102C6000F29EF29CDF06DF5002E18B842AD0FE0E3A
:102C7000DBCFE6FFA6EC3CF0E552000903E003ECF5
:102C80003DF0F0D7110EE66EF0EC3CF0E552000995
:102C900003E003EC3DF0E6D703EC3DF0FE0EDBCFA6
:102CA000E6FFCBEC3CF0E552000903E003EC3DF01D
:102CB000D9D720EC3DF0E76E010EE7CFDBFF03EC48
:102CC0003DF0030EDB50E8B0F28EE8A0F29E020E5B
:102CD000DB50E8B0F28CE8A0F29C010EDB50106EE5
:102CE000040EE15C03E200D0E16AE552E16E1050AF
:102CF000E552E7CFD9FF1200D9CFE6FFE1CFD9FFE8
:102D0000040EE126060EDF6E010EDB6A020EDB6AA0
:102D1000030EDB6AF250800B01E0010EE76E030E3A
:102D2000E7CFDBFFF250400B01E0010EE76E020E31
:102D3000E7CFDBFFF29EF29CDF06DF5002E18B84DF
:102D40002AD0FE0EDBCFE6FFA6EC3CF0E5520009F0
:102D500003E003EC3DF0F0D7120EE66EF0EC3CF031
:102D6000E552000903E003EC3DF0E6D703EC3DF04B
:102D7000FE0EDBCFE6FFCBEC3CF0E552000903E0B2
:102D800003EC3DF0D9D720EC3DF0E76E010EE7CF24
:102D9000DBFF03EC3DF0030EDB50E8B0F28EE8A061
:102DA000F29E020EDB50E8B0F28CE8A0F29C010E1D
:102DB000DB50106E040EE15C03E200D0E16AE552E4
:102DC000E16E1050E552E7CFD9FF1200D9CFE6FFF0
:102DD000E1CFD9FF040EE126060EDF6E010EDB6A9D
:102DE000020EDB6A030EDB6AF250800B01E0010E7B
:102DF000E76E030EE7CFDBFFF250400B01E0010E60
:102E0000E76E020EE7CFDBFFF29EF29CDF06DF509B
:102E100002E18B842AD0FE0EDBCFE6FFA6EC3CF06D
:102E2000E552000903E003EC3DF0F0D7130EE66E27
:102E3000F0EC3CF0E552000903E003EC3DF0E6D78E
:102E400003EC3DF0FE0EDBCFE6FFCBEC3CF0E552B1
:102E5000000903E003EC3DF0D9D720EC3DF0E76E2C
:102E6000010EE7CFDBFF03EC3DF0030EDB50E8B0D3
:102E7000F28EE8A0F29E020EDB50E8B0F28CE8A0E1
:102E8000F29C010EDB50106E040EE15C03E200D0F8
:102E9000E16AE552E16E1050E552E7CFD9FF12002A
:102EA000D9CFE6FFE1CFD9FF040EE126060EDF6E93
:102EB000010EDB6A020EDB6A030EDB6AF250800B46
:102EC00001E0010EE76E030EE7CFDBFFF250400B8F
:102ED00001E0010EE76E020EE7CFDBFFF29EF29CEF
:102EE000DF06DF5002E18B842AD0FE0EDBCFE6FF47
:102EF000A6EC3CF0E552000903E003EC3DF0F0D70E
:102F0000140EE66EF0EC3CF0E552000903E003EC31
:102F10003DF0E6D703EC3DF0FE0EDBCFE6FFCBEC59
:102F20003CF0E552000903E003EC3DF0D9D720EC7A
:102F30003DF0E76E010EE7CFDBFF03EC3DF0030E43
:102F4000DB50E8B0F28EE8A0F29E020EDB50E8B053
:102F5000F28CE8A0F29C010EDB50106E040EE15CD6
:102F600003E200D0E16AE552E16E1050E552E7CF8E
:102F7000D9FF1200D9CFE6FFE1CFD9FF040EE12639
:102F8000060EDF6E010EDB6A020EDB6A030EDB6AE1
:102F9000F250800B01E0010EE76E030EE7CFDBFF7E
:102FA000F250400B01E0010EE76E020EE7CFDBFFAF
:102FB000F29EF29CDF06DF5002E18B842AD0FE0EE7
:102FC000DBCFE6FFA6EC3CF0E552000903E003ECA2
:102FD0003DF0F0D7150EE66EF0EC3CF0E55200093E
:102FE00003E003EC3DF0E6D703EC3DF0FE0EDBCF53
:102FF000E6FFCBEC3CF0E552000903E003EC3DF0CA
:10300000D9D720EC3DF0E76E010EE7CFDBFF03ECF4
:103010003DF0030EDB50E8B0F28EE8A0F29E020E07
:10302000DB50E8B0F28CE8A0F29C010EDB50106E91
:10303000040EE15C03E200D0E16AE552E16E10505B
:10304000E552E7CFD9FF1200D9CFE6FFE1CFD9FF94
:10305000040EE126060EDF6E010EDB6A020EDB6A4D
:10306000030EDB6AF250800B01E0010EE76E030EE7
:10307000E7CFDBFFF250400B01E0010EE76E020EDE
:10308000E7CFDBFFF29EF29CDF06DF5002E18B848C
:103090002AD0FE0EDBCFE6FFA6EC3CF0E55200099D
:1030A00003E003EC3DF0F0D7160EE66EF0EC3CF0DA
:1030B000E552000903E003EC3DF0E6D703EC3DF0F8
:1030C000FE0EDBCFE6FFCBEC3CF0E552000903E05F
:1030D00003EC3DF0D9D720EC3DF0E76E010EE7CFD1
:1030E000DBFF03EC3DF0030EDB50E8B0F28EE8A00E
:1030F000F29E020EDB50E8B0F28CE8A0F29C010ECA
:10310000DB50106E040EE15C03E200D0E16AE55290
:10311000E16E1050E552E7CFD9FF1200D9CFE6FF9C
:10312000E1CFD9FFE652060EDF6EDF06DF5002E187
:103130008B842DD0FE0EDBCFE6FFA6EC3CF0E552F3
:10314000000903E003EC3DF0F0D7170EE66EF0EC5B
:103150003CF0E552000903E003EC3DF0E6D7FD0E3C
:10316000DBCFE6FFF0EC3CF0E552000903E003ECB6
:103170003DF0DBD7FC0EDBCFE6FFF0EC3CF0E55298
:10318000000903E003EC3DF0D0D703EC3DF0E5523D
:10319000E552E7CFD9FF1200D9CFE6FFE1CFD9FF43
:1031A000E652060EDF6EDF06DF5002E18B842DD083
:1031B000FE0EDBCFE6FFA6EC3CF0E552000903E093
:1031C00003EC3DF0F0D7180EE66EF0EC3CF0E55263
:1031D000000903E003EC3DF0E6D7FD0EDBCFE6FF90
:1031E000F0EC3CF0E552000903E003EC3DF0DBD7E6
:1031F000FC0EDBCFE6FFF0EC3CF0E552000903E00B
:1032000003EC3DF0D0D703EC3DF0E552E552E7CFBB
:10321000D9FF1200D9CFE6FFE1CFD9FF020EE12698
:10322000060EDF6EDF06DF5002E18B842AD0FE0E31
:10323000DBCFE6FFA6EC3CF0E552000903E003EC2F
:103240003DF0F0D7190EE66EF0EC3CF0E5520009C7
:1032500003E003EC3DF0E6D703EC3DF0FE0EDBCFE0
:10326000E6FFCBEC3CF0E552000903E003EC3DF057
:10327000D9D720EC3DF0E76E010EE7CFDBFF03EC82
:103280003DF0010EDB50106E020EE15C03E200D057
:10329000E16AE552E16E1050E552E7CFD9FF120026
:1032A000D9CFE6FFE1CFD9FF020EE126060EDF6E91
:1032B000DF06DF5002E18B842AD0FE0EDBCFE6FF73
:1032C000A6EC3CF0E552000903E003EC3DF0F0D73A
:1032D0001A0EE66EF0EC3CF0E552000903E003EC58
:1032E0003DF0E6D703EC3DF0FE0EDBCFE6FFCBEC86
:1032F0003CF0E552000903E003EC3DF0D9D720ECA7
:103300003DF0E76E010EE7CFDBFF03EC3DF0010E71
:10331000DB50106E020EE15C03E200D0E16AE55280
:10332000E16E1050E552E7CFD9FF1200D9CFE6FF8A
:10333000E1CFD9FFE652060EDF6EDF06DF5002E175
:103340008B8417D0FE0EDBCFE6FFA6EC3CF0E552F7
:10335000000903E003EC3DF0F0D71B0EE66EF0EC45
:103360003CF0E552000903E003EC3DF0E6D703EC46
:103370003DF0E552E552E7CFD9FF1200D9CFE6FF85
:10338000E1CFD9FFE652060EDF6EDF06DF5002E125
:103390008B8417D0FE0EDBCFE6FFA6EC3CF0E552A7
:1033A000000903E003EC3DF0F0D71C0EE66EF0ECF4
:1033B0003CF0E552000903E003EC3DF0E6D703ECF6
:0C33C0003DF0E552E552E7CFD9FF1200C6
:0433CC00D9CFE6FF70
:1033D000E1CFD9FFE652060EDF6EDF06DF5002E1D5
:1033E0008B8421D0410EE66EA6EC3CF0E55200093C
:1033F00003E003EC3DF0F1D7030EE66EF0EC3CF099
:10340000E552000903E003EC3DF0E7D7FE0EDBCF09
:10341000E6FFF0EC3CF0E552000903E003EC3DF080
:10342000DCD703EC3DF0E552E552E7CFD9FF1200BF
:10343000D9CFE6FFE1CFD9FFE652060EDF6EDF06F9
:10344000DF5002E18B8421D0400EE66EA6EC3CF00A
:10345000E552000903E003EC3DF0F1D7030EE66E00
:10346000F0EC3CF0E552000903E003EC3DF0E7D757
:10347000FE0EDBCFE6FFF0EC3CF0E552000903E086
:1034800003EC3DF0DCD703EC3DF0E552E552E7CF2D
:10349000D9FF12006AC0F6FF6BC0F7FF0800F550B5
:1034A0000EE000016AC0F6FF6BC0F7FF6A2B000E4A
:1034B0006B230800F550E66E89DFE552EBD712006A
:1034C0006CC0F6FF6DC0F7FF0800F5500EE000017C
:1034D0006CC0F6FF6DC0F7FF6C2B000E6D2308006B
:1034E000F550E66EA5DFE552EBD71200D9CFE6FF27
:1034F000E1CFD9FF0A0EF36EFA0EDBCFF4FFF350E3
:10350000F45C4DE3FB0EDBCF04F0FC0EDBCF05F0EB
:10351000FD0EDBCF06F0FE0EDBCF07F009680A6870
:103520000B680C6886EC3DF0FB0E00C0DBFFFC0E68
:1035300001C0DBFFFD0E02C0DBFFFE0E03C0DBFFA0
:10354000FB0EDBCF10F0FC0EDBCF11F0FD0EDBCF5E
:1035500012F0FE0EDBCF13F0096ACA0E0A6E9A0E45
:103560000B6E3B0E0C6E10C004F011C005F012C0C3
:1035700006F013C007F086EC3DF004C010F005C063
:1035800011F006C012F007C013F0300E1026000E26
:103590001122122213221050E66E18DFE552090E96
:1035A000F36EFA0EDBCFF4FFF350F45C50E3FB0E46
:1035B000DBCF04F0FC0EDBCF05F0FD0EDBCF06F019
:1035C000FE0EDBCF07F0096ACA0E0A6E9A0E0B6E6A
:1035D0003B0E0C6E86EC3DF0FB0E00C0DBFFFC0EDC
:1035E00001C0DBFFFD0E02C0DBFFFE0E03C0DBFFF0
:1035F000FB0EDBCF10F0FC0EDBCF11F0FD0EDBCFAE
:1036000012F0FE0EDBCF13F0096AE10E0A6EF50E22
:103610000B6E050E0C6E10C004F011C005F012C048
:1036200006F013C007F086EC3DF004C010F005C0B2
:1036300011F006C012F007C013F0300E1026000E75
:103640001122122213221050E66EC0DEE552080E3F
:10365000F36EFA0EDBCFF4FFF350F45C50E3FB0E95
:10366000DBCF04F0FC0EDBCF05F0FD0EDBCF06F068
:10367000FE0EDBCF07F0096AE10E0A6EF50E0B6E47
:10368000050E0C6E86EC3DF0FB0E00C0DBFFFC0E61
:1036900001C0DBFFFD0E02C0DBFFFE0E03C0DBFF3F
:1036A000FB0EDBCF10F0FC0EDBCF11F0FD0EDBCFFD
:1036B00012F0FE0EDBCF13F0800E096E960E0A6E2E
:1036C000980E0B6E0C6A10C004F011C005F012C009
:1036D00006F013C007F086EC3DF004C010F005C002
:1036E00011F006C012F007C013F0300E1026000EC5
:1036F0001122122213221050E66E68DEE552070EE8
:10370000F36EFA0EDBCFF4FFF350F45C50E3FB0EE4
:10371000DBCF04F0FC0EDBCF05F0FD0EDBCF06F0B7
:10372000FE0EDBCF07F0800E096E960E0A6E980E25
:103730000B6E0C6A86EC3DF0FB0E00C0DBFFFC0E4E
:1037400001C0DBFFFD0E02C0DBFFFE0E03C0DBFF8E
:10375000FB0EDBCF10F0FC0EDBCF11F0FD0EDBCF4C
:1037600012F0FE0EDBCF13F0400E096E420E0A6E11
:103770000F0E0B6E0C6A10C004F011C005F012C0E1
:1037800006F013C007F086EC3DF004C010F005C051
:1037900011F006C012F007C013F0300E1026000E14
:1037A0001122122213221050E66E10DEE552060E90
:1037B000F36EFA0EDBCFF4FFF350F45C50E3FB0E34
:1037C000DBCF04F0FC0EDBCF05F0FD0EDBCF06F007
:1037D000FE0EDBCF07F0400E096E420E0A6E0F0E92
:1037E0000B6E0C6A86EC3DF0FB0E00C0DBFFFC0E9E
:1037F00001C0DBFFFD0E02C0DBFFFE0E03C0DBFFDE
:10380000FB0EDBCF10F0FC0EDBCF11F0FD0EDBCF9B
:1038100012F0FE0EDBCF13F0A00E096E860E0A6EBC
:10382000010E0B6E0C6A10C004F011C005F012C03E
:1038300006F013C007F086EC3DF004C010F005C0A0
:1038400011F006C012F007C013F0300E1026000E63
:103850001122122213221050E66EB8DDE552050E39
:10386000F36EFA0EDBCFF4FFF350F45C4FE3FB0E84
:10387000DBCF04F0FC0EDBCF05F0FD0EDBCF06F056
:10388000FE0EDBCF07F0A00E096E860E0A6E010E4B
:103890000B6E0C6A86EC3DF0FB0E00C0DBFFFC0EED
:1038A00001C0DBFFFD0E02C0DBFFFE0E03C0DBFF2D
:1038B000FB0EDBCF10F0FC0EDBCF11F0FD0EDBCFEB
:1038C00012F0FE0EDBCF13F0100E096E270E0A6EFB
:1038D0000B6A0C6A10C004F011C005F012C006F0AB
:1038E00013C007F086EC3DF004C010F005C011F0E5
:1038F00006C012F007C013F0300E1026000E112281
:10390000122213221050E66E61DDE552040EF36EB2
:10391000FA0EDBCFF4FFF350F45C4EE3FB0EDBCF8B
:1039200004F0FC0EDBCF05F0FD0EDBCF06F0FE0E43
:10393000DBCF07F0100E096E270E0A6E0B6A0C6AB9
:1039400086EC3DF0FB0E00C0DBFFFC0E01C0DBFF90
:10395000FD0E02C0DBFFFE0E03C0DBFFFB0EDBCF64
:1039600010F0FC0EDBCF11F0FD0EDBCF12F0FE0EDF
:10397000DBCF13F0E80E096E030E0A6E0B6A0C6AB9
:1039800010C004F011C005F012C006F013C007F01B
:1039900086EC3DF004C010F005C011F006C012F036
:1039A00007C013F0300E1026000E1122122213222F
:1039B0001050E66E0BDDE552030EF36EFA0EDBCF10
:1039C000F4FFF350F45C4DE3FB0EDBCF04F0FC0E90
:1039D000DBCF05F0FD0EDBCF06F0FE0EDBCF07F0F0
:1039E000E80E096E030E0A6E0B6A0C6A86EC3DF057
:1039F000FB0E00C0DBFFFC0E01C0DBFFFD0E02C0B2
:103A0000DBFFFE0E03C0DBFFFB0EDBCF10F0FC0E76
:103A1000DBCF11F0FD0EDBCF12F0FE0EDBCF13F08B
:103A2000640E096E0A6A0B6A0C6A10C004F011C0B9
:103A300005F012C006F013C007F086EC3DF004C09C
:103A400010F005C011F006C012F007C013F0300EE0
:103A50001026000E1122122213221050E66EB6DC40
:103A6000E552020EF36EFA0EDBCFF4FFF350F45C76
:103A70004CE3FB0EDBCF04F0FC0EDBCF05F0FD0EBC
:103A8000DBCF06F0FE0EDBCF07F0640E096E0A6A8C
:103A90000B6A0C6A86EC3DF0FB0E00C0DBFFFC0EEF
:103AA00001C0DBFFFD0E02C0DBFFFE0E03C0DBFF2B
:103AB000FB0EDBCF10F0FC0EDBCF11F0FD0EDBCFE9
:103AC00012F0FE0EDBCF13F00A0E096E0A6A0B6AC3
:103AD0000C6A10C004F011C005F012C006F013C04B
:103AE00007F086EC3DF004C010F005C011F006C0F0
:103AF00012F007C013F0300E1026000E1122122211
:103B000013221050E66E62DCE552010EF36EFA0EDF
:103B1000DBCFF4FFF350F45C36E3FB0EDBCF04F0B5
:103B2000FC0EDBCF05F0FD0EDBCF06F0FE0EDBCF8B
:103B300007F00A0E096E0A6A0B6A0C6A86EC3DF001
:103B4000FB0E00C0DBFFFC0E01C0DBFFFD0E02C060
:103B5000DBFFFE0E03C0DBFF300E106E116A126A2F
:103B6000136AD950FB0FE96EFF0EDA20EA6EEE50B1
:103B70001026EE501122EE501222EE501322105059
:103B8000E66E24DCE552E552E7CFD9FF1200D9CF2B
:103B9000E6FFE1CFD9FF0A0EF36EFA0EDBCFF4FF9A
:103BA000F350F45C4EE3FB0EDBCF04F0FC0EDBCFF6
:103BB00005F0FD0EDBCF06F0FE0EDBCF07F0096847
:103BC0000A680B680C6886EC3DF0FB0E00C0DBFF5A
:103BD000FC0E01C0DBFFFD0E02C0DBFFFE0E03C0CA
:103BE000DBFFFB0EDBCF10F0FC0EDBCF11F0FD0E88
:103BF000DBCF12F0FE0EDBCF13F0096ACA0E0A6E9D
:103C00009A0E0B6E3B0E0C6E10C004F011C005F046
:103C100012C006F013C007F086EC3DF004C010F0AF
:103C200005C011F006C012F007C013F0300E1026C8
:103C3000000E1122122213221050E66E18EC1AF018
:103C4000E552090EF36EFA0EDBCFF4FFF350F45C8D
:103C500051E3FB0EDBCF04F0FC0EDBCF05F0FD0ED5
:103C6000DBCF06F0FE0EDBCF07F0096ACA0E0A6E44
:103C70009A0E0B6E3B0E0C6E86EC3DF0FB0E00C0F8
:103C8000DBFFFC0E01C0DBFFFD0E02C0DBFFFE0E02
:103C900003C0DBFFFB0EDBCF10F0FC0EDBCF11F01F
:103CA000FD0EDBCF12F0FE0EDBCF13F0096AE10E42
:103CB0000A6EF50E0B6E050E0C6E10C004F011C0EE
:103CC00005F012C006F013C007F086EC3DF004C00A
:103CD00010F005C011F006C012F007C013F0300E4E
:103CE0001026000E1122122213221050E66E18EC3C
:103CF0001AF0E552080EF36EFA0EDBCFF4FFF35024
:103D0000F45C51E3FB0EDBCF04F0FC0EDBCF05F0DF
:103D1000FD0EDBCF06F0FE0EDBCF07F0096AE10EE9
:103D20000A6EF50E0B6E050E0C6E86EC3DF0FB0E6A
:103D300000C0DBFFFC0E01C0DBFFFD0E02C0DBFF9D
:103D4000FE0E03C0DBFFFB0EDBCF10F0FC0EDBCF63
:103D500011F0FD0EDBCF12F0FE0EDBCF13F0800E64
:103D6000096E960E0A6E980E0B6E0C6A10C004F067
:103D700011C005F012C006F013C007F086EC3DF04C
:103D800004C010F005C011F006C012F007C013F017
:103D9000300E1026000E1122122213221050E66E51
:103DA00018EC1AF0E552070EF36EFA0EDBCFF4FFB3
:103DB000F350F45C51E3FB0EDBCF04F0FC0EDBCFE1
:103DC00005F0FD0EDBCF06F0FE0EDBCF07F0800E18
:103DD000096E960E0A6E980E0B6E0C6A86EC3DF01C
:103DE000FB0E00C0DBFFFC0E01C0DBFFFD0E02C0BE
:103DF000DBFFFE0E03C0DBFFFB0EDBCF10F0FC0E83
:103E0000DBCF11F0FD0EDBCF12F0FE0EDBCF13F097
:103E1000400E096E420E0A6E0F0E0B6E0C6A10C039
:103E200004F011C005F012C006F013C007F086ECD4
:103E30003DF004C010F005C011F006C012F007C03C
:103E400013F0300E1026000E1122122213221050F1
:103E5000E66E18EC1AF0E552060EF36EFA0EDBCFA2
:103E6000F4FFF350F45C51E3FB0EDBCF04F0FC0EE7
:103E7000DBCF05F0FD0EDBCF06F0FE0EDBCF07F04B
:103E8000400E096E420E0A6E0F0E0B6E0C6A86EC27
:103E90003DF0FB0E00C0DBFFFC0E01C0DBFFFD0EA2
:103EA00002C0DBFFFE0E03C0DBFFFB0EDBCF10F01A
:103EB000FC0EDBCF11F0FD0EDBCF12F0FE0EDBCFE0
:103EC00013F0A00E096E860E0A6E010E0B6E0C6AC0
:103ED00010C004F011C005F012C006F013C007F0C6
:103EE00086EC3DF004C010F005C011F006C012F0E1
:103EF00007C013F0300E1026000E112212221322DA
:103F00001050E66E18EC1AF0E552050EF36EFA0E3C
:103F1000DBCFF4FFF350F45C50E3FB0EDBCF04F097
:103F2000FC0EDBCF05F0FD0EDBCF06F0FE0EDBCF87
:103F300007F0A00E096E860E0A6E010E0B6E0C6A5B
:103F400086EC3DF0FB0E00C0DBFFFC0E01C0DBFF8A
:103F5000FD0E02C0DBFFFE0E03C0DBFFFB0EDBCF5E
:103F600010F0FC0EDBCF11F0FD0EDBCF12F0FE0ED9
:103F7000DBCF13F0100E096E270E0A6E0B6A0C6A67
:103F800010C004F011C005F012C006F013C007F015
:103F900086EC3DF004C010F005C011F006C012F030
:103FA00007C013F0300E1026000E11221222132229
:103FB0001050E66E18EC1AF0E552040EF36EFA0E8D
:103FC000DBCFF4FFF350F45C4FE3FB0EDBCF04F0E8
:103FD000FC0EDBCF05F0FD0EDBCF06F0FE0EDBCFD7
:103FE00007F0100E096E270E0A6E0B6A0C6A86EC3B
:103FF0003DF0FB0E00C0DBFFFC0E01C0DBFFFD0E41
:1040000002C0DBFFFE0E03C0DBFFFB0EDBCF10F0B8
:10401000FC0EDBCF11F0FD0EDBCF12F0FE0EDBCF7E
:1040200013F0E80E096E030E0A6E0B6A0C6A10C0DC
:1040300004F011C005F012C006F013C007F086ECC2
:104040003DF004C010F005C011F006C012F007C02A
:1040500013F0300E1026000E1122122213221050DF
:10406000E66E18EC1AF0E552030EF36EFA0EDBCF93
:10407000F4FFF350F45C4EE3FB0EDBCF04F0FC0ED8
:10408000DBCF05F0FD0EDBCF06F0FE0EDBCF07F039
:10409000E80E096E030E0A6E0B6A0C6A86EC3DF0A0
:1040A000FB0E00C0DBFFFC0E01C0DBFFFD0E02C0FB
:1040B000DBFFFE0E03C0DBFFFB0EDBCF10F0FC0EC0
:1040C000DBCF11F0FD0EDBCF12F0FE0EDBCF13F0D5
:1040D000640E096E0A6A0B6A0C6A10C004F011C003
:1040E00005F012C006F013C007F086EC3DF004C0E6
:1040F00010F005C011F006C012F007C013F0300E2A
:104100001026000E1122122213221050E66E18EC17
:104110001AF0E552020EF36EFA0EDBCFF4FFF35005
:10412000F45C4DE3FB0EDBCF04F0FC0EDBCF05F0BF
:10413000FD0EDBCF06F0FE0EDBCF07F0640E096E3E
:104140000A6A0B6A0C6A86EC3DF0FB0E00C0DBFFCE
:10415000FC0E01C0DBFFFD0E02C0DBFFFE0E03C044
:10416000DBFFFB0EDBCF10F0FC0EDBCF11F0FD0E02
:10417000DBCF12F0FE0EDBCF13F00A0E096E0A6AD7
:104180000B6A0C6A10C004F011C005F012C006F0F2
:1041900013C007F086EC3DF004C010F005C011F02C
:1041A00006C012F007C013F0300E1026000E1122C8
:1041B000122213221050E66E18EC1AF0E552010E8E
:1041C000F36EFA0EDBCFF4FFF350F45C37E3FB0E33
:1041D000DBCF04F0FC0EDBCF05F0FD0EDBCF06F0ED
:1041E000FE0EDBCF07F00A0E096E0A6A0B6A0C6A34
:1041F00086EC3DF0FB0E00C0DBFFFC0E01C0DBFFD8
:10420000FD0E02C0DBFFFE0E03C0DBFF300E106EA2
:10421000116A126A136AD950FB0FE96EFF0EDA2099
:10422000EA6EEE501026EE501122EE501222EE50A1
:1042300013221050E66E18EC1AF0E552E552E7CF63
:10424000D9FF1200D9CFE6FFE1CFD9FFFC0EDB503A
:10425000000821E2FC0EDB06FD0EDBCF12F0FE0EA5
:10426000DBCF13F0FC0EDB50D6EC3DF01250F31414
:10427000106E1350F414116E1050111006E1300E30
:10428000E66EE6EC19F0E55205D0310EE66EE6EC8E
:1042900019F0E552DBD7E552E7CFD9FF1200D9CFAD
:1042A000E6FFE1CFD9FFFC0EDB50000821E2FC0E57
:1042B000DB06FD0EDBCF12F0FE0EDBCF13F0FC0EA3
:1042C000DB50D6EC3DF01250F314106E1350F41482
:1042D000116E1050111006E1300EE66E18EC1AF057
:1042E000E55205D0310EE66E18EC1AF0E552DBD738
:1042F000E552E7CFD9FF1200D9CFE6FFE1CFD9FFD2
:10430000E652060EDF6EDF06DF5002E18B8421D01D
:10431000410EE66EA6EC3CF0E552000903E003EC2A
:104320003DF0F1D7040EE66EF0EC3CF0E5520009EA
:1043300003E003EC3DF0E7D7FE0EDBCFE6FFF0EC49
:104340003CF0E552000903E003EC3DF0DCD703EC60
:104350003DF0E552E552E7CFD9FF1200D9CFE6FF95
:10436000E1CFD9FFE652060EDF6EDF06DF5002E135
:104370008B8421D0400EE66EA6EC3CF0E55200099D
:1043800003E003EC3DF0F1D7040EE66EF0EC3CF0F8
:10439000E552000903E003EC3DF0E7D7FE0EDBCF6A
:1043A000E6FFF0EC3CF0E552000903E003EC3DF0E1
:1043B000DCD703EC3DF0E552E552E7CFD9FF120020
:1043C000D9CFE6FFE1CFD9FF020EE126060EDF6E60
:1043D000DE52010EDD6EDF06DF5002E18B842AD053
:1043E000410EE66EA6EC3CF0E552000903E003EC5A
:1043F0003DF0F1D7FE0EDB50640FE66EF0EC3CF0C2
:10440000E552000903E003EC3DF0E5D703EC3DF095
:10441000410EE66ECBEC3CF0E552000903E003EC04
:104420003DF0D9D720EC3DF0E76E010EE7CFDBFF82
:1044300003EC3DF0010EDB50106E020EE15C03E276
:1044400000D0E16AE552E16E1050E552E7CFD9FFA6
:104450001200D9CFE6FFE1CFD9FF020EE126060E0A
:10446000DF6EDE52010EDD6EDF06DF5002E18B846F
:104470002AD0400EE66EA6EC3CF0E552000903E0BF
:1044800003EC3DF0F1D7FE0EDB50640FE66EF0EC6E
:104490003CF0E552000903E003EC3DF0E5D703EC06
:1044A0003DF0400EE66ECBEC3CF0E552000903E037
:1044B00003EC3DF0D9D720EC3DF0E76E010EE7CFDD
:1044C000DBFF03EC3DF0010EDB50106E020EE15CF1
:1044D00003E200D0E16AE552E16E1050E552E7CF09
:1044E000D9FF1200D9CFE6FFE1CFD9FFE652060E81
:1044F000DF6EDF06DF5002E18B8421D0410EE66ED5
:10450000A6EC3CF0E552000903E003EC3DF0F1D7E6
:10451000020EE66EF0EC3CF0E552000903E003EC1D
:104520003DF0E7D7FE0EDBCFE6FFF0EC3CF0E552C6
:10453000000903E003EC3DF0DCD703EC3DF0E5526D
:10454000E552E7CFD9FF1200D9CFE6FFE1CFD9FF7F
:10455000E652060EDF6EDF06DF5002E18B8421D0CB
:10456000400EE66EA6EC3CF0E552000903E003ECD9
:104570003DF0F1D7020EE66EF0EC3CF0E55200099A
:1045800003E003EC3DF0E7D7FE0EDBCFE6FFF0ECF7
:104590003CF0E552000903E003EC3DF0DCD703EC0E
:1045A0003DF0E552E552E7CFD9FF1200D9CFE6FF43
:1045B000E1CFD9FFE652060EDF6EDF06DF5002E1E3
:1045C0008B841ED0410EE66EA6EC3CF0E55200094D
:1045D00003E003EC3DF0F1D7E66AF0EC3CF0E55285
:1045E000000903E003EC3DF0E8D7E66AF0EC3CF0AC
:1045F000E552000903E003EC3DF0DFD703EC3DF0AA
:10460000E552E552E7CFD9FF1200D9CFE6FFE1CF5F
:10461000D9FFE652060EDF6EDF06DF5002E18B8423
:104620001ED0400EE66EA6EC3CF0E552000903E019
:1046300003EC3DF0F1D7E66AF0EC3CF0E5520009FE
:1046400003E003EC3DF0E8D7E66AF0EC3CF0E5521D
:10465000000903E003EC3DF0DFD703EC3DF0E55249
:10466000E552E7CFD9FF1200D9CFE6FFE1CFD9FF5E
:10467000020EE126DE52060EDD6E010EDB06DB5079
:1046800002E18B842BD0410EE66EA6EC3CF0E552A5
:10469000000903E003EC3DF0F0D7010EE66EF0EC0C
:1046A0003CF0E552000903E003EC3DF0E6D7FE0ED6
:1046B000DB5004E1FD0EDB50DF6E04D0FD0EDB505D
:1046C000140FDF6EDFCFE6FFF0EC3CF0E55200099F
:1046D00003E003EC3DF0D1D703EC3DF0020EE15CCA
:1046E00002E2E16AE552E16EE552E7CFD9FF12003E
:1046F000D9CFE6FFE1CFD9FF020EE126DE52060E4A
:10470000DD6E010EDB06DB5002E18B842BD0400E08
:10471000E66EA6EC3CF0E552000903E003EC3DF048
:10472000F0D7010EE66EF0EC3CF0E552000903E034
:1047300003EC3DF0E6D7FE0EDB5004E1FD0EDB504E
:10474000DF6E04D0FD0EDB50140FDF6EDFCFE6FF0F
:10475000F0EC3CF0E552000903E003EC3DF0D1D76A
:1047600003EC3DF0020EE15C02E2E16AE552E16E2B
:08477000E552E7CFD9FF12006A
:08477800D9CFE6FFE1CFD9FF24
:10478000040EE126060EDF6E010EDB6A020EDB6A06
:10479000030EDB6AF250800B01E0010EE76E030EA0
:1047A000E7CFDBFFF250400B01E0010EE76E020E97
:1047B000E7CFDBFFF29EF29CDF06DF5002E18B8445
:1047C00022D0FE0EDBCFE6FFA6EC3CF0E55200095E
:1047D00003E003EC3DF0F0D7010EE66EF0EC3CF0A8
:1047E000E552000903E003EC3DF0E6D7010EDBCF14
:1047F000E6FFF0EC3CF0E552000903E003EC3DF08D
:10480000DBD703EC3DF0030EDB50E8B0F28EE8A0FE
:10481000F29E020EDB50E8B0F28CE8A0F29C040E8F
:10482000E15C02E2E16AE552E16EE552E7CFD9FFD1
:104830001200D9CFE6FFE1CFD9FF040EE126060E24
:10484000DF6E010EDB6A020EDB6A030EDB6AF250DA
:10485000800B01E0010EE76E030EE7CFDBFFF250A5
:10486000400B01E0010EE76E020EE7CFDBFFF29E88
:10487000F29CDF06DF5002E18B8422D0FE0EDBCFFC
:10488000E6FFA6EC3CF0E552000903E003EC3DF046
:10489000F0D7020EE66EF0EC3CF0E552000903E0C2
:1048A00003EC3DF0E6D7010EDBCFE6FFF0EC3CF089
:1048B000E552000903E003EC3DF0DBD703EC3DF0EB
:1048C000030EDB50E8B0F28EE8A0F29E020EDB5041
:1048D000E8B0F28CE8A0F29C040EE15C02E2E16A2E
:1048E000E552E16EE552E7CFD9FF1200D9CFE6FFDE
:1048F000E1CFD9FF040EE126060EDF6E010EDB6A62
:10490000020EDB6A030EDB6AF250800B01E0010E3F
:10491000E76E030EE7CFDBFFF250400B01E0010E24
:10492000E76E020EE7CFDBFFF29EF29CDF06DF5060
:1049300002E18B8422D0FE0EDBCFE6FFA6EC3CF03A
:10494000E552000903E003EC3DF0F0D7030EE66EFC
:10495000F0EC3CF0E552000903E003EC3DF0E6D753
:10496000010EDBCFE6FFF0EC3CF0E552000903E07E
:1049700003EC3DF0DBD703EC3DF0030EDB50E8B079
:10498000F28EE8A0F29E020EDB50E8B0F28CE8A0B6
:10499000F29C040EE15C02E2E16AE552E16EE5524E
:1049A000E7CFD9FF1200D9CFE6FFE1CFD9FF040E40
:1049B000E126060EDF6E010EDB6A020EDB6A030ED5
:1049C000DB6AF250800B01E0010EE76E030EE7CFC9
:1049D000DBFFF250400B01E0010EE76E020EE7CF65
:1049E000DBFFF29EF29CDF06DF5002E18B8422D0D7
:1049F000FE0EDBCFE6FFA6EC3CF0E552000903E03B
:104A000003EC3DF0F0D7040EE66EF0EC3CF0E5521E
:104A1000000903E003EC3DF0E6D7010EDBCFE6FF33
:104A2000F0EC3CF0E552000903E003EC3DF0DBD78D
:104A300003EC3DF0030EDB50E8B0F28EE8A0F29EEE
:104A4000020EDB50E8B0F28CE8A0F29C040EE15CB0
:104A500002E2E16AE552E16EE552E7CFD9FF1200CA
:104A6000D9CFE6FFE1CFD9FF030EE126060EDF6EB8
:104A7000010EDB6A020EDB6AF250800B01E0010ED0
:104A8000E76E020EE7CFDBFFF250400B01E0010EB4
:104A9000E76E010EE7CFDBFFF29EF29CDF06DF50F0
:104AA00002E18B8422D0FE0EDBCFE6FFA6EC3CF0C9
:104AB000E552000903E003EC3DF0F0D7050EE66E89
:104AC000F0EC3CF0E552000903E003EC3DF0E6D7E2
:104AD000FD0EDBCFE6FFF0EC3CF0E552000903E011
:104AE00003EC3DF0DBD703EC3DF0020EDB50E8B009
:104AF000F28EE8A0F29E010EDB50E8B0F28CE8A046
:104B0000F29C030EE15C02E2E16AE552E16EE552DD
:104B1000E7CFD9FF1200D9CFE6FFE1CFD9FF050ECD
:104B2000E126060EDF6E030EDB6A040EDB6AF2502E
:104B3000800B01E0010EE76E040EE7CFDBFFF250C1
:104B4000400B01E0010EE76E030EE7CFDBFFF29EA4
:104B5000F29CFC0EDBCF10F0FD0EDBCF11F011C08C
:104B600010F0116A020E10C0DBFFFC0EDB50E76E86
:104B7000010EE7CFDBFFDF06DF5002E18B8443D07D
:104B8000FE0EDBCFE6FFA6EC3CF0E552000903E0A9
:104B900003EC3DF0F0D7060EE66EF0EC3CF0E5528B
:104BA000000903E003EC3DF0E6D7020EDBCFE6FFA1
:104BB000F0EC3CF0E552000903E003EC3DF0DBD7FC
:104BC000010EDBCFE6FFF0EC3CF0E552000903E01C
:104BD00003EC3DF0D0D7FB0EDBCFE6FFF0EC3CF072
:104BE000E552000903E003EC3DF0C5D7FA0EDBCF38
:104BF000E6FFF0EC3CF0E552000903E003EC3DF089
:104C0000BAD703EC3DF0040EDB50E8B0F28EE8A01A
:104C1000F29E030EDB50E8B0F28CE8A0F29C050E89
:104C2000E15C02E2E16AE552E16EE552E7CFD9FFCD
:104C30001200D9CFE6FFE1CFD9FF040EE126060E20
:104C4000DF6E010EDB6A020EDB6A030EDB6AF250D6
:104C5000800B01E0010EE76E030EE7CFDBFFF250A1
:104C6000400B01E0010EE76E020EE7CFDBFFF29E84
:104C7000F29CDF06DF5002E18B8422D0FE0EDBCFF8
:104C8000E6FFA6EC3CF0E552000903E003EC3DF042
:104C9000F0D7070EE66EF0EC3CF0E552000903E0B9
:104CA00003EC3DF0E6D7010EDBCFE6FFF0EC3CF085
:104CB000E552000903E003EC3DF0DBD703EC3DF0E7
:104CC000030EDB50E8B0F28EE8A0F29E020EDB503D
:104CD000E8B0F28CE8A0F29C040EE15C02E2E16A2A
:104CE000E552E16EE552E7CFD9FF1200D9CFE6FFDA
:104CF000E1CFD9FF040EE126060EDF6E010EDB6A5E
:104D0000020EDB6A030EDB6AF250800B01E0010E3B
:104D1000E76E030EE7CFDBFFF250400B01E0010E20
:104D2000E76E020EE7CFDBFFF29EF29CDF06DF505C
:104D300002E18B8422D0FE0EDBCFE6FFA6EC3CF036
:104D4000E552000903E003EC3DF0F0D70B0EE66EF0
:104D5000F0EC3CF0E552000903E003EC3DF0E6D74F
:104D6000010EDBCFE6FFF0EC3CF0E552000903E07A
:104D700003EC3DF0DBD703EC3DF0030EDB50E8B075
:104D8000F28EE8A0F29E020EDB50E8B0F28CE8A0B2
:104D9000F29C040EE15C02E2E16AE552E16EE5524A
:104DA000E7CFD9FF1200D9CFE6FFE1CFD9FF040E3C
:104DB000E126060EDF6E010EDB6A020EDB6A030ED1
:104DC000DB6AF250800B01E0010EE76E030EE7CFC5
:104DD000DBFFF250400B01E0010EE76E020EE7CF61
:104DE000DBFFF29EF29CDF06DF5002E18B8422D0D3
:104DF000FE0EDBCFE6FFA6EC3CF0E552000903E037
:104E000003EC3DF0F0D70C0EE66EF0EC3CF0E55212
:104E1000000903E003EC3DF0E6D7010EDBCFE6FF2F
:104E2000F0EC3CF0E552000903E003EC3DF0DBD789
:104E300003EC3DF0030EDB50E8B0F28EE8A0F29EEA
:104E4000020EDB50E8B0F28CE8A0F29C040EE15CAC
:104E500002E2E16AE552E16EE552E7CFD9FF1200C6
:104E6000D9CFE6FFE1CFD9FF040EE126060EDF6EB3
:104E7000010EDB6A020EDB6A030EDB6AF250800B66
:104E800001E0010EE76E030EE7CFDBFFF250400BAF
:104E900001E0010EE76E020EE7CFDBFFF29EF29C0F
:104EA000DF06DF5002E18B8422D0FE0EDBCFE6FF6F
:104EB000A6EC3CF0E552000903E003EC3DF0F0D72E
:104EC0000D0EE66EF0EC3CF0E552000903E003EC59
:104ED0003DF0E6D7010EDBCFE6FFF0EC3CF0E5520B
:104EE000000903E003EC3DF0DBD703EC3DF0030EDB
:104EF000DB50E8B0F28EE8A0F29E020EDB50E8B084
:104F0000F28CE8A0F29C040EE15C02E2E16AE55258
:104F1000E16EE552E7CFD9FF1200D9CFE6FFE1CF2E
:104F2000D9FF040EE126060EDF6E010EDB6A020ECB
:104F3000DB6A030EDB6AF250800B01E0010EE76EC4
:104F4000030EE7CFDBFFF250400B01E0010EE76EEE
:104F5000020EE7CFDBFFF29EF29CDF06DF5002E19C
:104F60008B8422D0FE0EDBCFE6FFA6EC3CF0E552B0
:104F7000000903E003EC3DF0F0D70E0EE66EF0EC16
:104F80003CF0E552000903E003EC3DF0E6D7010EEA
:104F9000DBCFE6FFF0EC3CF0E552000903E003EC68
:104FA0003DF0DBD703EC3DF0030EDB50E8B0F28EB2
:104FB000E8A0F29E020EDB50E8B0F28CE8A0F29C72
:104FC000040EE15C02E2E16AE552E16EE552E7CFF0
:104FD000D9FF1200D9CFE6FFE1CFD9FF030EE126BA
:104FE000060EDF6E010EDB6A020EDB6AF250800BEA
:104FF00001E0010EE76E020EE7CFDBFFF250400B3F
:1050000001E0010EE76E010EE7CFDBFFF29EF29C9E
:10501000DF06DF5002E18B8422D0FE0EDBCFE6FFFD
:10502000A6EC3CF0E552000903E003EC3DF0F0D7BC
:105030000F0EE66EF0EC3CF0E552000903E003ECE5
:105040003DF0E6D7FD0EDBCFE6FFF0EC3CF0E5529D
:10505000000903E003EC3DF0DBD703EC3DF0020E6A
:10506000DB50E8B0F28EE8A0F29E010EDB50E8B013
:10507000F28CE8A0F29C030EE15C02E2E16AE552E8
:10508000E16EE552E7CFD9FF1200D9CFE6FFE1CFBD
:10509000D9FF050EE126060EDF6E030EDB6A040E55
:1050A000DB6AF250800B01E0010EE76E040EE7CFE1
:1050B000DBFFF250400B01E0010EE76E030EE7CF7D
:1050C000DBFFF29EF29CFC0EDBCF10F0FD0EDBCF7F
:1050D00011F011C010F0116A020E10C0DBFFFC0EBF
:1050E000DB50E76E010EE7CFDBFFDF06DF5002E1AA
:1050F0008B8443D0FE0EDBCFE6FFA6EC3CF0E552FE
:10510000000903E003EC3DF0F0D7100EE66EF0EC82
:105110003CF0E552000903E003EC3DF0E6D7020E57
:10512000DBCFE6FFF0EC3CF0E552000903E003ECD6
:105130003DF0DBD7010EDBCFE6FFF0EC3CF0E552B3
:10514000000903E003EC3DF0D0D7FB0EDBCFE6FF18
:10515000F0EC3CF0E552000903E003EC3DF0C5D76C
:10516000FA0EDBCFE6FFF0EC3CF0E552000903E07D
:1051700003EC3DF0BAD703EC3DF0040EDB50E8B091
:10518000F28EE8A0F29E030EDB50E8B0F28CE8A0AD
:10519000F29C050EE15C02E2E16AE552E16EE55245
:1051A000E7CFD9FF1200D9CFE6FFE1CFD9FF040E38
:1051B000E126060EDF6E010EDB6A020EDB6A030ECD
:1051C000DB6AF250800B01E0010EE76E030EE7CFC1
:1051D000DBFFF250400B01E0010EE76E020EE7CF5D
:1051E000DBFFF29EF29CDF06DF5002E18B8422D0CF
:1051F000FE0EDBCFE6FFA6EC3CF0E552000903E033
:1052000003EC3DF0F0D7110EE66EF0EC3CF0E55209
:10521000000903E003EC3DF0E6D7010EDBCFE6FF2B
:10522000F0EC3CF0E552000903E003EC3DF0DBD785
:1052300003EC3DF0030EDB50E8B0F28EE8A0F29EE6
:10524000020EDB50E8B0F28CE8A0F29C040EE15CA8
:1052500002E2E16AE552E16EE552E7CFD9FF1200C2
:10526000D9CFE6FFE1CFD9FF060EE126DE6ADD6A7F
:10527000F36E020EF3CFDBFF040EDB6A050EDB6A72
:10528000F250800B01E0010EE76E050EE7CFDBFF69
:10529000F250400B01E0010EE76E040EE7CFDBFF9A
:1052A000F29EF29C020EDB06DB5002E18B844CD0B6
:1052B000FE0EDBCFE6FFA6EC3CF0E552000903E072
:1052C00003EC3DF0EFD7650EE66EF0EC3CF0E552F6
:1052D000000903E003EC3DF0E5D703EC3DF0FE0EE2
:1052E000DBCFE6FFCBEC3CF0E552000903E003EC3A
:1052F0003DF0D8D709EC3DF0E76E030EE7CFDBFFBA
:10530000DB50DE6EDD6ADECF10F0DDCF11F010C0B5
:1053100011F0106A10C0DEFF11C0DDFF20EC3DF07F
:10532000E76E030EE7CFDBFFDB50E76E000EDFCF4B
:1053300010F0010EDBCF11F0E750101210C0DEFFAD
:1053400011C0DDFF03EC3DF0050EDB50E8B0F28E3E
:10535000E8A0F29E040EDB50E8B0F28CE8A0F29CCC
:10536000DECF10F0DDCF11F010C0F3FF11C0F4FF5D
:10537000060EE15C03E200D0E16AE552E16EE5521F
:10538000E7CFD9FF1200D9CFE6FFE1CFD9FF040E56
:10539000E126060EDF6E010EDB6A020EDB6A030EEB
:1053A000DB6AF250800B01E0010EE76E030EE7CFDF
:1053B000DBFFF250400B01E0010EE76E020EE7CF7B
:1053C000DBFFF29EF29CDF06DF5002E18B842AD0E5
:1053D000FE0EDBCFE6FFA6EC3CF0E552000903E051
:1053E00003EC3DF0F0D7660EE66EF0EC3CF0E552D3
:1053F000000903E003EC3DF0E6D703EC3DF0FE0EC0
:10540000DBCFE6FFCBEC3CF0E552000903E003EC18
:105410003DF0D9D720EC3DF0E76E010EE7CFDBFF82
:1054200003EC3DF0030EDB50E8B0F28EE8A0F29EF4
:10543000020EDB50E8B0F28CE8A0F29C010EDB50CB
:10544000106E040EE15C03E200D0E16AE552E16E09
:105450001050E552E7CFD9FF1200D9CFE6FFE1CFD8
:10546000D9FF040EE126060EDF6E010EDB6A020E86
:10547000DB6A030EDB6AF250800B01E0010EE76E7F
:10548000030EE7CFDBFFF250400B01E0010EE76EA9
:10549000020EE7CFDBFFF29EF29CDF06DF5002E157
:1054A0008B842AD0FE0EDBCFE6FFA6EC3CF0E55263
:1054B000000903E003EC3DF0F0D7670EE66EF0EC78
:1054C0003CF0E552000903E003EC3DF0E6D703ECC5
:1054D0003DF0FE0EDBCFE6FFCBEC3CF0E5520009E1
:1054E00003E003EC3DF0D9D720EC3DF0E76E010E70
:1054F000E7CFDBFF03EC3DF0030EDB50E8B0F28EAC
:10550000E8A0F29E020EDB50E8B0F28CE8A0F29C1C
:10551000010EDB50106E040EE15C03E200D0E16A84
:10552000E552E16E1050E552E7CFD9FF1200D9CF16
:10553000E6FFE1CFD9FF050EE126DF6ADE52060E57
:10554000DD6E030EDB6A040EDB6AF250800B01E0B5
:10555000010EE76E040EE7CFDBFFF250400B01E0D7
:10556000010EE76E030EE7CFDBFFF29EF29C010E09
:10557000DB06DB5002E18B8427D0FE0EDBCFE6FF9B
:10558000A6EC3CF0E552000903E003EC3DF0EFD758
:10559000680EE66EF0EC3CF0E552000903E003EC27
:1055A0003DF0E5D703EC3DF0FE0EDBCFE6FFCBECA4
:1055B0003CF0E552000903E003EC3DF0D8D720ECC5
:1055C0003DF0DF6E03EC3DF0040EDB50E8B0F28EF0
:1055D000E8A0F29E030EDB50E8B0F28CE8A0F29C4B
:1055E000DF50106E050EE15C03E200D0E16AE55287
:1055F000E16E1050E552E7CFD9FF1200D9CFE6FF98
:10560000E1CFD9FF060EE126DE6ADD6AF36E020EF7
:10561000F3CFDBFF040EDB6A050EDB6AF250800B72
:1056200001E0010EE76E050EE7CFDBFFF250400B05
:1056300001E0010EE76E040EE7CFDBFFF29EF29C65
:10564000020EDB06DB5002E18B844CD0FE0EDBCF7A
:10565000E6FFA6EC3CF0E552000903E003EC3DF068
:10566000EFD76F0EE66EF0EC3CF0E552000903E078
:1056700003EC3DF0E5D703EC3DF0FE0EDBCFE6FF9B
:10568000CBEC3CF0E552000903E003EC3DF0D8D749
:1056900009EC3DF0E76E030EE7CFDBFFDB50DE6E7B
:1056A000DD6ADECF10F0DDCF11F010C011F0106A0E
:1056B00010C0DEFF11C0DDFF20EC3DF0E76E030EF1
:1056C000E7CFDBFFDB50E76E000EDFCF10F0010EFF
:1056D000DBCF11F0E750101210C0DEFF11C0DDFF6C
:1056E00003EC3DF0050EDB50E8B0F28EE8A0F29E30
:1056F000040EDB50E8B0F28CE8A0F29CDECF10F094
:10570000DDCF11F010C0F3FF11C0F4FF060EE15C15
:1057100003E200D0E16AE552E16EE552E7CFD9FF3E
:105720001200D9CFE6FFE1CFD9FF040EE126060E25
:10573000DF6E010EDB6A020EDB6A030EDB6AF250DB
:10574000800B01E0010EE76E030EE7CFDBFFF250A6
:10575000400B01E0010EE76E020EE7CFDBFFF29E89
:10576000F29CDF06DF5002E18B842AD0FE0EDBCFF5
:10577000E6FFA6EC3CF0E552000903E003EC3DF047
:10578000F0D7700EE66EF0EC3CF0E552000903E055
:1057900003EC3DF0E6D703EC3DF0FE0EDBCFE6FF79
:1057A000CBEC3CF0E552000903E003EC3DF0D9D727
:1057B00020EC3DF0E76E010EE7CFDBFF03EC3DF0A0
:1057C000030EDB50E8B0F28EE8A0F29E020EDB5032
:1057D000E8B0F28CE8A0F29C010EDB50106E040ED3
:1057E000E15C03E200D0E16AE552E16E1050E5525F
:1057F000E7CFD9FF1200D9CFE6FFE1CFD9FF040EE2
:10580000E126060EDF6E010EDB6A020EDB6A030E76
:10581000DB6AF250800B01E0010EE76E030EE7CF6A
:10582000DBFFF250400B01E0010EE76E020EE7CF06
:10583000DBFFF29EF29CDF06DF5002E18B842AD070
:10584000FE0EDBCFE6FFA6EC3CF0E552000903E0DC
:1058500003EC3DF0F0D7710EE66EF0EC3CF0E55253
:10586000000903E003EC3DF0E6D703EC3DF0FE0E4B
:10587000DBCFE6FFCBEC3CF0E552000903E003ECA4
:105880003DF0D9D720EC3DF0E76E010EE7CFDBFF0E
:1058900003EC3DF0030EDB50E8B0F28EE8A0F29E80
:1058A000020EDB50E8B0F28CE8A0F29C010EDB5057
:1058B000106E040EE15C03E200D0E16AE552E16E95
:1058C0001050E552E7CFD9FF1200D9CFE6FFE1CF64
:1058D000D9FF050EE126DF6ADE52060EDD6E030EED
:1058E000DB6A040EDB6AF250800B01E0010EE76E0A
:1058F000040EE7CFDBFFF250400B01E0010EE76E34
:10590000030EE7CFDBFFF29EF29C010EDB06DB50BD
:1059100002E18B8427D0FE0EDBCFE6FFA6EC3CF045
:10592000E552000903E003EC3DF0EFD7720EE66E9E
:10593000F0EC3CF0E552000903E003EC3DF0E5D764
:1059400003EC3DF0FE0EDBCFE6FFCBEC3CF0E55286
:10595000000903E003EC3DF0D8D720EC3DF0DF6E0A
:1059600003EC3DF0040EDB50E8B0F28EE8A0F29EAE
:10597000030EDB50E8B0F28CE8A0F29CDF50106E12
:10598000050EE15C03E200D0E16AE552E16E1050E1
:08599000E552E7CFD9FF120038
:08599800D9CFE6FFE1CFD9FFF2
:1059A000D950FB0FE96EFF0EDA20EA6ED880000EA8
:1059B000EE54000EEE54000EEE54000EEE540CE2C7
:1059C000D950FB0FE96EFF0EDA20EA6EEE06000EEC
:1059D000EE5AEE5AEE5AE4D7E552E7CFD9FF12005D
:1059E000D9CFE6FFE1CFD9FF020EE126060EDF6E2A
:1059F000010EDB6ADF06DF5002E18B8422D0FE0E4F
:105A0000DBCFE6FFA6EC3CF0E552000903E003EC37
:105A10003DF0F0D7010EE66EF0EC3CF0E5520009E7
:105A200003E003EC3DF0E6D7010EDBCFE6FFF0EC40
:105A30003CF0E552000903E003EC3DF0DBD703EC5A
:105A40003DF0020EE15C02E2E16AE552E16EE552F0
:105A5000E7CFD9FF1200D9CFE6FFE1CFD9FF020E81
:105A6000E126060EDF6E010EDB6ADF06DF5002E183
:105A70008B8422D0FE0EDBCFE6FFA6EC3CF0E55295
:105A8000000903E003EC3DF0F0D7020EE66EF0EC07
:105A90003CF0E552000903E003EC3DF0E6D7010ECF
:105AA000DBCFE6FFF0EC3CF0E552000903E003EC4D
:105AB0003DF0DBD703EC3DF0020EE15C02E2E16A6F
