:060000000A128A159B297B
:1000080001340A128A1501220A128A117108FA01AA
:10001800FA077008F901F9077A08F7007908F60075
:1000280002300310F70CF60CFF3E031D1528760866
:10003800F9007708FA0000307A02F63003197902DD
:10004800031C272828282B287F30322832287908B3
:100058008D3EF6007608F8007808322808008312EA
:1000680003132008A4002108A5002208A6000310F5
:10007800250D260DA7002708AD00AD08031D45284E
:10008800462850280030A3000030A2000030A1000C
:100098000030A000D828D8282008A4002108A500EE
:1000A8002208A60017300310A60CA50CA40CFF3ECE
:1000B800031D57282408A7002708A800A117FF3008
:1000C800A005FF30A1050030A2052008A9002108DD
:1000D800AA002208AB00AC018E30AD02AD1F752816
:1000E80076289B282D08803A8F3E03187C287D2887
:1000F80088280030A3000030A2000030A1000030A2
:10010800A000D828D828882801300310AC0CAB0CE4
:10011800AA0CA90CFF3E031D89280130A40024085D
:10012800AD07031D982899288828BF28BF281830AC
:100138002D02031CA028A128B8280030A3000030F5
:10014800A2000030A1000030A000D828D828B82884
:100158000130A4000310A90DAA0DAB0DAC0DA40B22
:10016800AE280130AD02B828AD08031DBC28BD2853
:10017800AC28BF28BF282808031DC328CF28A909F1
:10018800AA09AB09AC09A90A0319AA0A0319AB0AF7
:100198000319AC0ACF282C08A3002B08A2002A08B0
:1001A800A1002908A000D828080083160313BD0160
:1001B8000A128A1528210A128A110A128A155E2142
:1001C8000A128A11F10100300A128A1507210A124F
:1001D8008A110A128A1581220A128A110A128A15AC
:1001E800A8200A128A11033083160313BC008A3030
:1001F800BB005630BA00BA0BFF28BB0BFF28BC0B5C
:10020800FF2806290A128A11BC220A128A110A1228
:100218008A15B7200A128A1100300A128A15DC21C1
:100228000A128A110130F7008030F8000A128A1584
:1002380046230A128A112029831203130618252936
:1002480026292029282928290A128A1105200A1274
:100258008A1183160313BA003A08C20042087F3A8B
:1002680003193729382948290330BA003A08F00019
:1002780042080A128A1596230A128A118316031352
:10028800BB003B08C200482942080A128A15E82325
:100298000A128A11831603132F0883120313AF015E
:1002A800AF07831603132E0883120313AE01AE079C
:1002B8000A128A1555220A128A11831203132E086C
:1002C800B8002F08B9003008BA008316031349088C
:1002D80083120313B500831603134A08831203130A
:1002E800B600831603134B0883120313B7000A12D0
:1002F8008A15CC250A128A11831203133508C800FF
:100308003608C9003708CA00831603132908831260
:100318000313AF01AF0783160313280883120313CF
:10032800AE01AE070A128A1555220A128A118312E3
:1003380003132E08B8002F08B9003008BA00831636
:100348000313460883120313B500831603134708E3
:1003580083120313B600831603134808831203138A
:10036800B7000A128A15CC250A128A1183120313C0
:100378003508C5003608C6003708C7000A128A15AE
:10038800BA260A128A11831203134508C8004608C0
:10039800C9004708CA0083160313270883120313EA
:1003A800AF01AF0783160313260883120313AE01A8
:1003B800AE070A128A1555220A128A1183120313EC
:1003C8002E08B8002F08B9003008BA0083160313A6
:1003D800430883120313B5008316031344088312DA
:1003E8000313B60083160313450883120313B700DB
:1003F8000A128A15CC250A128A11831203133508AA
:10040800C5003608C6003708C7000A128A15BA267A
:100418000A128A11831203134508A0004608A10096
:100428004708A2000A128A1133200A128A1183127D
:100438000313210883160313AD01AD0783120313B9
:10044800200883160313AC01AC072C08B43EBE0089
:100458002D080318013E003EBF003F08803AFF0008
:1004680081307F02031D3A2A00303E02031C3D2AD8
:100478003E2A452AFF3083160313BE000030BF0012
:100488004F2A83160313BF1F4A2A4B2A4F2ABE013D
:10049800BF014F2A4F2A2C09BA002D09BB00BA0AFE
:1004A8000319BB0A3A08B43EC0003B080318013ED2
:1004B800003EC1004108803AFF0081307F02031DE1
:1004C800672A00304002031C6A2A6B2A722AFF300E
:1004D80083160313C0000030C1007C2A831603135F
:1004E800C11F772A782A7C2AC001C1017C2A7C2A6C
:1004F8004008BA003A08F1003E080A128A15072196
:100508000A128A1100300A128A15DC210A128A118D
:1005180083160313C21F912A922A9B2AC209C20A70
:100528002D300A128A15FB200A128A119B2A83167B
:100538000313420883120313D200D301D21BD3033F
:10054800033083160313BA003A0883120313D40046
:100558000A128A153E250A128A1120300A128A15B3
:10056800FB200A128A11282928290A128A11002830
:1005780083160313B8010030B7000030B60000300E
:10058800B5000030B400831603133808033A031D7E
:10059800CE2ACF2AD12AFF2FFF2F83120618D52A59
:1005A800D62A432C003083160313B7000030B60058
:1005B8000030B5000030B400212B0130831603133E
:1005C800B407003003180130B507003003180130B4
:1005D800B607003003180130B70700303702031D93
:1005E800FF2A01303602031DFF2A86303502031D1B
:1005F800FF2AA1303402031C022B032B212B0130CC
:1006080083120313EC006C0883160313B807043035
:100618003802031C102B112B132BB801132B0A12B1
:100628008A15B7200A128A11192B83120313061C84
:100638001E2B1F2B192BD12AD12A8312061C252BDE
:10064800262BE12A362C362CCD308312D200CC3022
:10065800D3003D30D40083160313490883120313D3
:10066800D500831603134A0883120313D600831692
:1006780003134B0883120313D7000A128A157C212F
:100688000A128A1183120313520883160313C9002E
:1006980083120313530883160313CA008312031328
:1006A800540883160313CB00490883120313A000D0
:1006B800831603134A0883120313A1008316031336
:1006C8004B0883120313A2000030A3000030A400DB
:1006D8000030A5000A128A1555240A128A11031837
:1006E800762B772B432C003083160313C900003078
:1006F800CA000030CB00432C432C12308312031362
:10070800D2008330D3003A30D4008316031346084E
:1007180083120313D50083160313470883120313A8
:10072800D60083160313480883120313D7000A124E
:100738008A157C210A128A11831203135208831620
:100748000313C60083120313530883160313C70049
:1007580083120313540883160313C8004608831230
:100768000313A00083160313470883120313A10081
:1007780083160313480883120313A2000030A30052
:100788000030A4000030A5000A128A1555240A1268
:100798008A110318D02BD12B432C00308316031356
:1007A800C6000030C7000030C800432C432C00307E
:1007B80083120313D200A030D3004030D400831634
:1007C8000313430883120313D50083160313440845
:1007D80083120313D60083160313450883120313E9
:1007E800D7000A128A157C210A128A118312031370
:1007F800520883160313C300831203135308831686
:100808000313C40083120313540883160313C5008B
:10081800430883120313A0008316031344088312AA
:100828000313A10083160313450883120313A200C0
:100838000030A3000030A4000030A5000A128A1579
:1008480055240A128A1103182A2C2B2C432C003009
:1008580083160313C3000030C4000030C500432CC6
:10086800432C432C831603133808003A0319282B0A
:10087800013A0319812B033A0319DB2B432C83120A
:1008880003138618482C492C792D4B2C4B2C861C8D
:100898004E2C4F2C4B2C6B2D6B2DCD308312C5005D
:1008A800CC30C6003D30C7008316031349088312B5
:1008B8000313C800831603134A0883120313C900DD
:1008C800831603134B0883120313CA000A128A15EE
:1008D800BA260A128A1183120313450883160313D2
:1008E800C90083120313460883160313CA00831230
:1008F8000313470883160313CB0000308312031336
:10090800A0001030A1004130A2008316031349084B
:1009180083120313A300831603134A0883120313D5
:10092800A400831603134B0883120313A5000A12AD
:100938008A1555240A128A110318A32CA42C792D80
:10094800003083160313C9001030CA004130CB00B1
:10095800792D792D123083120313C5008330C60018
:100968003A30C70083160313460883120313C800DE
:1009780083160313470883120313C900831603134E
:10098800480883120313CA000A128A15BA260A12E3
:100998008A1183120313450883160313C6008312B2
:1009A8000313460883160313C7008312031347086B
:1009B80083160313C800003083120313A00080308D
:1009C800A1003F30A20083160313460883120313C5
:1009D800A30083160313470883120313A400831686
:1009E8000313480883120313A5000A128A15552415
:1009F8000A128A110318012D022D792D0030831651
:100A08000313C6008030C7003F30C800792D792D08
:100A1800003083120313C500A030C6004030C70061
:100A280083160313430883120313C80083160313A2
:100A3800440883120313C90083160313450883125D
:100A48000313CA000A128A15BA260A128A118312D7
:100A58000313450883160313C300831203134608C0
:100A680083160313C4008312031347088316031362
:100A7800C500003083120313A0004830A1004330A2
:100A8800A20083160313430883120313A3008316DB
:100A98000313440883120313A400831603134508A1
:100AA80083120313A5000A128A1555240A128A1103
:100AB80003185F2D602D792D003083160313C300B2
:100AC8004830C4004330C500792D792D792D83161F
:100AD80003133808003A0319512C013A0319AE2CB4
:100AE800033A03190C2D792D792D00300A128A1535
:100AF800DC210A128A11F02F1330F7008030F80039
:100B08000A128A1546230A128A1183160313490802
:100B180083120313A000831603134A0883120313D6
:100B2800A100831603134B0883120313A2000A12B1
:100B38008A1133200A128A11831203132008EC0049
:100B48006C0883160313B900390883120313EC00E9
:100B5800ED016C08D2006D08D300D4010314D40D44
:100B68000A128A153E250A128A112E300A128A158F
:100B7800FB200A128A118316031339080A128A15F0
:100B8800BB210A128A11831203132E08F8002F08BA
:100B9800F9003008FA000A128A15EF200A128A11A1
:100BA800780883120313C8007908C9007A08CA00B4
:100BB80083160313490883120313C500831603130E
:100BC8004A0883120313C600831603134B088312C3
:100BD8000313C7000A128A15BA260A128A11831249
:100BE80003134508B8004608B9004708BA000030A2
:100BF800B5002030B6004130B7000A128A15CC255E
:100C08000A128A11831203133508A0003608A100BE
:100C18003708A2000A128A1133200A128A11831295
:100C280003132108D301D3072008D201D207D40126
:100C38000314D40D0A128A153E250A128A1120308F
:100C48000A128A15FB200A128A11C72A0F30F700E8
:100C58008030F8000A128A1546230A128A111430C5
:100C68000A128A15DC210A128A1183160313460810
:100C780083120313A0008316031347088312031378
:100C8800A10083160313480883120313A2000A1253
:100C98008A1133200A128A11831203132008EC00E8
:100CA8006C0883160313B900390883120313EC0088
:100CB800ED016C08D2006D08D300D4010314D40DE3
:100CC8000A128A153E250A128A112E300A128A152E
:100CD800FB200A128A11003083120313B5007A3000
:100CE800B6004430B7008316031346088312031373
:100CF800C50083160313470883120313C60083161F
:100D08000313480883120313C70083160313390813
:100D18000A128A15BB210A128A11831203132E089C
:100D2800F8002F08F9003008FA000A128A15EF2097
:100D38000A128A11780883120313C8007908C900B7
:100D48007A08CA000A128A15BA260A128A11831268
:100D580003134508B8004608B9004708BA000A1244
:100D68008A15CC250A128A11831203133508A000AC
:100D78003608A1003708A2000030A300C830A4003C
:100D88004230A5000A128A1555240A128A1103183E
:100D9800CE2ECF2ED52E30300A128A15FB200A12FD
:100DA8008A11003083120313B5007A30B60044303C
:100DB800B70083160313460883120313C50083166E
:100DC8000313470883120313C60083160313480846
:100DD80083120313C7008316031339080A128A15EE
:100DE800BB210A128A11831203132E08F8002F0858
:100DF800F9003008FA000A128A15EF200A128A113F
:100E0800780883120313C8007908C9007A08CA0051
:100E18000A128A15BA260A128A1183120313450880
:100E2800B8004608B9004708BA000A128A15CC2546
:100E38000A128A11831203133508A0003608A1008C
:100E48003708A2000030A3002030A4004130A500DC
:100E58000A128A1555240A128A110318342F352FBD
:100E68003C2F30300A128A15FB200A128A113C2FB7
:100E78008316031339080A128A15BB210A128A112C
:100E8800831203132E08F8002F08F9003008FA001F
:100E98000A128A15EF200A128A117808831203139E
:100EA800C8007908C9007A08CA00831603134608DF
:100EB80083120313C5008316031347088312031311
:100EC800C60083160313480883120313C7000A12C7
:100ED8008A15BA260A128A11831203134508B80024
:100EE8004608B9004708BA000030B5007A30B600A5
:100EF8004430B7000A128A15CC250A128A118312C7
:100F080003133508A0003608A1003708A2000A120A
:100F18008A1133200A128A11831203132108D3017C
:100F2800D3072008D201D2070330EC006C08D400A4
:100F38000A128A153E250A128A1120300A128A15C9
:100F4800FB200A128A11C72A0B30F7008030F800FC
:100F58000A128A1546230A128A1114300A128A15AF
:100F6800DC210A128A118316031343088312031320
:100F7800A00083160313440883120313A1008316E9
:100F88000313450883120313A2000A128A1133209F
:100F98000A128A11831203132008EC006C088316C6
:100FA8000313B900390883120313EC00ED016C0830
:100FB800D2006D08D3000330EE006E08D4000A1288
:100FC8008A153E250A128A1120300A128A15FB203A
:100FD8000A128A11C72AC72A831603133808003A47
:100FE8000319802D013A03192A2E033A0319A82F51
:100FF800C72AC72AC72A0800FF1B0A2883137F1895
:1010080083170008840A0319FF0A080008308A00B9
:101018000408840A82070034503472346534733407
:1010280073340A3453345734313400344B34643411
:101038000A3400344B3469340A3400344B34703485
:041048000A34003432
:10112C00F00070088312031395000800F00070089B
:10113C00831203139B000800F00070088312031342
:10114C00880008000A128A1542210A128A15AE2854
:10115C00080064008001840A0406031900340406A4
:10116C00B028F1010314F10D00300A128A152A225D
:10117C000A128A150800C030F5007508F10000301D
:10118C000A128A152A220A128A15080000347034B1
:10119C004134123483343B340034203440344B34E7
:1011AC000034F0007018DB28DF28831203130915B4
:1011BC00E2288312031309110800F0007018E728C5
:1011CC00EB28831203130617EE288312031306135E
:1011DC0008007A08790478040319F528F628F92808
:1011EC008030FA06F928FA280800F6007608F5008F
:1011FC007508F10001300A128A152A220A128A1582
:10120C000800F20071080A128A1596200A128A1533
:10121C0072080A128A159C200A128A1508007E0888
:10122C008A007F0882000A128A1515210A128A1573
:10123C008000840A04087D0603190034FF0A031990
:10124C00FE0A19298312031386018701880189017B
:10125C00FF30831603138500033086009930870016
:10126C008801033089000130831603178800890137
:10127C008312031386130800831203131F083F39CC
:10128C0080389F00C3309F058316031708148316FC
:10129C0003139F170514831203131F142130F1003D
:1012AC007630F000F00B5829F10B58296400080037
:1012BC00FE30831603139200831203139210121440
:1012CC0095019B0112159713171397121712971567
:1012DC001715971017109D121D129D151D159D1099
:1012EC001D10061586110612861608008030831212
:1012FC000313D4065508C5005608C6005708C70086
:10130C005208C8005308C9005408CA000A128A15AA
:10131C00BA260A128A15831203134508D20046080E
:10132C00D3004708D4009A2908008313A030840006
:10133C00B4300A128A15AF200A128A15CE30FD007D
:10134C000830FE00CC30FF00C33084000A128A152E
:10135C0019210A128A150A128A1104200A128A15F6
:10136C00EF0083010A128A11D928FB007B08831233
:10137C000313B100B201B3013108F0003208F100DF
:10138C003308F2008E30B4003408F300F4010A1272
:10139C008A15C3240A128A15700883120313AE002F
:1013AC007108AF007208B000DB290800F60010309D
:1013BC0076020318E229E329EF297608803EF5002E
:1013CC007508F10000300A128A152A220A128A15B1
:1013DC00002A7608EC3EF5007508F6007608C03E4B
:1013EC00F5007508F10000300A128A152A220A123B
:1013FC008A15002A08003130F200F20B032A062A63
:10140C00831203139F140A2A9F180D2A0E2A0A2AE4
:10141C000F2A1E08F200F3017208F300F2017208A1
:10142C00F4007308F500831603131E08F200F30191
:10143C007208F4047308F5047508F101F1077408D7
:10144C00F001F007292A0800F40074080A128A1522
:10145C00E3200A128A1571080A128A15A2200A12B0
:10146C008A1500300A128A15D7200A128A150D30F7
:10147C00F300FB30F200F20B412AF30B412A462A0F
:10148C0001300A128A15D7200A128A150730F30088
:10149C007D30F200F20B502AF30B502A0800FD01AC
:1014AC0083120313AF1F5B2A5C2A652AAE09AF09AE
:1014BC00AE0A0319AF0AFD010314FD0D652A2E08AF
:1014CC00F0002F08F100F2018E30FB007B08F300D6
:1014DC007D08FC007C08F4000A128A15C3240A1249
:1014EC008A15700883120313AE007108AF007208DE
:1014FC00B000802A080001300A128A15D7200A127F
:10150C008A156230F6006530F500F50B8B2AF60B68
:10151C008B2A902A3830F5007508F10000300A1239
:10152C008A152A220A128A150630F5007508F10070
:10153C0000300A128A152A220A128A150C30F5007C
:10154C007508F10000300A128A152A220A128A152F
:10155C000A128A15B7200A128A150800710870043D
:10156C000319B92ABA2AF02AF5010314F50DCA2A6F
:10157C0001300310F00DF10DFF3E031DBF2A0130A9
:10158C00F4007408F507CA2AF11FCD2ACE2ABE2A08
:10159C00D02AD02A71087302031DD62A7008720251
:1015AC00031CD92ADA2AE12A7008F2027108031CFA
:1015BC00F303F302E12A01300310F10CF00CFF3EAF
:1015CC00031DE22A0130F502031DED2AEE2AD02A72
:1015DC00F02AF02A7308F101F1077208F001F00704
:1015EC00F72A0800F501F601710870040319FF2AA7
:1015FC00002B3E2BF7010314F70D102B01300310B9
:10160C00F00DF10DFF3E031D052B0130F4007408A5
:10161C00F707102BF11F132B142B042B162B162B47
:10162C0001300310F50DF60DFF3E031D172B71084D
:10163C007302031D232B70087202031C262B272B0D
:10164C002F2B7008F2027108031CF303F3027514BC
:10165C002F2B01300310F10CF00CFF3E031D302B2F
:10166C000130F702031D3B2B3C2B162B3E2B3E2B44
:10167C007608F101F1077508F001F007452B080019
:10168C00842B780883120313FF00770884000A1256
:10169C008A1500200A128A150A3A0319562B572B61
:1016AC00662B7808FF00770884000A128A15002040
:1016BC000A128A150D3A031D642B652B6C2B662BB5
:1016CC000A128A15C1200A128A157D2B78088312FA
:1016DC000313FF00770884000A128A1500200A12EF
:1016EC008A150A128A15FB200A128A157D2B0130E5
:1016FC00F7070318F80A0030F807842B78088312D0
:10170C000313FF00770884000A128A1500200A12BE
:10171C008A150038031D932B942B472B952B08000F
:10172C00F600F401F01F9B2B9C2BA22BF009F00A66
:10173C00F4010314F40DA22BF61FA52BA62BAD2B35
:10174C00F609F60A0130F1007108F406AD2BF5012B
:10175C007008031DB22BDE2BF3010314F30DBD2B0C
:10176C000310F00D0130F1007108F307BD2B700868
:10177C00F100F201F11BF203F11FC52BC62BB62BA6
:10178C00C82BC82B0310F50D70087602031CCF2B49
:10179C00D02BD42B7008F6027514D42B0310F00C3C
:1017AC000130F302031DDB2BDC2BC82BDE2BDE2BD5
:1017BC007408031DE22BE52BF509F50AE52B7508DA
:1017CC00E72B0800F20072087F3A031DEE2BEF2B7B
:1017DC00F82B831603132108AF01AF072008AE01C5
:1017EC00AE07542C720883160313AE00AF01AE1B68
:1017FC00AF032409F0002509F100F00A0319F10ADE
:10180C002E087007A6002F0803182F0A7107A700CF
:10181C002E08A8070318A90A2F08A9072908803A37
:10182C00FF0087307F02031D1D2CD1302802031CC2
:10183C00202C212C282CD03083160313A800073021
:10184C00A9003F2C831603132908803AFF00783037
:10185C007F02031D332C303028020318362C372C12
:10186C003F2C303083160313A800F830A9003F2C0E
:10187C003F2C831603132308A501A5072208A401F6
:10188C00A4072108A301A3072008A201A2072F087F
:10189C00A101A1072E08A001A007542C0800831257
:1018AC000313A21F5A2C5B2C812C0030A600003095
:1018BC00A7008030A8002009A9002109AA0022094C
:1018CC00AB00A90A0319AA0A0319AB0A2908A6072F
:1018DC002A0803182A0F732C742CA7072B0803183B
:1018EC002B0F792C7A2CA8072608A0002708A1001A
:1018FC002808A200812CA51F842C852CAB2C003031
:10190C00A6000030A7008030A8002309A9002409F4
:10191C00AA002509AB00A90A0319AA0A0319AB0AE4
:10192C002908A6072A0803182A0F9D2C9E2CA70706
:10193C002B0803182B0FA32CA42CA8072608A300F4
:10194C002708A4002808A500AB2C8030A206803004
:10195C00A50625082202031DB92C24082102031D0B
:10196C00B92C230820020318BC2CBD2CBF2C03104F
:10197C00C22C0314C22CC22C08007308031DC72CE4
:10198C00CF2C720871047004031DCD2CCE2CE52CC9
:10199C00CF2C0030F0000030F1000030F2003D2D73
:1019AC003D2DE52C0130F5007508F30701300310CF
:1019BC00F20CF10CF00CFF3E031DDD2CE52CFE307F
:1019CC007205031DEA2CEB2CD82C032D032D0130B2
:1019DC00F5007508F3070130F007003003180130EB
:1019EC00F107003003180130F20701300310F20C3C
:1019FC00F10CF00CFF3E031DFC2CFF307205031D97
:101A0C00082D092DED2C162D162D0130F302013069
:101A1C000310F00DF10DF20DFF3E031D0E2D162DD2
:101A2C00F11F192D1A2D0B2D73181D2D1E2D242D64
:101A3C00FF30F0057F30F105FF30F2050310F30C99
:101A4C007308F500F601F70110300310F50DF60DD3
:101A5C00F70DFF3E031D2B2D7508F0047608F104DD
:101A6C007708F2047408031D3C2D3D2DF217080075
:101A7C00831203135408FF3ED5005508EA0054089E
:101A8C00593E840083138001EB018C2D0A30F00049
:101A9C000030F1005308F301F3075208F201F2078A
:101AAC000A128A15B4220A128A157008303E831263
:101ABC000313D5006B03FF3A6A07593E840055089F
:101ACC00831380000A30F0000030F1005308F3015A
:101ADC00F3075208F201F2070A128A15F8220A12C9
:101AEC008A15710883120313D301D3077008D2012E
:101AFC00D20753085204031D842D852D872D932D59
:101B0C00932D0130D5005508EB078C2D54086B0232
:101B1C00031C912D922D4C2D932D6B03FF3A6A07CC
:101B2C00593EF7000030F8000A128A1546230A12B3
:101B3C008A1583120313E901B02D20300A128A157D
:101B4C00FB200A128A15013083120313D5005508A5
:101B5C00E907B02D6B08D500D601D509D609D50AF1
:101B6C000319D60A6A085507D70056080318560AEF
:101B7C00D8005808803A803C031DC62D57086902CE
:101B8C00031CC92DCA2DA32DCB2D080083120313C2
:101B9C003508BB003608BC003708BD0003103C0DEF
:101BAC003D0DBE003E08BF00BF08031DDE2DDF2D1E
:101BBC00E72D0030B5000030B6000030B700B92E6C
:101BCC00B92E3808BB003908BC003A08BD00031018
:101BDC003C0D3D0DBE003E08C400C408031DF72D8E
:101BEC00F82D002E0030B5000030B6000030B700E4
:101BFC00B92EB92E44087B3EBB003B08BF07350805
:101C0C00BB003608BC003708BD0010300310BD0CFB
:101C1C00BC0CBB0CFF3E031D0C2E3B08BE003E084B
:101C2C00C4003808BB003908BC003A08BD001030AD
:101C3C000310BD0CBC0CBB0CFF3E031D1E2E3B0841
:101C4C00BE003E08C4068030BB003B08C405B61776
:101C5C00B917FF30B805FF30B9050030BA050030B0
:101C6C00C0000030C1000030C2000730BB003B0890
:101C7C00C300402E351C432E442E552E3808C00769
:101C8C00390803110318390A03194D2EC1073A08F4
:101C9C00031103183A0A0319542EC207552E0130AA
:101CAC000310B70CB60CB50CFF3E031D562E0130BD
:101CBC000310B80DB90DBA0DFF3E031D5E2E013099
:101CCC00C302031D6A2E6B2E402E6C2E0930BB00F6
:101CDC003B08C300712E351C742E752E862E3808C9
:101CEC00C007390803110318390A03197E2EC107DE
:101CFC003A08031103183A0A0319852EC207862ED7
:101D0C0001300310B70CB60CB50CFF3E031D872E2B
:101D1C0001300310C20CC10CC00CFF3E031D8F2EF2
:101D2C000130C302031D9B2E9C2E712E9D2E40084C
:101D3C00F0004108F1004208F2003F08BB003B08EC
:101D4C00F3004408BC003C08F4000A128A15C324B2
:101D5C000A128A15700883120313B5007108B600B5
:101D6C007208B700B92E0800831203134508CB0084
:101D7C004608CC004708CD0003104C0D4D0DCE008D
:101D8C004E08D1004808CB004908CC004A08CD00C9
:101D9C0003104C0D4D0DCE004E08D0005108031D04
:101DAC00D82EE92E500851020318DD2EDE2EF12E0E
:101DBC005103FF3A5007CB0019304B02031CE72E9E
:101DCC00E82EF12EE92E4808C5004908C6004A083D
:101DDC00C700FF2FFF2F5008031DF52E052F5108AC
:101DEC0050020318FA2EFB2E062F5003FF3A510710
:101DFC00CB0019304B02031C042F052F062FFF2F8D
:101E0C000630CB004B08CF00C71F0D2F0E2F0F2F06
:101E1C00CF17CA1F122F132F142F4F17C617FF30AF
:101E2C00C505FF30C6050030C705C917FF30C8050A
:101E3C00FF30C9050030CA05500851020318272F7E
:101E4C00282F592F292F01300310C80DC90DCA0D89
:101E5C00FF3E031D2A2F0130D002500851060319F2
:101E6C00382F392F512F0130CF024F080739031D5E
:101E7C00402F412F292F512F512F512F013003105B
:101E8C00C70CC60CC50CFF3E031D452F0130CB0003
:101E9C004B08D107512F51085006031D562F572FB1
:101EAC00442F902F902F5108500203185E2F5F2F54
:101EBC00902F602F01300310C50DC60DC70DFF3ECE
:101ECC00031D612F0130D1025008510603196F2FE9
:101EDC00702F882F0130CF024F080739031D772F41
:101EEC00782F602F882F882F882F01300310CA0C71
:101EFC00C90CC80CFF3E031D7C2F0130CB004B08D6
:101F0C00D007882F51085006031D8D2F8E2F7B2F45
:101F1C00902F902FCF1F932F942FA52FFF30C506F6
:101F2C00FF30C606FF30C7060130C5070030031866
:101F3C000130C607003003180130C707A52F4F1F0B
:101F4C00A82FA92FBA2FFF30C806FF30C906FF30C3
:101F5C00CA060130C807003003180130C907003029
:101F6C0003180130CA07BA2FCF014508C807460825
:101F7C0003110318460A0319C42FC9074708031194
:101F8C000318470A0319CB2FCA07CA1FCE2FCF2F0E
:101F9C00E32FFF30C806FF30C906FF30CA060130F8
:101FAC00C807003003180130C9070030031801308E
:101FBC00CA07CF010314CF0DE32F4808F0004908DE
:101FCC00F1004A08F2005108CB004B08F3004F080F
:101FDC00CC004C08F4000A128A15C3240A128A1584
:101FEC00700883120313C5007108C6007208C7007D
:041FFC00FF2F0800AB
:02400E00F2ECD2
:00000001FF
