:020000040000FA
:0600000074EF3EF0120057
:020006001200E6
:06000800D1EF32F01200FE
:01000E0000F1
:06001800D8EF32F01200E7
:02001E000200DE
:100020001A7D000060000000180000000E000000B3
:080030008E0000000100000039
:08003800D9CFE6FFE1CFD9FFAB
:10004000030EE126060EDF6E010EDB6A020EDB6A8E
:10005000F250800B01E0010EE76E020EE7CFDBFFEE
:10006000F250400B01E0010EE76E010EE7CFDBFF1F
:10007000F29EF29CDF06DF5002E18B8416D0FE0E6A
:10008000DBCFE6FF30EC3DF0E552000903E08DECFC
:100090003DF0F0D7E66A7AEC3DF0E552000903E066
:1000A0008DEC3DF0E7D78DEC3DF0020EDB50E8B073
:1000B000F28EE8A0F29E010EDB50E8B0F28CE8A0D0
:1000C000F29C030EE15C02E2E16AE552E16EE55268
:1000D000E7CFD9FF1200D9CFE6FFE1CFD9FF030E5A
:1000E000E126060EDF6E010EDB6A020EDB6AF250BD
:1000F000800B01E0010EE76E020EE7CFDBFFF2504E
:10010000400B01E0010EE76E010EE7CFDBFFF29E30
:10011000F29CDF06DF5002E18B8417D0FE0EDBCFAE
:10012000E6FF30EC3DF0E552000903E08DEC3DF0D8
:10013000F0D7140EE66E7AEC3DF0E552000903E0CC
:100140008DEC3DF0E6D78DEC3DF0020EDB50E8B0D3
:10015000F28EE8A0F29E010EDB50E8B0F28CE8A02F
:10016000F29C030EE15C02E2E16AE552E16EE552C7
:10017000E7CFD9FF1200D9CFE6FFE1CFD9FF040EB8
:10018000E126DE52060EDD6E020EDB6A030EDB6A2E
:10019000F250800B01E0010EE76E030EE7CFDBFFAC
:1001A000F250400B01E0010EE76E020EE7CFDBFFDD
:1001B000F29EF29C010EDB06DB5002E18B8417D02D
:1001C000FE0EDBCFE6FF30EC3DF0E552000903E028
:1001D0008DEC3DF0EFD7010EE66E7AEC3DF0E55286
:1001E000000903E08DEC3DF0E5D78DEC3DF0030E0A
:1001F000DB50E8B0F28EE8A0F29E020EDB50E8B0D1
:10020000F28CE8A0F29C040EE15C02E2E16AE552A5
:10021000E16EE552E7CFD9FF1200D9CFE6FFE1CF7B
:10022000D9FF040EE126DE52060EDD6E020EDB6AF9
:10023000030EDB6AF250800B01E0010EE76E030E45
:10024000E7CFDBFFF250400B01E0010EE76E020E3C
:10025000E7CFDBFFF29EF29C010EDB06DB5002E1F2
:100260008B8417D0FE0EDBCFE6FF30EC3DF0E5527D
:10027000000903E08DEC3DF0EFD7150EE66E7AEC49
:100280003DF0E552000903E08DEC3DF0E5D78DEC43
:100290003DF0030EDB50E8B0F28EE8A0F29E020EB5
:1002A000DB50E8B0F28CE8A0F29C040EE15C02E2C4
:1002B000E16AE552E16EE552E7CFD9FF1200D9CFEE
:1002C000E6FFE1CFD9FF030EE126060EDF6E010E39
:1002D000DB6A020EDB6AF250800B01E0010EE76E72
:1002E000020EE7CFDBFFF250400B01E0010EE76E9C
:1002F000010EE7CFDBFFF29EF29CDF06DF5002E14A
:100300008B8417D0FE0EDBCFE6FF30EC3DF0E552DC
:10031000000903E08DEC3DF0F0D7020EE66E7AECBA
:100320003DF0E552000903E08DEC3DF0E6D78DECA1
:100330003DF0020EDB50E8B0F28EE8A0F29E010E16
:10034000DB50E8B0F28CE8A0F29C030EE15C02E224
:10035000E16AE552E16EE552E7CFD9FF1200D9CF4D
:10036000E6FFE1CFD9FF030EE126060EDF6E010E98
:10037000DB6A020EDB6AF250800B01E0010EE76ED1
:10038000020EE7CFDBFFF250400B01E0010EE76EFB
:10039000010EE7CFDBFFF29EF29CDF06DF5002E1A9
:1003A0008B8417D0FE0EDBCFE6FF30EC3DF0E5523C
:1003B000000903E08DEC3DF0F0D7160EE66E7AEC06
:1003C0003DF0E552000903E08DEC3DF0E6D78DEC01
:1003D0003DF0020EDB50E8B0F28EE8A0F29E010E76
:1003E000DB50E8B0F28CE8A0F29C030EE15C02E284
:1003F000E16AE552E16EE552E7CFD9FF1200D9CFAD
:10040000E6FFE1CFD9FF040EE126DE52060EDD6ED7
:10041000020EDB6A030EDB6AF250800B01E0010E74
:10042000E76E030EE7CFDBFFF250400B01E0010E59
:10043000E76E020EE7CFDBFFF29EF29C010EDB06B9
:10044000DB5002E18B8417D0FE0EDBCFE6FF30ECF1
:100450003DF0E552000903E08DEC3DF0EFD7030ECF
:10046000E66E7AEC3DF0E552000903E08DEC3DF0DC
:10047000E5D78DEC3DF0030EDB50E8B0F28EE8A03E
:10048000F29E020EDB50E8B0F28CE8A0F29C040E63
:10049000E15C02E2E16AE552E16EE552E7CFD9FFA5
:1004A0001200D9CFE6FFE1CFD9FF040EE126DE52DC
:1004B000060EDD6E020EDB6A030EDB6AF250800B65
:1004C00001E0010EE76E030EE7CFDBFFF250400BB9
:1004D00001E0010EE76E020EE7CFDBFFF29EF29C19
:1004E000010EDB06DB5002E18B8417D0FE0EDBCF62
:1004F000E6FF30EC3DF0E552000903E08DEC3DF005
:10050000EFD7170EE66E7AEC3DF0E552000903E0F6
:100510008DEC3DF0E5D78DEC3DF0030EDB50E8B0FF
:10052000F28EE8A0F29E020EDB50E8B0F28CE8A05A
:10053000F29C040EE15C02E2E16AE552E16EE552F2
:10054000E7CFD9FF1200D9CFE6FFE1CFD9FF030EE5
:10055000E126060EDF6E010EDB6A020EDB6AF25048
:10056000800B01E0010EE76E020EE7CFDBFFF250D9
:10057000400B01E0010EE76E010EE7CFDBFFF29EBC
:10058000F29CDF06DF5002E18B8417D0FE0EDBCF3A
:10059000E6FF30EC3DF0E552000903E08DEC3DF064
:1005A000F0D7040EE66E7AEC3DF0E552000903E068
:1005B0008DEC3DF0E6D78DEC3DF0020EDB50E8B05F
:1005C000F28EE8A0F29E010EDB50E8B0F28CE8A0BB
:1005D000F29C030EE15C02E2E16AE552E16EE55253
:1005E000E7CFD9FF1200D9CFE6FFE1CFD9FF030E45
:1005F000E126060EDF6E010EDB6A020EDB6AF250A8
:10060000800B01E0010EE76E020EE7CFDBFFF25038
:10061000400B01E0010EE76E010EE7CFDBFFF29E1B
:10062000F29CDF06DF5002E18B8417D0FE0EDBCF99
:10063000E6FF30EC3DF0E552000903E08DEC3DF0C3
:10064000F0D7180EE66E7AEC3DF0E552000903E0B3
:100650008DEC3DF0E6D78DEC3DF0020EDB50E8B0BE
:10066000F28EE8A0F29E010EDB50E8B0F28CE8A01A
:10067000F29C030EE15C02E2E16AE552E16EE552B2
:10068000E7CFD9FF1200D9CFE6FFE1CFD9FF030EA4
:10069000E126060EDF6E010EDB6A020EDB6AF25007
:1006A000800B01E0010EE76E020EE7CFDBFFF25098
:1006B000400B01E0010EE76E010EE7CFDBFFF29E7B
:1006C000F29CDF06DF5002E18B8417D0FE0EDBCFF9
:1006D000E6FF30EC3DF0E552000903E08DEC3DF023
:1006E000F0D7050EE66E7AEC3DF0E552000903E026
:1006F0008DEC3DF0E6D78DEC3DF0020EDB50E8B01E
:10070000F28EE8A0F29E010EDB50E8B0F28CE8A079
:10071000F29C030EE15C02E2E16AE552E16EE55211
:10072000E7CFD9FF1200D9CFE6FFE1CFD9FF030E03
:10073000E126060EDF6E010EDB6A020EDB6AF25066
:10074000800B01E0010EE76E020EE7CFDBFFF250F7
:10075000400B01E0010EE76E010EE7CFDBFFF29EDA
:10076000F29CDF06DF5002E18B8417D0FE0EDBCF58
:10077000E6FF30EC3DF0E552000903E08DEC3DF082
:10078000F0D7190EE66E7AEC3DF0E552000903E071
:100790008DEC3DF0E6D78DEC3DF0020EDB50E8B07D
:1007A000F28EE8A0F29E010EDB50E8B0F28CE8A0D9
:1007B000F29C030EE15C02E2E16AE552E16EE55271
:1007C000E7CFD9FF1200D9CFE6FFE1CFD9FF030E63
:1007D000E126060EDF6E010EDB6A020EDB6AF250C6
:1007E000800B01E0010EE76E020EE7CFDBFFF25057
:1007F000400B01E0010EE76E010EE7CFDBFFF29E3A
:10080000F29CDF06DF5002E18B8417D0FE0EDBCFB7
:10081000E6FF30EC3DF0E552000903E08DEC3DF0E1
:10082000F0D7060EE66E7AEC3DF0E552000903E0E3
:100830008DEC3DF0E6D78DEC3DF0020EDB50E8B0DC
:10084000F28EE8A0F29E010EDB50E8B0F28CE8A038
:10085000F29C030EE15C02E2E16AE552E16EE552D0
:10086000E7CFD9FF1200D9CFE6FFE1CFD9FF030EC2
:10087000E126060EDF6E010EDB6A020EDB6AF25025
:10088000800B01E0010EE76E020EE7CFDBFFF250B6
:10089000400B01E0010EE76E010EE7CFDBFFF29E99
:1008A000F29CDF06DF5002E18B8417D0FE0EDBCF17
:1008B000E6FF30EC3DF0E552000903E08DEC3DF041
:1008C000F0D71A0EE66E7AEC3DF0E552000903E02F
:1008D0008DEC3DF0E6D78DEC3DF0020EDB50E8B03C
:1008E000F28EE8A0F29E010EDB50E8B0F28CE8A098
:1008F000F29C030EE15C02E2E16AE552E16EE55230
:10090000E7CFD9FF1200D9CFE6FFE1CFD9FF030E21
:10091000E126060EDF6E010EDB6A020EDB6AF25084
:10092000800B01E0010EE76E020EE7CFDBFFF25015
:10093000400B01E0010EE76E010EE7CFDBFFF29EF8
:10094000F29CDF06DF5002E18B8417D0FE0EDBCF76
:10095000E6FF30EC3DF0E552000903E08DEC3DF0A0
:10096000F0D7070EE66E7AEC3DF0E552000903E0A1
:100970008DEC3DF0E6D78DEC3DF0020EDB50E8B09B
:10098000F28EE8A0F29E010EDB50E8B0F28CE8A0F7
:10099000F29C030EE15C02E2E16AE552E16EE5528F
:1009A000E7CFD9FF1200D9CFE6FFE1CFD9FF030E81
:1009B000E126060EDF6E010EDB6A020EDB6AF250E4
:1009C000800B01E0010EE76E020EE7CFDBFFF25075
:1009D000400B01E0010EE76E010EE7CFDBFFF29E58
:1009E000F29CDF06DF5002E18B8417D0FE0EDBCFD6
:1009F000E6FF30EC3DF0E552000903E08DEC3DF000
:100A0000F0D71B0EE66E7AEC3DF0E552000903E0EC
:100A10008DEC3DF0E6D78DEC3DF0020EDB50E8B0FA
:100A2000F28EE8A0F29E010EDB50E8B0F28CE8A056
:100A3000F29C030EE15C02E2E16AE552E16EE552EE
:100A4000E7CFD9FF1200D9CFE6FFE1CFD9FF030EE0
:100A5000E126060EDF6E010EDB6A020EDB6AF25043
:100A6000800B01E0010EE76E020EE7CFDBFFF250D4
:100A7000400B01E0010EE76E010EE7CFDBFFF29EB7
:100A8000F29CDF06DF5002E18B8422D0FE0EDBCF2A
:100A9000E6FF30EC3DF0E552000903E08DEC3DF05F
:100AA000F0D7080EE66E7AEC3DF0E552000903E05F
:100AB0008DEC3DF0E6D7FD0EDBCFE6FF7AEC3DF0A6
:100AC000E552000903E08DEC3DF0DBD78DEC3DF005
:100AD000020EDB50E8B0F28EE8A0F29E010EDB5071
:100AE000E8B0F28CE8A0F29C030EE15C02E2E16A5D
:100AF000E552E16EE552E7CFD9FF1200D9CFE6FF0C
:100B0000E1CFD9FF030EE126060EDF6E010EDB6A90
:100B1000020EDB6AF250800B01E0010EE76E020E5E
:100B2000E7CFDBFFF250400B01E0010EE76E010E54
:100B3000E7CFDBFFF29EF29CDF06DF5002E18B8401
:100B400022D0FE0EDBCFE6FF30EC3DF0E55200098F
:100B500003E08DEC3DF0F0D71C0EE66E7AEC3DF034
:100B6000E552000903E08DEC3DF0E6D7FD0EDBCF4A
:100B7000E6FF7AEC3DF0E552000903E08DEC3DF034
:100B8000DBD78DEC3DF0020EDB50E8B0F28EE8A032
:100B9000F29E010EDB50E8B0F28CE8A0F29C030E4E
:100BA000E15C02E2E16AE552E16EE552E7CFD9FF8E
:100BB0001200D9CFE6FFE1CFD9FF030EE126060EE2
:100BC000DF6E010EDB6A020EDB6AF250800B01E081
:100BD000010EE76E020EE7CFDBFFF250400B01E0A3
:100BE000010EE76E010EE7CFDBFFF29EF29CDF06FF
:100BF000DF5002E18B8422D0FE0EDBCFE6FF30EC2B
:100C00003DF0E552000903E08DEC3DF0F0D7090E10
:100C1000E66E7AEC3DF0E552000903E08DEC3DF024
:100C2000E6D7FD0EDBCFE6FF7AEC3DF0E55200099A
:100C300003E08DEC3DF0DBD78DEC3DF0020EDB5098
:100C4000E8B0F28EE8A0F29E010EDB50E8B0F28C24
:100C5000E8A0F29C030EE15C02E2E16AE552E16E7B
:100C6000E552E7CFD9FF1200D9CFE6FFE1CFD9FF98
:100C7000030EE126060EDF6E010EDB6A020EDB6A52
:100C8000F250800B01E0010EE76E020EE7CFDBFFB2
:100C9000F250400B01E0010EE76E010EE7CFDBFFE3
:100CA000F29EF29CDF06DF5002E18B8422D0FE0E22
:100CB000DBCFE6FF30EC3DF0E552000903E08DECC0
:100CC0003DF0F0D71D0EE66E7AEC3DF0E5520009DE
:100CD00003E08DEC3DF0E6D7FD0EDBCFE6FF7AECCE
:100CE0003DF0E552000903E08DEC3DF0DBD78DECE3
:100CF0003DF0020EDB50E8B0F28EE8A0F29E010E4D
:100D0000DB50E8B0F28CE8A0F29C030EE15C02E25A
:100D1000E16AE552E16EE552E7CFD9FF1200D9CF83
:100D2000E6FFE1CFD9FF030EE126060EDF6E010ECE
:100D3000DB6A020EDB6AF250800B01E0010EE76E07
:100D4000020EE7CFDBFFF250400B01E0010EE76E31
:100D5000010EE7CFDBFFF29EF29CDF06DF5002E1DF
:100D60008B8422D0FE0EDBCFE6FF30EC3DF0E55267
:100D7000000903E08DEC3DF0F0D71F0EE66E7AEC33
:100D80003DF0E552000903E08DEC3DF0E6D7FD0EA5
:100D9000DBCFE6FF7AEC3DF0E552000903E08DEC95
:100DA0003DF0DBD78DEC3DF0020EDB50E8B0F28E6B
:100DB000E8A0F29E010EDB50E8B0F28CE8A0F29CB5
:100DC000030EE15C02E2E16AE552E16EE552E7CF33
:100DD000D9FF1200D9CFE6FFE1CFD9FF030EE126FC
:100DE000060EDF6E010EDB6A020EDB6AF250800B2C
:100DF00001E0010EE76E020EE7CFDBFFF250400B81
:100E000001E0010EE76E010EE7CFDBFFF29EF29CE0
:100E1000DF06DF5002E18B8422D0FE0EDBCFE6FF3F
:100E200030EC3DF0E552000903E08DEC3DF0F0D7E9
:100E3000200EE66E7AEC3DF0E552000903E08DEC01
:100E40003DF0E6D7FD0EDBCFE6FF7AEC3DF0E55254
:100E5000000903E08DEC3DF0DBD78DEC3DF0020E98
:100E6000DB50E8B0F28EE8A0F29E010EDB50E8B055
:100E7000F28CE8A0F29C030EE15C02E2E16AE5522A
:100E8000E16EE552E7CFD9FF1200D9CFE6FFE1CFFF
:100E9000D9FF030EE126060EDF6E010EDB6A020E9D
:100EA000DB6AF250800B01E0010EE76E020EE7CF25
:100EB000DBFFF250400B01E0010EE76E010EE7CFC1
:100EC000DBFFF29EF29CDF06DF5002E18B8422D032
:100ED000FE0EDBCFE6FF30EC3DF0E552000903E00B
:100EE0008DEC3DF0F0D71E0EE66E7AEC3DF0E5524B
:100EF000000903E08DEC3DF0E6D7FD0EDBCFE6FF09
:100F00007AEC3DF0E552000903E08DEC3DF0DBD7D3
:100F10008DEC3DF0020EDB50E8B0F28EE8A0F29EC0
:100F2000010EDB50E8B0F28CE8A0F29C030EE15C0D
:100F300002E2E16AE552E16EE552E7CFD9FF120025
:100F4000D9CFE6FFE1CFD9FF030EE126060EDF6E13
:100F5000010EDB6A020EDB6AF250800B01E0010E2B
:100F6000E76E020EE7CFDBFFF250400B01E0010E0F
:100F7000E76E010EE7CFDBFFF29EF29CDF06DF504B
:100F800002E18B8417D0FE0EDBCFE6FF30EC3DF0A4
:100F9000E552000903E08DEC3DF0F0D7290EE66E36
:100FA0007AEC3DF0E552000903E08DEC3DF0E6D728
:100FB0008DEC3DF0020EDB50E8B0F28EE8A0F29E20
:100FC000010EDB50E8B0F28CE8A0F29C030EE15C6D
:100FD00002E2E16AE552E16EE552E7CFD9FF120085
:100FE000D9CFE6FFE1CFD9FF030EE126060EDF6E73
:100FF000010EDB6A020EDB6AF250800B01E0010E8B
:10100000E76E020EE7CFDBFFF250400B01E0010E6E
:10101000E76E010EE7CFDBFFF29EF29CDF06DF50AA
:1010200002E18B8417D0FE0EDBCFE6FF30EC3DF003
:10103000E552000903E08DEC3DF0F0D72A0EE66E94
:101040007AEC3DF0E552000903E08DEC3DF0E6D787
:101050008DEC3DF0020EDB50E8B0F28EE8A0F29E7F
:10106000010EDB50E8B0F28CE8A0F29C030EE15CCC
:1010700002E2E16AE552E16EE552E7CFD9FF1200E4
:10108000D9CFE6FFE1CFD9FF060EE126F36E030EBE
:10109000F3CFDBFF040EDB6A050EDB6AF250800B38
:1010A00001E0010EE76E050EE7CFDBFFF250400BCB
:1010B00001E0010EE76E040EE7CFDBFFF29EF29C2B
:1010C000FA0EDB50E76E020EE7CFDBFFFA0EDBCF46
:1010D00000F0FB0EDBCF01F0FC0EDBCF02F0FD0ECB
:1010E000DBCF03F0080ED890033202320132003217
:1010F000E806F9E1010E00C0DBFFFA0EDBCF00F0DD
:10110000FB0EDBCF01F0FC0EDBCF02F0FD0EDBCFE0
:1011100003F0100ED8900332023201320032E8069A
:10112000F9E10050DF6E030EDB06DB5002E18B8439
:1011300058D0FE0EDBCFE6FF30EC3DF0E552000963
:1011400003E08DEC3DF0EFD7330EE66E7AEC3DF028
:10115000E552000903E08DEC3DF0E5D7DFCFE6FF77
:101160007AEC3DF0E552000903E08DEC3DF0DBD771
:10117000010EDBCFE6FF7AEC3DF0E552000903E01B
:101180008DEC3DF0D0D7020EDBCFE6FF7AEC3DF0E0
:10119000E552000903E08DEC3DF0C5D7F90EDBCF39
:1011A000E6FF7AEC3DF0E552000903E08DEC3DF0FE
:1011B000BAD7F80EDBCFE6FF7AEC3DF0E552000936
:1011C00003E08DEC3DF0AFD7F70EDBCFE6FF7AEC16
:1011D0003DF0E552000903E08DEC3DF0A4D78DEC25
:1011E0003DF0050EDB50E8B0F28EE8A0F29E040E52
:1011F000DB50E8B0F28CE8A0F29C060EE15C02E263
:10120000E16AE552E16EE552E7CFD9FF1200D9CF8E
:10121000E6FFE1CFD9FF060EE126F36E030EF3CF12
:10122000DBFF040EDB6A050EDB6AF250800B01E087
:10123000010EE76E050EE7CFDBFFF250400B01E039
:10124000010EE76E040EE7CFDBFFF29EF29CFA0E72
:10125000DB50E76E020EE7CFDBFFFA0EDBCF00F0CC
:10126000FB0EDBCF01F0FC0EDBCF02F0FD0EDBCF7F
:1012700003F0080ED8900332023201320032E80641
:10128000F9E1010E00C0DBFFFA0EDBCF00F0FB0E30
:10129000DBCF01F0FC0EDBCF02F0FD0EDBCF03F065
:1012A000100ED8900332023201320032E806F9E122
:1012B0000050DF6E030EDB06DB5002E18B8458D05A
:1012C000FE0EDBCFE6FF30EC3DF0E552000903E017
:1012D0008DEC3DF0EFD7340EE66E7AEC3DF0E55242
:1012E000000903E08DEC3DF0E5D7DFCFE6FF7AECB7
:1012F0003DF0E552000903E08DEC3DF0DBD7010E37
:10130000DBCFE6FF7AEC3DF0E552000903E08DEC1F
:101310003DF0D0D7020EDBCFE6FF7AEC3DF0E55290
:10132000000903E08DEC3DF0C5D7F90EDBCFE6FFF9
:101330007AEC3DF0E552000903E08DEC3DF0BAD7C0
:10134000F80EDBCFE6FF7AEC3DF0E552000903E052
:101350008DEC3DF0AFD7F70EDBCFE6FF7AEC3DF03A
:10136000E552000903E08DEC3DF0A4D78DEC3DF093
:10137000050EDB50E8B0F28EE8A0F29E040EDB50C2
:10138000E8B0F28CE8A0F29C060EE15C02E2E16AB1
:10139000E552E16EE552E7CFD9FF1200D9CFE6FF63
:1013A000E1CFD9FF080EE126DE6ADE6ADE6ADD6A79
:1013B000DD52DD52060EF36E040EF3CFDBFF060E98
:1013C000DB6A070EDB6AF250800B01E0010EE76E6C
:1013D000070EE7CFDBFFF250400B01E0010EE76E96
:1013E000060EE7CFDBFFF29EF29C040EDB06DB501D
:1013F00002E18B84BBD0FE0EDBCFE6FF30EC3DF08C
:10140000E552000903E08DEC3DF0EFD7650EE66E86
:101410007AEC3DF0E552000903E08DEC3DF0E5D7B4
:101420008DEC3DF0FE0EDBCFE6FF55EC3DF0E552D6
:10143000000903E08DEC3DF0D8D793EC3DF0E76E6A
:10144000050EE7CFDBFFDBCF00F0000E00C0DFFFB3
:10145000010EDB6A020EDB6A030EDB6AD9CFE9FFFD
:10146000DACFEAFFEECF00F0EECF01F0EECF02F0E0
:10147000EFCF03F0080E1F0B07E0D89000360136BF
:1014800002360336E806F9E100C0DFFF010E01C0B5
:10149000DBFF020E02C0DBFF030E03C0DBFF93EC99
:1014A0003DF0E76E050EE7CFDBFFDBCF00F0016A12
:1014B000026A036AD9CFE9FFDACFEAFFEE500012E1
:1014C000EE500112EE500212EE50031200C0DFFF88
:1014D000010E01C0DBFF020E02C0DBFF030E03C0E2
:1014E000DBFFD9CFE9FFDACFEAFFEECF00F0EECF96
:1014F00001F0EECF02F0EFCF03F0080E1F0B07E074
:10150000D8900036013602360336E806F9E100C00D
:10151000DFFF010E01C0DBFF020E02C0DBFF030E86
:1015200003C0DBFFAAEC3DF0E76E050EE7CFDBFF63
:10153000DBCF00F0016A026A036AD9CFE9FFDACF94
:10154000EAFFEE500012EE500112EE500212EE5081
:10155000031200C0DFFF010E01C0DBFF020E02C05C
:10156000DBFF030E03C0DBFF8DEC3DF0070EDB500D
:10157000E8B0F28EE8A0F29E060EDB50E8B0F28CE6
:10158000E8A0F29CDECF20F0DECF21F0DECF22F00B
:10159000DDCF23F0DD52DD52080EE15C03E200D026
:1015A000E16AE552E16EE552E7CFD9FF1200D9CFEB
:1015B000E6FFE1CFD9FF080EE126DE6ADE6ADE6AC9
:1015C000DD6ADD52DD52060EF36E040EF3CFDBFF53
:1015D000060EDB6A070EDB6AF250800B01E0010E9B
:1015E000E76E070EE7CFDBFFF250400B01E0010E84
:1015F000E76E060EE7CFDBFFF29EF29C040EDB06E1
:10160000DB5002E18B84BBD0FE0EDBCFE6FF30EC7B
:101610003DF0E552000903E08DEC3DF0EFD7660E9A
:10162000E66E7AEC3DF0E552000903E08DEC3DF00A
:10163000E5D78DEC3DF0FE0EDBCFE6FF55EC3DF03F
:10164000E552000903E08DEC3DF0D8D793EC3DF076
:10165000E76E050EE7CFDBFFDBCF00F0000E00C02A
:10166000DFFF010EDB6A020EDB6A030EDB6AD9CFF5
:10167000E9FFDACFEAFFEECF00F0EECF01F0EECFD8
:1016800002F0EFCF03F0080E1F0B07E0D8900036F2
:10169000013602360336E806F9E100C0DFFF010E2D
:1016A00001C0DBFF020E02C0DBFF030E03C0DBFF45
:1016B00093EC3DF0E76E050EE7CFDBFFDBCF00F0EC
:1016C000016A026A036AD9CFE9FFDACFEAFFEE5076
:1016D0000012EE500112EE500212EE50031200C042
:1016E000DFFF010E01C0DBFF020E02C0DBFF030EB5
:1016F00003C0DBFFD9CFE9FFDACFEAFFEECF00F07E
:10170000EECF01F0EECF02F0EFCF03F0080E1F0B8B
:1017100007E0D8900036013602360336E806F9E1D4
:1017200000C0DFFF010E01C0DBFF020E02C0DBFFC5
:10173000030E03C0DBFFAAEC3DF0E76E050EE7CF1A
:10174000DBFFDBCF00F0016A026A036AD9CFE9FF51
:10175000DACFEAFFEE500012EE500112EE50021204
:10176000EE50031200C0DFFF010E01C0DBFF020ECE
:1017700002C0DBFF030E03C0DBFF8DEC3DF0070E64
:10178000DB50E8B0F28EE8A0F29E060EDB50E8B027
:10179000F28CE8A0F29CDECF20F0DECF21F0DECF8D
:1017A00022F0DDCF23F0DD52DD52080EE15C03E2D2
:1017B00000D0E16AE552E16EE552E7CFD9FF1200B1
:1017C000D9CFE6FFE1CFD9FF040EE126060EDF6E8A
:1017D000020EDB6A030EDB6AF250800B01E0010EA1
:1017E000E76E030EE7CFDBFFF250400B01E0010E86
:1017F000E76E020EE7CFDBFFF29EF29CDF06DF50C2
:1018000002E18B842AD0FE0EDBCFE6FF30EC3DF008
:10181000E552000903E08DEC3DF0F0D7790EE66E5D
:101820007AEC3DF0E552000903E08DEC3DF0E6D79F
:101830008DEC3DF0FE0EDBCFE6FF55EC3DF0E552C2
:10184000000903E08DEC3DF0D9D7AAEC3DF0E76E3E
:10185000010EE7CFDBFF8DEC3DF0030EDB50E8B06F
:10186000F28EE8A0F29E020EDB50E8B0F28CE8A007
:10187000F29C010EDB50006E040EE15C03E200D02E
:10188000E16AE552E16E0050E552E7CFD9FF120060
:10189000D9CFE6FFE1CFD9FF040EE126060EDF6EB9
:1018A000020EDB6A030EDB6AF250800B01E0010ED0
:1018B000E76E030EE7CFDBFFF250400B01E0010EB5
:1018C000E76E020EE7CFDBFFF29EF29CDF06DF50F1
:1018D00002E18B842AD0FE0EDBCFE6FF30EC3DF038
:1018E000E552000903E08DEC3DF0F0D77A0EE66E8C
:1018F0007AEC3DF0E552000903E08DEC3DF0E6D7CF
:101900008DEC3DF0FE0EDBCFE6FF55EC3DF0E552F1
:10191000000903E08DEC3DF0D9D7AAEC3DF0E76E6D
:10192000010EE7CFDBFF8DEC3DF0030EDB50E8B09E
:10193000F28EE8A0F29E020EDB50E8B0F28CE8A036
:10194000F29C010EDB50006E040EE15C03E200D05D
:10195000E16AE552E16E0050E552E7CFD9FF12008F
:10196000D9CFE6FFE1CFD9FF040EE126060EDF6EE8
:10197000020EDB6A030EDB6AF250800B01E0010EFF
:10198000E76E030EE7CFDBFFF250400B01E0010EE4
:10199000E76E020EE7CFDBFFF29EF29CDF06DF5020
:1019A00002E18B842AD0FE0EDBCFE6FF30EC3DF067
:1019B000E552000903E08DEC3DF0F0D7830EE66EB2
:1019C0007AEC3DF0E552000903E08DEC3DF0E6D7FE
:1019D0008DEC3DF0FE0EDBCFE6FF55EC3DF0E55221
:1019E000000903E08DEC3DF0D9D7AAEC3DF0E76E9D
:1019F000010EE7CFDBFF8DEC3DF0030EDB50E8B0CE
:101A0000F28EE8A0F29E020EDB50E8B0F28CE8A065
:101A1000F29C010EDB50006E040EE15C03E200D08C
:101A2000E16AE552E16E0050E552E7CFD9FF1200BE
:101A3000D9CFE6FFE1CFD9FF040EE126060EDF6E17
:101A4000020EDB6A030EDB6AF250800B01E0010E2E
:101A5000E76E030EE7CFDBFFF250400B01E0010E13
:101A6000E76E020EE7CFDBFFF29EF29CDF06DF504F
:101A700002E18B842AD0FE0EDBCFE6FF30EC3DF096
:101A8000E552000903E08DEC3DF0F0D7840EE66EE0
:101A90007AEC3DF0E552000903E08DEC3DF0E6D72D
:101AA0008DEC3DF0FE0EDBCFE6FF55EC3DF0E55250
:101AB000000903E08DEC3DF0D9D7AAEC3DF0E76ECC
:101AC000010EE7CFDBFF8DEC3DF0030EDB50E8B0FD
:101AD000F28EE8A0F29E020EDB50E8B0F28CE8A095
:101AE000F29C010EDB50006E040EE15C03E200D0BC
:101AF000E16AE552E16E0050E552E7CFD9FF1200EE
:101B0000D9CFE6FFE1CFD9FF040EE126060EDF6E46
:101B1000020EDB6A030EDB6AF250800B01E0010E5D
:101B2000E76E030EE7CFDBFFF250400B01E0010E42
:101B3000E76E020EE7CFDBFFF29EF29CDF06DF507E
:101B400002E18B842AD0FE0EDBCFE6FF30EC3DF0C5
:101B5000E552000903E08DEC3DF0F0D78D0EE66E06
:101B60007AEC3DF0E552000903E08DEC3DF0E6D75C
:101B70008DEC3DF0FE0EDBCFE6FF55EC3DF0E5527F
:101B8000000903E08DEC3DF0D9D7AAEC3DF0E76EFB
:101B9000010EE7CFDBFF8DEC3DF0030EDB50E8B02C
:101BA000F28EE8A0F29E020EDB50E8B0F28CE8A0C4
:101BB000F29C010EDB50006E040EE15C03E200D0EB
:101BC000E16AE552E16E0050E552E7CFD9FF12001D
:101BD000D9CFE6FFE1CFD9FF040EE126060EDF6E76
:101BE000020EDB6A030EDB6AF250800B01E0010E8D
:101BF000E76E030EE7CFDBFFF250400B01E0010E72
:101C0000E76E020EE7CFDBFFF29EF29CDF06DF50AD
:101C100002E18B842AD0FE0EDBCFE6FF30EC3DF0F4
:101C2000E552000903E08DEC3DF0F0D78E0EE66E34
:101C30007AEC3DF0E552000903E08DEC3DF0E6D78B
:101C40008DEC3DF0FE0EDBCFE6FF55EC3DF0E552AE
:101C5000000903E08DEC3DF0D9D7AAEC3DF0E76E2A
:101C6000010EE7CFDBFF8DEC3DF0030EDB50E8B05B
:101C7000F28EE8A0F29E020EDB50E8B0F28CE8A0F3
:101C8000F29C010EDB50006E040EE15C03E200D01A
:101C9000E16AE552E16E0050E552E7CFD9FF12004C
:101CA000D9CFE6FFE1CFD9FF040EE126060EDF6EA5
:101CB000020EDB6A030EDB6AF250800B01E0010EBC
:101CC000E76E030EE7CFDBFFF250400B01E0010EA1
:101CD000E76E020EE7CFDBFFF29EF29CDF06DF50DD
:101CE00002E18B842AD0FE0EDBCFE6FF30EC3DF024
:101CF000E552000903E08DEC3DF0F0D7970EE66E5B
:101D00007AEC3DF0E552000903E08DEC3DF0E6D7BA
:101D10008DEC3DF0FE0EDBCFE6FF55EC3DF0E552DD
:101D2000000903E08DEC3DF0D9D7AAEC3DF0E76E59
:101D3000010EE7CFDBFF8DEC3DF0030EDB50E8B08A
:101D4000F28EE8A0F29E020EDB50E8B0F28CE8A022
:101D5000F29C010EDB50006E040EE15C03E200D049
:101D6000E16AE552E16E0050E552E7CFD9FF12007B
:101D7000D9CFE6FFE1CFD9FF040EE126060EDF6ED4
:101D8000020EDB6A030EDB6AF250800B01E0010EEB
:101D9000E76E030EE7CFDBFFF250400B01E0010ED0
:101DA000E76E020EE7CFDBFFF29EF29CDF06DF500C
:101DB00002E18B842AD0FE0EDBCFE6FF30EC3DF053
:101DC000E552000903E08DEC3DF0F0D7980EE66E89
:101DD0007AEC3DF0E552000903E08DEC3DF0E6D7EA
:101DE0008DEC3DF0FE0EDBCFE6FF55EC3DF0E5520D
:101DF000000903E08DEC3DF0D9D7AAEC3DF0E76E89
:101E0000010EE7CFDBFF8DEC3DF0030EDB50E8B0B9
:101E1000F28EE8A0F29E020EDB50E8B0F28CE8A051
:101E2000F29C010EDB50006E040EE15C03E200D078
:101E3000E16AE552E16E0050E552E7CFD9FF1200AA
:101E4000D9CFE6FFE1CFD9FF030EE126060EDF6E04
:101E5000010EDB6A020EDB6AF250800B01E0010E1C
:101E6000E76E020EE7CFDBFFF250400B01E0010E00
:101E7000E76E010EE7CFDBFFF29EF29CDF06DF503C
:101E800002E18B8417D0FE0EDBCFE6FF30EC3DF095
:101E9000E552000903E08DEC3DF0F0D73D0EE66E13
:101EA0007AEC3DF0E552000903E08DEC3DF0E6D719
:101EB0008DEC3DF0020EDB50E8B0F28EE8A0F29E11
:101EC000010EDB50E8B0F28CE8A0F29C030EE15C5E
:101ED00002E2E16AE552E16EE552E7CFD9FF120076
:101EE000D9CFE6FFE1CFD9FF030EE126060EDF6E64
:101EF000010EDB6A020EDB6AF250800B01E0010E7C
:101F0000E76E020EE7CFDBFFF250400B01E0010E5F
:101F1000E76E010EE7CFDBFFF29EF29CDF06DF509B
:101F200002E18B8417D0FE0EDBCFE6FF30EC3DF0F4
:101F3000E552000903E08DEC3DF0F0D73E0EE66E71
:101F40007AEC3DF0E552000903E08DEC3DF0E6D778
:101F50008DEC3DF0020EDB50E8B0F28EE8A0F29E70
:101F6000010EDB50E8B0F28CE8A0F29C030EE15CBD
:101F700002E2E16AE552E16EE552E7CFD9FF1200D5
:101F8000D9CFE6FFE1CFD9FF030EE126060EDF6EC3
:101F9000010EDB6A020EDB6AF250800B01E0010EDB
:101FA000E76E020EE7CFDBFFF250400B01E0010EBF
:101FB000E76E010EE7CFDBFFF29EF29CDF06DF50FB
:101FC00002E18B8417D0FE0EDBCFE6FF30EC3DF054
:101FD000E552000903E08DEC3DF0F0D7010EE66E0E
:101FE0007AEC3DF0E552000903E08DEC3DF0E6D7D8
:101FF0008DEC3DF0020EDB50E8B0F28EE8A0F29ED0
:10200000010EDB50E8B0F28CE8A0F29C030EE15C1C
:1020100002E2E16AE552E16EE552E7CFD9FF120034
:10202000D9CFE6FFE1CFD9FF030EE126060EDF6E22
:10203000010EDB6A020EDB6AF250800B01E0010E3A
:10204000E76E020EE7CFDBFFF250400B01E0010E1E
:10205000E76E010EE7CFDBFFF29EF29CDF06DF505A
:1020600002E18B8417D0FE0EDBCFE6FF30EC3DF0B3
:10207000E552000903E08DEC3DF0F0D7020EE66E6C
:102080007AEC3DF0E552000903E08DEC3DF0E6D737
:102090008DEC3DF0020EDB50E8B0F28EE8A0F29E2F
:1020A000010EDB50E8B0F28CE8A0F29C030EE15C7C
:1020B00002E2E16AE552E16EE552E7CFD9FF120094
:1020C000D9CFE6FFE1CFD9FF030EE126060EDF6E82
:1020D000010EDB6A020EDB6AF250800B01E0010E9A
:1020E000E76E020EE7CFDBFFF250400B01E0010E7E
:1020F000E76E010EE7CFDBFFF29EF29CDF06DF50BA
:1021000002E18B8417D0FE0EDBCFE6FF30EC3DF012
:10211000E552000903E08DEC3DF0F0D7030EE66ECA
:102120007AEC3DF0E552000903E08DEC3DF0E6D796
:102130008DEC3DF0020EDB50E8B0F28EE8A0F29E8E
:10214000010EDB50E8B0F28CE8A0F29C030EE15CDB
:1021500002E2E16AE552E16EE552E7CFD9FF1200F3
:10216000D9CFE6FFE1CFD9FF030EE126060EDF6EE1
:10217000010EDB6A020EDB6AF250800B01E0010EF9
:10218000E76E020EE7CFDBFFF250400B01E0010EDD
:10219000E76E010EE7CFDBFFF29EF29CDF06DF5019
:1021A00002E18B8417D0FE0EDBCFE6FF30EC3DF072
:1021B000E552000903E08DEC3DF0F0D7040EE66E29
:1021C0007AEC3DF0E552000903E08DEC3DF0E6D7F6
:1021D0008DEC3DF0020EDB50E8B0F28EE8A0F29EEE
:1021E000010EDB50E8B0F28CE8A0F29C030EE15C3B
:1021F00002E2E16AE552E16EE552E7CFD9FF120053
:10220000D9CFE6FFE1CFD9FF030EE126060EDF6E40
:10221000010EDB6A020EDB6AF250800B01E0010E58
:10222000E76E020EE7CFDBFFF250400B01E0010E3C
:10223000E76E010EE7CFDBFFF29EF29CDF06DF5078
:1022400002E18B8422D0FE0EDBCFE6FF30EC3DF0C6
:10225000E552000903E08DEC3DF0F0D7050EE66E87
:102260007AEC3DF0E552000903E08DEC3DF0E6D755
:10227000FD0EDBCFE6FF7AEC3DF0E552000903E00E
:102280008DEC3DF0DBD78DEC3DF0020EDB50E8B07D
:10229000F28EE8A0F29E010EDB50E8B0F28CE8A0CE
:1022A000F29C030EE15C02E2E16AE552E16EE55266
:1022B000E7CFD9FF1200D9CFE6FFE1CFD9FF030E58
:1022C000E126060EDF6E010EDB6A020EDB6AF250BB
:1022D000800B01E0010EE76E020EE7CFDBFFF2504C
:1022E000400B01E0010EE76E010EE7CFDBFFF29E2F
:1022F000F29CDF06DF5002E18B8422D0FE0EDBCFA2
:10230000E6FF30EC3DF0E552000903E08DEC3DF0D6
:10231000F0D7060EE66E7AEC3DF0E552000903E0D8
:102320008DEC3DF0E6D7FD0EDBCFE6FF7AEC3DF01D
:10233000E552000903E08DEC3DF0DBD78DEC3DF07C
:10234000020EDB50E8B0F28EE8A0F29E010EDB50E8
:10235000E8B0F28CE8A0F29C030EE15C02E2E16AD4
:10236000E552E16EE552E7CFD9FF1200D9CFE6FF83
:10237000E1CFD9FF030EE126060EDF6E010EDB6A08
:10238000020EDB6AF250800B01E0010EE76E020ED6
:10239000E7CFDBFFF250400B01E0010EE76E010ECC
:1023A000E7CFDBFFF29EF29CDF06DF5002E18B8479
:1023B00017D0FE0EDBCFE6FF30EC3DF0E552000912
:1023C00003E08DEC3DF0F0D7070EE66E7AEC3DF0C1
:1023D000E552000903E08DEC3DF0E6D78DEC3DF0D1
:1023E000020EDB50E8B0F28EE8A0F29E010EDB5048
:1023F000E8B0F28CE8A0F29C030EE15C02E2E16A34
:10240000E552E16EE552E7CFD9FF1200D9CFE6FFE2
:10241000E1CFD9FF030EE126060EDF6E010EDB6A67
:10242000020EDB6AF250800B01E0010EE76E020E35
:10243000E7CFDBFFF250400B01E0010EE76E010E2B
:10244000E7CFDBFFF29EF29CDF06DF5002E18B84D8
:1024500017D0FE0EDBCFE6FF30EC3DF0E552000971
:1024600003E08DEC3DF0F0D7080EE66E7AEC3DF01F
:10247000E552000903E08DEC3DF0E6D78DEC3DF030
:10248000020EDB50E8B0F28EE8A0F29E010EDB50A7
:10249000E8B0F28CE8A0F29C030EE15C02E2E16A93
:1024A000E552E16EE552E7CFD9FF1200D9CFE6FF42
:1024B000E1CFD9FF030EE126060EDF6E010EDB6AC7
:1024C000020EDB6AF250800B01E0010EE76E020E95
:1024D000E7CFDBFFF250400B01E0010EE76E010E8B
:1024E000E7CFDBFFF29EF29CDF06DF5002E18B8438
:1024F00017D0FE0EDBCFE6FF30EC3DF0E5520009D1
:1025000003E08DEC3DF0F0D7090EE66E7AEC3DF07D
:10251000E552000903E08DEC3DF0E6D78DEC3DF08F
:10252000020EDB50E8B0F28EE8A0F29E010EDB5006
:10253000E8B0F28CE8A0F29C030EE15C02E2E16AF2
:10254000E552E16EE552E7CFD9FF1200D9CFE6FFA1
:10255000E1CFD9FF030EE126060EDF6E010EDB6A26
:10256000020EDB6AF250800B01E0010EE76E020EF4
:10257000E7CFDBFFF250400B01E0010EE76E010EEA
:10258000E7CFDBFFF29EF29CDF06DF5002E18B8497
:1025900017D0FE0EDBCFE6FF30EC3DF0E552000930
:1025A00003E08DEC3DF0F0D70A0EE66E7AEC3DF0DC
:1025B000E552000903E08DEC3DF0E6D78DEC3DF0EF
:1025C000020EDB50E8B0F28EE8A0F29E010EDB5066
:1025D000E8B0F28CE8A0F29C030EE15C02E2E16A52
:1025E000E552E16EE552E7CFD9FF1200D9CFE6FF01
:1025F000E1CFD9FF050EE126060EDF6E030EDB6A82
:10260000040EDB6AF250800B01E0010EE76E040E4F
:10261000E7CFDBFFF250400B01E0010EE76E030E47
:10262000E7CFDBFFF29EF29CFC0EDB50E76E020E62
:10263000E7CFDBFFFC0EDBCF00F0FD0EDBCF01F0C0
:1026400001C000F0016A010E00C0DBFFDF06DF50B1
:1026500002E18B844ED0FE0EDBCFE6FF30EC3DF086
:10266000E552000903E08DEC3DF0F0D70B0EE66E6D
:102670007AEC3DF0E552000903E08DEC3DF0E6D741
:10268000010EDBCFE6FF7AEC3DF0E552000903E0F6
:102690008DEC3DF0DBD7020EDBCFE6FF7AEC3DF0B0
:1026A000E552000903E08DEC3DF0D0D7FB0EDBCF07
:1026B000E6FF7AEC3DF0E552000903E08DEC3DF0D9
:1026C000C5D7FA0EDBCFE6FF7AEC3DF0E552000904
:1026D00003E08DEC3DF0BAD7F90EDBCFE6FF7AECE4
:1026E0003DF0E552000903E08DEC3DF0AFD78DECF5
:1026F0003DF0040EDB50E8B0F28EE8A0F29E030E2F
:10270000DB50E8B0F28CE8A0F29C050EE15C02E23E
:10271000E16AE552E16EE552E7CFD9FF1200D9CF69
:10272000E6FFE1CFD9FF050EE126060EDF6E030EB0
:10273000DB6A040EDB6AF250800B01E0010EE76EEB
:10274000040EE7CFDBFFF250400B01E0010EE76E15
:10275000030EE7CFDBFFF29EF29CFC0EDB50E76E30
:10276000020EE7CFDBFFFC0EDBCF00F0FD0EDBCF70
:1027700001F001C000F0016A010E00C0DBFFDF06BE
:10278000DF5002E18B844ED0FE0EDBCFE6FF30EC53
:102790003DF0E552000903E08DEC3DF0F0D70C0E62
:1027A000E66E7AEC3DF0E552000903E08DEC3DF079
:1027B000E6D7010EDBCFE6FF7AEC3DF0E5520009EB
:1027C00003E08DEC3DF0DBD7020EDBCFE6FF7AECC9
:1027D0003DF0E552000903E08DEC3DF0D0D7FB0E53
:1027E000DBCFE6FF7AEC3DF0E552000903E08DEC2B
:1027F0003DF0C5D7FA0EDBCFE6FF7AEC3DF0E552AF
:10280000000903E08DEC3DF0BAD7F90EDBCFE6FF0F
:102810007AEC3DF0E552000903E08DEC3DF0AFD7D6
:102820008DEC3DF0040EDB50E8B0F28EE8A0F29E95
:10283000030EDB50E8B0F28CE8A0F29C050EE15CE0
:1028400002E2E16AE552E16EE552E7CFD9FF1200FC
:10285000D9CFE6FFE1CFD9FF030EE126060EDF6EEA
:10286000010EDB6A020EDB6AF250800B01E0010E02
:10287000E76E020EE7CFDBFFF250400B01E0010EE6
:10288000E76E010EE7CFDBFFF29EF29CDF06DF5022
:1028900002E18B8417D0FE0EDBCFE6FF30EC3DF07B
:1028A000E552000903E08DEC3DF0F0D70D0EE66E29
:1028B0007AEC3DF0E552000903E08DEC3DF0E6D7FF
:1028C0008DEC3DF0020EDB50E8B0F28EE8A0F29EF7
:1028D000010EDB50E8B0F28CE8A0F29C030EE15C44
:1028E00002E2E16AE552E16EE552E7CFD9FF12005C
:1028F000D9CFE6FFE1CFD9FF030EE126060EDF6E4A
:10290000010EDB6A020EDB6AF250800B01E0010E61
:10291000E76E020EE7CFDBFFF250400B01E0010E45
:10292000E76E010EE7CFDBFFF29EF29CDF06DF5081
:1029300002E18B8417D0FE0EDBCFE6FF30EC3DF0DA
:10294000E552000903E08DEC3DF0F0D70E0EE66E87
:102950007AEC3DF0E552000903E08DEC3DF0E6D75E
:102960008DEC3DF0020EDB50E8B0F28EE8A0F29E56
:10297000010EDB50E8B0F28CE8A0F29C030EE15CA3
:1029800002E2E16AE552E16EE552E7CFD9FF1200BB
:10299000D9CFE6FFE1CFD9FF070EE126060EDF6EA5
:1029A000010EDB6A020EDB6A030EDB6A040EDB6AD1
:1029B000050EDB6A060EDB6AF250800B01E0010EA9
:1029C000E76E060EE7CFDBFFF250400B01E0010E91
:1029D000E76E050EE7CFDBFFF29EF29CDF06DF50CD
:1029E00002E18B8430D0FE0EDBCFE6FF30EC3DF011
:1029F000E552000903E08DEC3DF0F0D70F0EE66ED6
:102A00007AEC3DF0E552000903E08DEC3DF0E6D7AD
:102A10008DEC3DF0FE0EDBCFE6FF55EC3DF0E552D0
:102A2000000903E08DEC3DF0D9D793EC3DF0E76E63
:102A3000010EE7CFDBFFAAEC3DF0E76E020EE7CF19
:102A4000DBFF8DEC3DF0010EDB50E66ED950030F3D
:102A5000E96EDACFEAFFE552E750EE6EED6A030E5B
:102A6000DBCF00F0040EDBCF01F000C001F0006A04
:102A7000030E00C0DBFF040E01C0DBFF020EDB50C3
:102A8000E76E030EDBCF00F0040EDBCF01F0E75062
:102A90000012030E00C0DBFF040E01C0DBFF060EB8
:102AA000DB50E8B0F28EE8A0F29E050EDB50E8B0F5
:102AB000F28CE8A0F29C030EDBCF00F0040EDBCF1B
:102AC00001F000C0F3FF01C0F4FF070EE15C03E278
:102AD00000D0E16AE552E16EE552E7CFD9FF12007E
:102AE000D9CFE6FFE1CFD9FF070EE126060EDF6E54
:102AF000010EDB6A020EDB6A030EDB6A040EDB6A80
:102B0000050EDB6A060EDB6AF250800B01E0010E57
:102B1000E76E060EE7CFDBFFF250400B01E0010E3F
:102B2000E76E050EE7CFDBFFF29EF29CDF06DF507B
:102B300002E18B8430D0FE0EDBCFE6FF30EC3DF0BF
:102B4000E552000903E08DEC3DF0F0D7100EE66E83
:102B50007AEC3DF0E552000903E08DEC3DF0E6D75C
:102B60008DEC3DF0FE0EDBCFE6FF55EC3DF0E5527F
:102B7000000903E08DEC3DF0D9D793EC3DF0E76E12
:102B8000010EE7CFDBFFAAEC3DF0E76E020EE7CFC8
:102B9000DBFF8DEC3DF0010EDB50E66ED950030FEC
:102BA000E96EDACFEAFFE552E750EE6EED6A030E0A
:102BB000DBCF00F0040EDBCF01F000C001F0006AB3
:102BC000030E00C0DBFF040E01C0DBFF020EDB5072
:102BD000E76E030EDBCF00F0040EDBCF01F0E75011
:102BE0000012030E00C0DBFF040E01C0DBFF060E67
:102BF000DB50E8B0F28EE8A0F29E050EDB50E8B0A4
:102C0000F28CE8A0F29C030EDBCF00F0040EDBCFC9
:102C100001F000C0F3FF01C0F4FF070EE15C03E226
:102C200000D0E16AE552E16EE552E7CFD9FF12002C
:102C3000D9CFE6FFE1CFD9FF040EE126060EDF6E05
:102C4000010EDB6A020EDB6A030EDB6AF250800BB8
:102C500001E0010EE76E030EE7CFDBFFF250400B01
:102C600001E0010EE76E020EE7CFDBFFF29EF29C61
:102C7000DF06DF5002E18B842AD0FE0EDBCFE6FFB9
:102C800030EC3DF0E552000903E08DEC3DF0F0D76B
:102C9000110EE66E7AEC3DF0E552000903E08DEC92
:102CA0003DF0E6D78DEC3DF0FE0EDBCFE6FF55ECB8
:102CB0003DF0E552000903E08DEC3DF0D9D7AAECD8
:102CC0003DF0E76E010EE7CFDBFF8DEC3DF0030E2C
:102CD000DB50E8B0F28EE8A0F29E020EDB50E8B0C6
:102CE000F28CE8A0F29C010EDB50006E040EE15C59
:102CF00003E200D0E16AE552E16E0050E552E7CF11
:102D0000D9FF1200D9CFE6FFE1CFD9FF040EE126AB
:102D1000060EDF6E010EDB6A020EDB6A030EDB6A53
:102D2000F250800B01E0010EE76E030EE7CFDBFFF0
:102D3000F250400B01E0010EE76E020EE7CFDBFF21
:102D4000F29EF29CDF06DF5002E18B842AD0FE0E59
:102D5000DBCFE6FF30EC3DF0E552000903E08DECFF
:102D60003DF0F0D7120EE66E7AEC3DF0E552000928
:102D700003E08DEC3DF0E6D78DEC3DF0FE0EDBCFB1
:102D8000E6FF55EC3DF0E552000903E08DEC3DF027
:102D9000D9D7AAEC3DF0E76E010EE7CFDBFF8DEC53
:102DA0003DF0030EDB50E8B0F28EE8A0F29E020E7A
:102DB000DB50E8B0F28CE8A0F29C010EDB50006E14
:102DC000040EE15C03E200D0E16AE552E16E0050DE
:102DD000E552E7CFD9FF1200D9CFE6FFE1CFD9FF07
:102DE000040EE126060EDF6E010EDB6A020EDB6AC0
:102DF000030EDB6AF250800B01E0010EE76E030E5A
:102E0000E7CFDBFFF250400B01E0010EE76E020E50
:102E1000E7CFDBFFF29EF29CDF06DF5002E18B84FE
:102E20002AD0FE0EDBCFE6FF30EC3DF0E552000984
:102E300003E08DEC3DF0F0D7130EE66E7AEC3DF03A
:102E4000E552000903E08DEC3DF0E6D78DEC3DF056
:102E5000FE0EDBCFE6FF55EC3DF0E552000903E046
:102E60008DEC3DF0D9D7AAEC3DF0E76E010EE7CF2F
:102E7000DBFF8DEC3DF0030EDB50E8B0F28EE8A0F6
:102E8000F29E020EDB50E8B0F28CE8A0F29C010E3C
:102E9000DB50006E040EE15C03E200D0E16AE55213
:102EA000E16E0050E552E7CFD9FF1200D9CFE6FF1F
:102EB000E1CFD9FF040EE126060EDF6E010EDB6ABC
:102EC000020EDB6A030EDB6AF250800B01E0010E9A
:102ED000E76E030EE7CFDBFFF250400B01E0010E7F
:102EE000E76E020EE7CFDBFFF29EF29CDF06DF50BB
:102EF00002E18B842AD0FE0EDBCFE6FF30EC3DF002
:102F0000E552000903E08DEC3DF0F0D7140EE66EBB
:102F10007AEC3DF0E552000903E08DEC3DF0E6D798
:102F20008DEC3DF0FE0EDBCFE6FF55EC3DF0E552BB
:102F3000000903E08DEC3DF0D9D7AAEC3DF0E76E37
:102F4000010EE7CFDBFF8DEC3DF0030EDB50E8B068
:102F5000F28EE8A0F29E020EDB50E8B0F28CE8A000
:102F6000F29C010EDB50006E040EE15C03E200D027
:102F7000E16AE552E16E0050E552E7CFD9FF120059
:102F8000D9CFE6FFE1CFD9FF040EE126060EDF6EB2
:102F9000010EDB6A020EDB6A030EDB6AF250800B65
:102FA00001E0010EE76E030EE7CFDBFFF250400BAE
:102FB00001E0010EE76E020EE7CFDBFFF29EF29C0E
:102FC000DF06DF5002E18B842AD0FE0EDBCFE6FF66
:102FD00030EC3DF0E552000903E08DEC3DF0F0D718
:102FE000150EE66E7AEC3DF0E552000903E08DEC3B
:102FF0003DF0E6D78DEC3DF0FE0EDBCFE6FF55EC65
:103000003DF0E552000903E08DEC3DF0D9D7AAEC84
:103010003DF0E76E010EE7CFDBFF8DEC3DF0030ED8
:10302000DB50E8B0F28EE8A0F29E020EDB50E8B072
:10303000F28CE8A0F29C010EDB50006E040EE15C05
:1030400003E200D0E16AE552E16E0050E552E7CFBD
:10305000D9FF1200D9CFE6FFE1CFD9FF040EE12658
:10306000060EDF6E010EDB6A020EDB6A030EDB6A00
:10307000F250800B01E0010EE76E030EE7CFDBFF9D
:10308000F250400B01E0010EE76E020EE7CFDBFFCE
:10309000F29EF29CDF06DF5002E18B842AD0FE0E06
:1030A000DBCFE6FF30EC3DF0E552000903E08DECAC
:1030B0003DF0F0D7160EE66E7AEC3DF0E5520009D1
:1030C00003E08DEC3DF0E6D78DEC3DF0FE0EDBCF5E
:1030D000E6FF55EC3DF0E552000903E08DEC3DF0D4
:1030E000D9D7AAEC3DF0E76E010EE7CFDBFF8DEC00
:1030F0003DF0030EDB50E8B0F28EE8A0F29E020E27
:10310000DB50E8B0F28CE8A0F29C010EDB50006EC0
:10311000040EE15C03E200D0E16AE552E16E00508A
:10312000E552E7CFD9FF1200D9CFE6FFE1CFD9FFB3
:10313000E652060EDF6EDF06DF5002E18B842DD0F3
:10314000FE0EDBCFE6FF30EC3DF0E552000903E078
:103150008DEC3DF0F0D7170EE66E7AEC3DF0E552BF
:10316000000903E08DEC3DF0E6D7FD0EDBCFE6FF76
:103170007AEC3DF0E552000903E08DEC3DF0DBD741
:10318000FC0EDBCFE6FF7AEC3DF0E552000903E0F0
:103190008DEC3DF0D0D78DEC3DF0E552E552E7CF18
:1031A000D9FF1200D9CFE6FFE1CFD9FFE652060ED4
:1031B000DF6EDF06DF5002E18B842DD0FE0EDBCF09
:1031C000E6FF30EC3DF0E552000903E08DEC3DF008
:1031D000F0D7180EE66E7AEC3DF0E552000903E0F8
:1031E0008DEC3DF0E6D7FD0EDBCFE6FF7AEC3DF04F
:1031F000E552000903E08DEC3DF0DBD7FC0EDBCFA0
:10320000E6FF7AEC3DF0E552000903E08DEC3DF07D
:10321000D0D78DEC3DF0E552E552E7CFD9FF120053
:10322000D9CFE6FFE1CFD9FF020EE126060EDF6E11
:10323000DF06DF5002E18B842AD0FE0EDBCFE6FFF3
:1032400030EC3DF0E552000903E08DEC3DF0F0D7A5
:10325000190EE66E7AEC3DF0E552000903E08DECC4
:103260003DF0E6D78DEC3DF0FE0EDBCFE6FF55ECF2
:103270003DF0E552000903E08DEC3DF0D9D7AAEC12
:103280003DF0E76E010EE7CFDBFF8DEC3DF0010E68
:10329000DB50006E020EE15C03E200D0E16AE55211
:1032A000E16E0050E552E7CFD9FF1200D9CFE6FF1B
:1032B000E1CFD9FF020EE126060EDF6EDF06DF50FA
:1032C00002E18B842AD0FE0EDBCFE6FF30EC3DF02E
:1032D000E552000903E08DEC3DF0F0D71A0EE66EE2
:1032E0007AEC3DF0E552000903E08DEC3DF0E6D7C5
:1032F0008DEC3DF0FE0EDBCFE6FF55EC3DF0E552E8
:10330000000903E08DEC3DF0D9D7AAEC3DF0E76E63
:10331000010EE7CFDBFF8DEC3DF0010EDB50006EC0
:10332000020EE15C03E200D0E16AE552E16E00507A
:10333000E552E7CFD9FF1200D9CFE6FFE1CFD9FFA1
:10334000E652060EDF6EDF06DF5002E18B8417D0F7
:10335000FE0EDBCFE6FF30EC3DF0E552000903E066
:103360008DEC3DF0F0D71B0EE66E7AEC3DF0E552A9
:10337000000903E08DEC3DF0E6D78DEC3DF0E55221
:10338000E552E7CFD9FF1200D9CFE6FFE1CFD9FF51
:10339000E652060EDF6EDF06DF5002E18B8417D0A7
:1033A000FE0EDBCFE6FF30EC3DF0E552000903E016
:1033B0008DEC3DF0F0D71C0EE66E7AEC3DF0E55258
:1033C000000903E08DEC3DF0E6D78DEC3DF0E552D1
:0833D000E552E7CFD9FF12001E
:0833D800D9CFE6FFE1CFD9FFD8
:1033E000E652060EDF6EDF06DF5002E18B8421D04D
:1033F000410EE66E30EC3DF0E552000903E08DEC45
:103400003DF0F1D7030EE66E7AEC3DF0E55200098F
:1034100003E08DEC3DF0E7D7FE0EDBCFE6FF7AEC64
:103420003DF0E552000903E08DEC3DF0DCD78DEC7A
:103430003DF0E552E552E7CFD9FF1200D9CFE6FFC4
:10344000E1CFD9FFE652060EDF6EDF06DF5002E164
:103450008B8421D0400EE66E30EC3DF0E552000941
:1034600003E08DEC3DF0F1D7030EE66E7AEC3DF013
:10347000E552000903E08DEC3DF0E7D7FE0EDBCF0F
:10348000E6FF7AEC3DF0E552000903E08DEC3DF0FB
:10349000DCD78DEC3DF0E552E552E7CFD9FF1200C5
:1034A0008AC0F6FF8BC0F7FF0800F5500EE0000160
:1034B0008AC0F6FF8BC0F7FF8A2B000E8B23080013
:1034C000F550E66E89DFE552EBD712008CC0F6FFAF
:1034D0008DC0F7FF0800F5500EE000018CC0F6FF2C
:1034E0008DC0F7FF8C2B000E8D230800F550E66E83
:1034F000A5DFE552EBD71200D9CFE6FFE1CFD9FF28
:103500000A0EF36EFA0EDBCFF4FFF350F45C4DE3DA
:10351000FB0EDBCF20F0FC0EDBCF21F0FD0EDBCF6E
:1035200022F0FE0EDBCF23F0256826682768286886
:1035300010EC3EF0FB0E1CC0DBFFFC0E1DC0DBFFE1
:10354000FD0E1EC0DBFFFE0E1FC0DBFFFB0EDBCF40
:1035500000F0FC0EDBCF01F0FD0EDBCF02F0FE0E23
:10356000DBCF03F0256ACA0E266E9A0E276E3B0E3D
:10357000286E00C020F001C021F002C022F003C07C
:1035800023F010EC3EF020C000F021C001F022C07A
:1035900002F023C003F0300E0026000E01220222AA
:1035A00003220050E66E18DFE552090EF36EFA0EA4
:1035B000DBCFF4FFF350F45C50E3FB0EDBCF20F0E5
:1035C000FC0EDBCF21F0FD0EDBCF22F0FE0EDBCFB9
:1035D00023F0256ACA0E266E9A0E276E3B0E286EC1
:1035E00010EC3EF0FB0E1CC0DBFFFC0E1DC0DBFF31
:1035F000FD0E1EC0DBFFFE0E1FC0DBFFFB0EDBCF90
:1036000000F0FC0EDBCF01F0FD0EDBCF02F0FE0E72
:10361000DBCF03F0256AE10E266EF50E276E050E50
:10362000286E00C020F001C021F002C022F003C0CB
:1036300023F010EC3EF020C000F021C001F022C0C9
:1036400002F023C003F0300E0026000E01220222F9
:1036500003220050E66EC0DEE552080EF36EFA0E4D
:10366000DBCFF4FFF350F45C50E3FB0EDBCF20F034
:10367000FC0EDBCF21F0FD0EDBCF22F0FE0EDBCF08
:1036800023F0256AE10E266EF50E276E050E286ED4
:1036900010EC3EF0FB0E1CC0DBFFFC0E1DC0DBFF80
:1036A000FD0E1EC0DBFFFE0E1FC0DBFFFB0EDBCFDF
:1036B00000F0FC0EDBCF01F0FD0EDBCF02F0FE0EC2
:1036C000DBCF03F0800E256E960E266E980E276EC9
:1036D000286A00C020F001C021F002C022F003C01F
:1036E00023F010EC3EF020C000F021C001F022C019
:1036F00002F023C003F0300E0026000E0122022249
:1037000003220050E66E68DEE552070EF36EFA0EF5
:10371000DBCFF4FFF350F45C50E3FB0EDBCF20F083
:10372000FC0EDBCF21F0FD0EDBCF22F0FE0EDBCF57
:1037300023F0800E256E960E266E980E276E286A50
:1037400010EC3EF0FB0E1CC0DBFFFC0E1DC0DBFFCF
:10375000FD0E1EC0DBFFFE0E1FC0DBFFFB0EDBCF2E
:1037600000F0FC0EDBCF01F0FD0EDBCF02F0FE0E11
:10377000DBCF03F0400E256E420E266E0F0E276E35
:10378000286A00C020F001C021F002C022F003C06E
:1037900023F010EC3EF020C000F021C001F022C068
:1037A00002F023C003F0300E0026000E0122022298
:1037B00003220050E66E10DEE552060EF36EFA0E9E
:1037C000DBCFF4FFF350F45C50E3FB0EDBCF20F0D3
:1037D000FC0EDBCF21F0FD0EDBCF22F0FE0EDBCFA7
:1037E00023F0400E256E420E266E0F0E276E286ABD
:1037F00010EC3EF0FB0E1CC0DBFFFC0E1DC0DBFF1F
:10380000FD0E1EC0DBFFFE0E1FC0DBFFFB0EDBCF7D
:1038100000F0FC0EDBCF01F0FD0EDBCF02F0FE0E60
:10382000DBCF03F0A00E256E860E266E010E276EEE
:10383000286A00C020F001C021F002C022F003C0BD
:1038400023F010EC3EF020C000F021C001F022C0B7
:1038500002F023C003F0300E0026000E01220222E7
:1038600003220050E66EB8DDE552050EF36EFA0E47
:10387000DBCFF4FFF350F45C4FE3FB0EDBCF20F023
:10388000FC0EDBCF21F0FD0EDBCF22F0FE0EDBCFF6
:1038900023F0A00E256E860E266E010E276E286A76
:1038A00010EC3EF0FB0E1CC0DBFFFC0E1DC0DBFF6E
:1038B000FD0E1EC0DBFFFE0E1FC0DBFFFB0EDBCFCD
:1038C00000F0FC0EDBCF01F0FD0EDBCF02F0FE0EB0
:1038D000DBCF03F0100E256E270E266E276A286AAE
:1038E00000C020F001C021F002C022F003C023F08C
:1038F00010EC3EF020C000F021C001F022C002F028
:1039000023C003F0300E0026000E01220222032203
:103910000050E66E61DDE552040EF36EFA0EDBCF69
:10392000F4FFF350F45C4EE3FB0EDBCF20F0FC0E13
:10393000DBCF21F0FD0EDBCF22F0FE0EDBCF23F03C
:10394000100E256E270E266E276A286A10EC3EF0B0
:10395000FB0E1CC0DBFFFC0E1DC0DBFFFD0E1EC0FE
:10396000DBFFFE0E1FC0DBFFFB0EDBCF00F0FC0E0B
:10397000DBCF01F0FD0EDBCF02F0FE0EDBCF03F05C
:10398000E80E256E030E266E276A286A00C020F016
:1039900001C021F002C022F003C023F010EC3EF081
:1039A00020C000F021C001F022C002F023C003F0CB
:1039B000300E0026000E0122022203220050E66E85
:1039C0000BDDE552030EF36EFA0EDBCFF4FFF3507E
:1039D000F45C4DE3FB0EDBCF20F0FC0EDBCF21F0DF
:1039E000FD0EDBCF22F0FE0EDBCF23F0E80E256EBE
:1039F000030E266E276A286A10EC3EF0FB0E1CC0F0
:103A0000DBFFFC0E1DC0DBFFFD0E1EC0DBFFFE0E4C
:103A10001FC0DBFFFB0EDBCF00F0FC0EDBCF01F0A5
:103A2000FD0EDBCF02F0FE0EDBCF03F0640E256E41
:103A3000266A276A286A00C020F001C021F002C06F
:103A400022F003C023F010EC3EF020C000F021C0B3
:103A500001F022C002F023C003F0300E0026000E59
:103A60000122022203220050E66EB6DCE552020E6D
:103A7000F36EFA0EDBCFF4FFF350F45C4CE3FB0E75
:103A8000DBCF20F0FC0EDBCF21F0FD0EDBCF22F0F0
:103A9000FE0EDBCF23F0640E256E266A276A286AA5
:103AA00010EC3EF0FB0E1CC0DBFFFC0E1DC0DBFF6C
:103AB000FD0E1EC0DBFFFE0E1FC0DBFFFB0EDBCFCB
:103AC00000F0FC0EDBCF01F0FD0EDBCF02F0FE0EAE
:103AD000DBCF03F00A0E256E266A276A286A00C02B
:103AE00020F001C021F002C022F003C023F010EC4E
:103AF0003EF020C000F021C001F022C002F023C03F
:103B000003F0300E0026000E012202220322005094
:103B1000E66E62DCE552010EF36EFA0EDBCFF4FFC7
:103B2000F350F45C36E3FB0EDBCF20F0FC0EDBCF72
:103B300021F0FD0EDBCF22F0FE0EDBCF23F00A0ECC
:103B4000256E266A276A286A10EC3EF0FB0E1CC020
:103B5000DBFFFC0E1DC0DBFFFD0E1EC0DBFFFE0EFB
:103B60001FC0DBFF300E006E016A026A036AD95083
:103B7000FB0FE96EFF0EDA20EA6EEE500026EE50E3
:103B80000122EE500222EE5003220050E66E24DCA9
:103B9000E552E552E7CFD9FF1200D9CFE6FFE1CFDA
:103BA000D9FF0A0EF36EFA0EDBCFF4FFF350F45C8C
:103BB0004EE3FB0EDBCF20F0FC0EDBCF21F0FD0E41
:103BC000DBCF22F0FE0EDBCF23F0256826682768C6
:103BD000286810EC3EF0FB0E1CC0DBFFFC0E1DC085
:103BE000DBFFFD0E1EC0DBFFFE0E1FC0DBFFFB0E6A
:103BF000DBCF00F0FC0EDBCF01F0FD0EDBCF02F0DF
:103C0000FE0EDBCF03F0256ACA0E266E9A0E276ED3
:103C10003B0E286E00C020F001C021F002C022F04F
:103C200003C023F010EC3EF020C000F021C001F0F2
:103C300022C002F023C003F0300E0026000E012245
:103C4000022203220050E66E1EEC1AF0E552090E25
:103C5000F36EFA0EDBCFF4FFF350F45C51E3FB0E8E
:103C6000DBCF20F0FC0EDBCF21F0FD0EDBCF22F00E
:103C7000FE0EDBCF23F0256ACA0E266E9A0E276E43
:103C80003B0E286E10EC3EF0FB0E1CC0DBFFFC0E62
:103C90001DC0DBFFFD0E1EC0DBFFFE0E1FC0DBFFE5
:103CA000FB0EDBCF00F0FC0EDBCF01F0FD0EDBCF17
:103CB00002F0FE0EDBCF03F0256AE10E266EF50E54
:103CC000276E050E286E00C020F001C021F002C052
:103CD00022F003C023F010EC3EF020C000F021C021
:103CE00001F022C002F023C003F0300E0026000EC7
:103CF0000122022203220050E66E1EEC1AF0E55269
:103D0000080EF36EFA0EDBCFF4FFF350F45C51E3D0
:103D1000FB0EDBCF20F0FC0EDBCF21F0FD0EDBCF66
:103D200022F0FE0EDBCF23F0256AE10E266EF50EA3
:103D3000276E050E286E10EC3EF0FB0E1CC0DBFF5C
:103D4000FC0E1DC0DBFFFD0E1EC0DBFFFE0E1FC004
:103D5000DBFFFB0EDBCF00F0FC0EDBCF01F0FD0E36
:103D6000DBCF02F0FE0EDBCF03F0800E256E960E49
:103D7000266E980E276E286A00C020F001C021F040
:103D800002C022F003C023F010EC3EF020C000F08F
:103D900021C001F022C002F023C003F0300E002643
:103DA000000E0122022203220050E66E1EEC1AF0E1
:103DB000E552070EF36EFA0EDBCFF4FFF350F45C1E
:103DC00051E3FB0EDBCF20F0FC0EDBCF21F0FD0E2C
:103DD000DBCF22F0FE0EDBCF23F0800E256E960E99
:103DE000266E980E276E286A10EC3EF0FB0E1CC063
:103DF000DBFFFC0E1DC0DBFFFD0E1EC0DBFFFE0E59
:103E00001FC0DBFFFB0EDBCF00F0FC0EDBCF01F0B1
:103E1000FD0EDBCF02F0FE0EDBCF03F0400E256E71
:103E2000420E266E0F0E276E286A00C020F001C0D9
:103E300021F002C022F003C023F010EC3EF020C0BD
:103E400000F021C001F022C002F023C003F0300EC8
:103E50000026000E0122022203220050E66E1EEC14
:103E60001AF0E552060EF36EFA0EDBCFF4FFF350B4
:103E7000F45C51E3FB0EDBCF20F0FC0EDBCF21F036
:103E8000FD0EDBCF22F0FE0EDBCF23F0400E256EC1
:103E9000420E266E0F0E276E286A10EC3EF0FB0EC7
:103EA0001CC0DBFFFC0E1DC0DBFFFD0E1EC0DBFFD8
:103EB000FE0E1FC0DBFFFB0EDBCF00F0FC0EDBCFE6
:103EC00001F0FD0EDBCF02F0FE0EDBCF03F0A00E03
:103ED000256E860E266E010E276E286A00C020F021
:103EE00001C021F002C022F003C023F010EC3EF02C
:103EF00020C000F021C001F022C002F023C003F076
:103F0000300E0026000E0122022203220050E66E2F
:103F10001EEC1AF0E552050EF36EFA0EDBCFF4FF3D
:103F2000F350F45C50E3FB0EDBCF20F0FC0EDBCF54
:103F300021F0FD0EDBCF22F0FE0EDBCF23F0A00E32
:103F4000256E860E266E010E276E286A10EC3EF056
:103F5000FB0E1CC0DBFFFC0E1DC0DBFFFD0E1EC0F8
:103F6000DBFFFE0E1FC0DBFFFB0EDBCF00F0FC0E05
:103F7000DBCF01F0FD0EDBCF02F0FE0EDBCF03F056
:103F8000100E256E270E266E276A286A00C020F0C4
:103F900001C021F002C022F003C023F010EC3EF07B
:103FA00020C000F021C001F022C002F023C003F0C5
:103FB000300E0026000E0122022203220050E66E7F
:103FC0001EEC1AF0E552040EF36EFA0EDBCFF4FF8E
:103FD000F350F45C4FE3FB0EDBCF20F0FC0EDBCFA5
:103FE00021F0FD0EDBCF22F0FE0EDBCF23F0100E12
:103FF000256E270E266E276A286A10EC3EF0FB0E0F
:104000001CC0DBFFFC0E1DC0DBFFFD0E1EC0DBFF76
:10401000FE0E1FC0DBFFFB0EDBCF00F0FC0EDBCF84
:1040200001F0FD0EDBCF02F0FE0EDBCF03F0E80E59
:10403000256E030E266E276A286A00C020F001C094
:1040400021F002C022F003C023F010EC3EF020C0AB
:1040500000F021C001F022C002F023C003F0300EB6
:104060000026000E0122022203220050E66E1EEC02
:104070001AF0E552030EF36EFA0EDBCFF4FFF350A5
:10408000F45C4EE3FB0EDBCF20F0FC0EDBCF21F027
:10409000FD0EDBCF22F0FE0EDBCF23F0E80E256E07
:1040A000030E266E276A286A10EC3EF0FB0E1CC039
:1040B000DBFFFC0E1DC0DBFFFD0E1EC0DBFFFE0E96
:1040C0001FC0DBFFFB0EDBCF00F0FC0EDBCF01F0EF
:1040D000FD0EDBCF02F0FE0EDBCF03F0640E256E8B
:1040E000266A276A286A00C020F001C021F002C0B9
:1040F00022F003C023F010EC3EF020C000F021C0FD
:1041000001F022C002F023C003F0300E0026000EA2
:104110000122022203220050E66E1EEC1AF0E55244
:10412000020EF36EFA0EDBCFF4FFF350F45C4DE3B6
:10413000FB0EDBCF20F0FC0EDBCF21F0FD0EDBCF42
:1041400022F0FE0EDBCF23F0640E256E266A276A6E
:10415000286A10EC3EF0FB0E1CC0DBFFFC0E1DC0FD
:10416000DBFFFD0E1EC0DBFFFE0E1FC0DBFFFB0EE4
:10417000DBCF00F0FC0EDBCF01F0FD0EDBCF02F059
:10418000FE0EDBCF03F00A0E256E266A276A286A28
:1041900000C020F001C021F002C022F003C023F0D3
:1041A00010EC3EF020C000F021C001F022C002F06F
:1041B00023C003F0300E0026000E0122022203224B
:1041C0000050E66E1EEC1AF0E552010EF36EFA0E88
:1041D000DBCFF4FFF350F45C37E3FB0EDBCF20F0D2
:1041E000FC0EDBCF21F0FD0EDBCF22F0FE0EDBCF8D
:1041F00023F00A0E256E266A276A286A10EC3EF024
:10420000FB0E1CC0DBFFFC0E1DC0DBFFFD0E1EC045
:10421000DBFFFE0E1FC0DBFF300E006E016A026A7C
:10422000036AD950FB0FE96EFF0EDA20EA6EEE50FA
:104230000026EE500122EE500222EE5003220050E2
:10424000E66E1EEC1AF0E552E552E7CFD9FF1200F8
:10425000D9CFE6FFE1CFD9FFFC0EDB50000821E209
:10426000FC0EDB06FD0EDBCF02F0FE0EDBCF03F013
:10427000FC0EDB5082EC3EF00250F314006E035053
:10428000F414016E0050011006E1300EE66EECEC05
:1042900019F0E55205D0310EE66EECEC19F0E5525E
:1042A000DBD7E552E7CFD9FF1200D9CFE6FFE1CF48
:1042B000D9FFFC0EDB50000821E2FC0EDB06FD0EF0
:1042C000DBCF02F0FE0EDBCF03F0FC0EDB5082EC06
:1042D0003EF00250F314006E0350F414016E0050CF
:1042E000011006E1300EE66E1EEC1AF0E55205D024
:1042F000310EE66E1EEC1AF0E552DBD7E552E7CF41
:10430000D9FF1200D9CFE6FFE1CFD9FFE652060E62
:10431000DF6EDF06DF5002E18B8421D0410EE66EB6
:1043200030EC3DF0E552000903E08DEC3DF0F1D7B3
:10433000040EE66E7AEC3DF0E552000903E08DECE8
:104340003DF0E7D7FE0EDBCFE6FF7AEC3DF0E5521D
:10435000000903E08DEC3DF0DCD78DEC3DF0E5523B
:10436000E552E7CFD9FF1200D9CFE6FFE1CFD9FF61
:10437000E652060EDF6EDF06DF5002E18B8421D0AD
:10438000400EE66E30EC3DF0E552000903E08DECA6
:104390003DF0F1D7040EE66E7AEC3DF0E5520009EF
:1043A00003E08DEC3DF0E7D7FE0EDBCFE6FF7AECC5
:1043B0003DF0E552000903E08DEC3DF0DCD78DECDB
:1043C0003DF0E552E552E7CFD9FF1200D9CFE6FF25
:1043D000E1CFD9FF020EE126060EDF6EDE52010E9E
:1043E000DD6EDF06DF5002E18B842AD0410EE66EDF
:1043F00030EC3DF0E552000903E08DEC3DF0F1D7E3
:10440000FE0EDB50640FE66E7AEC3DF0E5520009DB
:1044100003E08DEC3DF0E5D78DEC3DF0410EE66E0E
:1044200055EC3DF0E552000903E08DEC3DF0D9D7A5
:10443000AAEC3DF0E76E010EE7CFDBFF8DEC3DF01F
:10444000010EDB50006E020EE15C03E200D0E16A77
:10445000E552E16E0050E552E7CFD9FF1200D9CF07
:10446000E6FFE1CFD9FF020EE126060EDF6EDE5237
:10447000010EDD6EDF06DF5002E18B842AD0400E94
:10448000E66E30EC3DF0E552000903E08DEC3DF0C6
:10449000F1D7FE0EDB50640FE66E7AEC3DF0E5528C
:1044A000000903E08DEC3DF0E5D78DEC3DF0400ECA
:1044B000E66E55EC3DF0E552000903E08DEC3DF071
:1044C000D9D7AAEC3DF0E76E010EE7CFDBFF8DEC0C
:1044D0003DF0010EDB50006E020EE15C03E200D005
:1044E000E16AE552E16E0050E552E7CFD9FF1200D4
:1044F000D9CFE6FFE1CFD9FFE652060EDF6EDF0629
:10450000DF5002E18B8421D0410EE66E30EC3DF0AD
:10451000E552000903E08DEC3DF0F1D7020EE66EA6
:104520007AEC3DF0E552000903E08DEC3DF0E7D771
:10453000FE0EDBCFE6FF7AEC3DF0E552000903E02A
:104540008DEC3DF0DCD78DEC3DF0E552E552E7CF48
:10455000D9FF1200D9CFE6FFE1CFD9FFE652060E10
:10456000DF6EDF06DF5002E18B8421D0400EE66E65
:1045700030EC3DF0E552000903E08DEC3DF0F1D761
:10458000020EE66E7AEC3DF0E552000903E08DEC98
:104590003DF0E7D7FE0EDBCFE6FF7AEC3DF0E552CB
:1045A000000903E08DEC3DF0DCD78DEC3DF0E552E9
:1045B000E552E7CFD9FF1200D9CFE6FFE1CFD9FF0F
:1045C000E652060EDF6EDF06DF5002E18B841ED05E
:1045D000410EE66E30EC3DF0E552000903E08DEC53
:1045E0003DF0F1D7E66A7AEC3DF0E552000903E0D0
:1045F0008DEC3DF0E8D7E66A7AEC3DF0E552000933
:1046000003E08DEC3DF0DFD78DEC3DF0E552E55257
:10461000E7CFD9FF1200D9CFE6FFE1CFD9FFE652AD
:10462000060EDF6EDF06DF5002E18B841ED0400EE7
:10463000E66E30EC3DF0E552000903E08DEC3DF014
:10464000F1D7E66A7AEC3DF0E552000903E08DEC23
:104650003DF0E8D7E66A7AEC3DF0E552000903E068
:104660008DEC3DF0DFD78DEC3DF0E552E552E7CF24
:10467000D9FF1200D9CFE6FFE1CFD9FF020EE12624
:10468000DE52060EDD6E010EDB06DB5002E18B848E
:104690002BD0410EE66E30EC3DF0E552000903E010
:1046A0008DEC3DF0F0D7010EE66E7AEC3DF0E55270
:1046B000000903E08DEC3DF0E6D7FE0EDB5004E18F
:1046C000FD0EDB50DF6E04D0FD0EDB50140FDF6EED
:1046D000DFCFE6FF7AEC3DF0E552000903E08DEC18
:1046E0003DF0D1D78DEC3DF0020EE15C02E2E16AD3
:1046F000E552E16EE552E7CFD9FF1200D9CFE6FFD0
:10470000E1CFD9FF020EE126DE52060EDD6E010E6C
:10471000DB06DB5002E18B842BD0400EE66E30ECE2
:104720003DF0E552000903E08DEC3DF0F0D7010EBD
:10473000E66E7AEC3DF0E552000903E08DEC3DF0C9
:10474000E6D7FE0EDB5004E1FD0EDB50DF6E04D039
:10475000FD0EDB50140FDF6EDFCFE6FF7AEC3DF08D
:10476000E552000903E08DEC3DF0D1D78DEC3DF032
:10477000020EE15C02E2E16AE552E16EE552E7CF4A
:04478000D9FF12004B
:0C478400D9CFE6FFE1CFD9FF040EE126FB
:10479000060EDF6E010EDB6A020EDB6A030EDB6AB9
:1047A000F250800B01E0010EE76E030EE7CFDBFF56
:1047B000F250400B01E0010EE76E020EE7CFDBFF87
:1047C000F29EF29CDF06DF5002E18B8422D0FE0EC7
:1047D000DBCFE6FF30EC3DF0E552000903E08DEC65
:1047E0003DF0F0D7010EE66E7AEC3DF0E55200099F
:1047F00003E08DEC3DF0E6D7010EDBCFE6FF7AEC6F
:104800003DF0E552000903E08DEC3DF0DBD78DEC87
:104810003DF0030EDB50E8B0F28EE8A0F29E020EEF
:10482000DB50E8B0F28CE8A0F29C040EE15C02E2FE
:10483000E16AE552E16EE552E7CFD9FF1200D9CF28
:10484000E6FFE1CFD9FF040EE126060EDF6E010E72
:10485000DB6A020EDB6A030EDB6AF250800B01E0BA
:10486000010EE76E030EE7CFDBFFF250400B01E0D5
:10487000010EE76E020EE7CFDBFFF29EF29CDF0631
:10488000DF5002E18B8422D0FE0EDBCFE6FF30EC5E
:104890003DF0E552000903E08DEC3DF0F0D7020E4B
:1048A000E66E7AEC3DF0E552000903E08DEC3DF058
:1048B000E6D7010EDBCFE6FF7AEC3DF0E5520009CA
:1048C00003E08DEC3DF0DBD78DEC3DF0030EDB50CB
:1048D000E8B0F28EE8A0F29E020EDB50E8B0F28C57
:1048E000E8A0F29C040EE15C02E2E16AE552E16EAE
:1048F000E552E7CFD9FF1200D9CFE6FFE1CFD9FFCC
:10490000040EE126060EDF6E010EDB6A020EDB6A84
:10491000030EDB6AF250800B01E0010EE76E030E1E
:10492000E7CFDBFFF250400B01E0010EE76E020E15
:10493000E7CFDBFFF29EF29CDF06DF5002E18B84C3
:1049400022D0FE0EDBCFE6FF30EC3DF0E552000951
:1049500003E08DEC3DF0F0D7030EE66E7AEC3DF00F
:10496000E552000903E08DEC3DF0E6D7010EDBCF08
:10497000E6FF7AEC3DF0E552000903E08DEC3DF0F6
:10498000DBD78DEC3DF0030EDB50E8B0F28EE8A0F3
:10499000F29E020EDB50E8B0F28CE8A0F29C040E0E
:1049A000E15C02E2E16AE552E16EE552E7CFD9FF50
:1049B0001200D9CFE6FFE1CFD9FF040EE126060EA3
:1049C000DF6E010EDB6A020EDB6A030EDB6AF25059
:1049D000800B01E0010EE76E030EE7CFDBFFF25024
:1049E000400B01E0010EE76E020EE7CFDBFFF29E07
:1049F000F29CDF06DF5002E18B8422D0FE0EDBCF7B
:104A0000E6FF30EC3DF0E552000903E08DEC3DF0AF
:104A1000F0D7040EE66E7AEC3DF0E552000903E0B3
:104A20008DEC3DF0E6D7010EDBCFE6FF7AEC3DF0F2
:104A3000E552000903E08DEC3DF0DBD78DEC3DF055
:104A4000030EDB50E8B0F28EE8A0F29E020EDB50BF
:104A5000E8B0F28CE8A0F29C040EE15C02E2E16AAC
:104A6000E552E16EE552E7CFD9FF1200D9CFE6FF5C
:104A7000E1CFD9FF030EE126060EDF6E010EDB6AE1
:104A8000020EDB6AF250800B01E0010EE76E020EAF
:104A9000E7CFDBFFF250400B01E0010EE76E010EA5
:104AA000E7CFDBFFF29EF29CDF06DF5002E18B8452
:104AB00022D0FE0EDBCFE6FF30EC3DF0E5520009E0
:104AC00003E08DEC3DF0F0D7050EE66E7AEC3DF09C
:104AD000E552000903E08DEC3DF0E6D7FD0EDBCF9B
:104AE000E6FF7AEC3DF0E552000903E08DEC3DF085
:104AF000DBD78DEC3DF0020EDB50E8B0F28EE8A083
:104B0000F29E010EDB50E8B0F28CE8A0F29C030E9E
:104B1000E15C02E2E16AE552E16EE552E7CFD9FFDE
:104B20001200D9CFE6FFE1CFD9FF050EE126060E30
:104B3000DF6E030EDB6A040EDB6AF250800B01E0CD
:104B4000010EE76E040EE7CFDBFFF250400B01E0F1
:104B5000010EE76E030EE7CFDBFFF29EF29CFC0E28
:104B6000DBCF00F0FD0EDBCF01F001C000F0016AE9
:104B7000020E00C0DBFFFC0EDB50E76E010EE7CF3C
:104B8000DBFFDF06DF5002E18B8443D0FE0EDBCF7C
:104B9000E6FF30EC3DF0E552000903E08DEC3DF01E
:104BA000F0D7060EE66E7AEC3DF0E552000903E020
:104BB0008DEC3DF0E6D7020EDBCFE6FF7AEC3DF060
:104BC000E552000903E08DEC3DF0DBD7010EDBCFB1
:104BD000E6FF7AEC3DF0E552000903E08DEC3DF094
:104BE000D0D7FB0EDBCFE6FF7AEC3DF0E5520009B3
:104BF00003E08DEC3DF0C5D7FA0EDBCFE6FF7AEC93
:104C00003DF0E552000903E08DEC3DF0BAD78DECA4
:104C10003DF0040EDB50E8B0F28EE8A0F29E030EE9
:104C2000DB50E8B0F28CE8A0F29C050EE15C02E2F9
:104C3000E16AE552E16EE552E7CFD9FF1200D9CF24
:104C4000E6FFE1CFD9FF040EE126060EDF6E010E6E
:104C5000DB6A020EDB6A030EDB6AF250800B01E0B6
:104C6000010EE76E030EE7CFDBFFF250400B01E0D1
:104C7000010EE76E020EE7CFDBFFF29EF29CDF062D
:104C8000DF5002E18B8422D0FE0EDBCFE6FF30EC5A
:104C90003DF0E552000903E08DEC3DF0F0D7070E42
:104CA000E66E7AEC3DF0E552000903E08DEC3DF054
:104CB000E6D7010EDBCFE6FF7AEC3DF0E5520009C6
:104CC00003E08DEC3DF0DBD78DEC3DF0030EDB50C7
:104CD000E8B0F28EE8A0F29E020EDB50E8B0F28C53
:104CE000E8A0F29C040EE15C02E2E16AE552E16EAA
:104CF000E552E7CFD9FF1200D9CFE6FFE1CFD9FFC8
:104D0000040EE126060EDF6E010EDB6A020EDB6A80
:104D1000030EDB6AF250800B01E0010EE76E030E1A
:104D2000E7CFDBFFF250400B01E0010EE76E020E11
:104D3000E7CFDBFFF29EF29CDF06DF5002E18B84BF
:104D400022D0FE0EDBCFE6FF30EC3DF0E55200094D
:104D500003E08DEC3DF0F0D70B0EE66E7AEC3DF003
:104D6000E552000903E08DEC3DF0E6D7010EDBCF04
:104D7000E6FF7AEC3DF0E552000903E08DEC3DF0F2
:104D8000DBD78DEC3DF0030EDB50E8B0F28EE8A0EF
:104D9000F29E020EDB50E8B0F28CE8A0F29C040E0A
:104DA000E15C02E2E16AE552E16EE552E7CFD9FF4C
:104DB0001200D9CFE6FFE1CFD9FF040EE126060E9F
:104DC000DF6E010EDB6A020EDB6A030EDB6AF25055
:104DD000800B01E0010EE76E030EE7CFDBFFF25020
:104DE000400B01E0010EE76E020EE7CFDBFFF29E03
:104DF000F29CDF06DF5002E18B8422D0FE0EDBCF77
:104E0000E6FF30EC3DF0E552000903E08DEC3DF0AB
:104E1000F0D70C0EE66E7AEC3DF0E552000903E0A7
:104E20008DEC3DF0E6D7010EDBCFE6FF7AEC3DF0EE
:104E3000E552000903E08DEC3DF0DBD78DEC3DF051
:104E4000030EDB50E8B0F28EE8A0F29E020EDB50BB
:104E5000E8B0F28CE8A0F29C040EE15C02E2E16AA8
:104E6000E552E16EE552E7CFD9FF1200D9CFE6FF58
:104E7000E1CFD9FF040EE126060EDF6E010EDB6ADC
:104E8000020EDB6A030EDB6AF250800B01E0010EBA
:104E9000E76E030EE7CFDBFFF250400B01E0010E9F
:104EA000E76E020EE7CFDBFFF29EF29CDF06DF50DB
:104EB00002E18B8422D0FE0EDBCFE6FF30EC3DF02A
:104EC000E552000903E08DEC3DF0F0D70D0EE66EE3
:104ED0007AEC3DF0E552000903E08DEC3DF0E6D7B9
:104EE000010EDBCFE6FF7AEC3DF0E552000903E06E
:104EF0008DEC3DF0DBD78DEC3DF0030EDB50E8B0E0
:104F0000F28EE8A0F29E020EDB50E8B0F28CE8A030
:104F1000F29C040EE15C02E2E16AE552E16EE552C8
:104F2000E7CFD9FF1200D9CFE6FFE1CFD9FF040EBA
:104F3000E126060EDF6E010EDB6A020EDB6A030E4F
:104F4000DB6AF250800B01E0010EE76E030EE7CF43
:104F5000DBFFF250400B01E0010EE76E020EE7CFDF
:104F6000DBFFF29EF29CDF06DF5002E18B8422D051
:104F7000FE0EDBCFE6FF30EC3DF0E552000903E02A
:104F80008DEC3DF0F0D70E0EE66E7AEC3DF0E5527A
:104F9000000903E08DEC3DF0E6D7010EDBCFE6FF24
:104FA0007AEC3DF0E552000903E08DEC3DF0DBD7F3
:104FB0008DEC3DF0030EDB50E8B0F28EE8A0F29EDF
:104FC000020EDB50E8B0F28CE8A0F29C040EE15C2B
:104FD00002E2E16AE552E16EE552E7CFD9FF120045
:104FE000D9CFE6FFE1CFD9FF030EE126060EDF6E33
:104FF000010EDB6A020EDB6AF250800B01E0010E4B
:10500000E76E020EE7CFDBFFF250400B01E0010E2E
:10501000E76E010EE7CFDBFFF29EF29CDF06DF506A
:1050200002E18B8422D0FE0EDBCFE6FF30EC3DF0B8
:10503000E552000903E08DEC3DF0F0D70F0EE66E6F
:105040007AEC3DF0E552000903E08DEC3DF0E6D747
:10505000FD0EDBCFE6FF7AEC3DF0E552000903E000
:105060008DEC3DF0DBD78DEC3DF0020EDB50E8B06F
:10507000F28EE8A0F29E010EDB50E8B0F28CE8A0C0
:10508000F29C030EE15C02E2E16AE552E16EE55258
:10509000E7CFD9FF1200D9CFE6FFE1CFD9FF050E48
:1050A000E126060EDF6E030EDB6A040EDB6AF250A9
:1050B000800B01E0010EE76E040EE7CFDBFFF2503C
:1050C000400B01E0010EE76E030EE7CFDBFFF29E1F
:1050D000F29CFC0EDBCF00F0FD0EDBCF01F001C037
:1050E00000F0016A020E00C0DBFFFC0EDB50E76E31
:1050F000010EE7CFDBFFDF06DF5002E18B8443D0F8
:10510000FE0EDBCFE6FF30EC3DF0E552000903E098
:105110008DEC3DF0F0D7100EE66E7AEC3DF0E552E6
:10512000000903E08DEC3DF0E6D7020EDBCFE6FF91
:105130007AEC3DF0E552000903E08DEC3DF0DBD761
:10514000010EDBCFE6FF7AEC3DF0E552000903E00B
:105150008DEC3DF0D0D7FB0EDBCFE6FF7AEC3DF0D7
:10516000E552000903E08DEC3DF0C5D7FA0EDBCF28
:10517000E6FF7AEC3DF0E552000903E08DEC3DF0EE
:10518000BAD78DEC3DF0040EDB50E8B0F28EE8A00B
:10519000F29E030EDB50E8B0F28CE8A0F29C050E04
:1051A000E15C02E2E16AE552E16EE552E7CFD9FF48
:1051B0001200D9CFE6FFE1CFD9FF040EE126060E9B
:1051C000DF6E010EDB6A020EDB6A030EDB6AF25051
:1051D000800B01E0010EE76E030EE7CFDBFFF2501C
:1051E000400B01E0010EE76E020EE7CFDBFFF29EFF
:1051F000F29CDF06DF5002E18B8422D0FE0EDBCF73
:10520000E6FF30EC3DF0E552000903E08DEC3DF0A7
:10521000F0D7110EE66E7AEC3DF0E552000903E09E
:105220008DEC3DF0E6D7010EDBCFE6FF7AEC3DF0EA
:10523000E552000903E08DEC3DF0DBD78DEC3DF04D
:10524000030EDB50E8B0F28EE8A0F29E020EDB50B7
:10525000E8B0F28CE8A0F29C040EE15C02E2E16AA4
:10526000E552E16EE552E7CFD9FF1200D9CFE6FF54
:10527000E1CFD9FF060EE126DE6ADD6AF36E020E8B
:10528000F3CFDBFF040EDB6A050EDB6AF250800B06
:1052900001E0010EE76E050EE7CFDBFFF250400B99
:1052A00001E0010EE76E040EE7CFDBFFF29EF29CF9
:1052B000020EDB06DB5002E18B844CD0FE0EDBCF0E
:1052C000E6FF30EC3DF0E552000903E08DEC3DF0E7
:1052D000EFD7650EE66E7AEC3DF0E552000903E08B
:1052E0008DEC3DF0E5D78DEC3DF0FE0EDBCFE6FF1B
:1052F00055EC3DF0E552000903E08DEC3DF0D8D7C8
:1053000093EC3DF0E76E030EE7CFDBFFDB50DE6E84
:10531000DD6ADECF00F0DDCF01F000C001F0006AF1
:1053200000C0DEFF01C0DDFFAAEC3DF0E76E030E1A
:10533000E7CFDBFFDB50E76E000EDFCF00F0010EA2
:10534000DBCF01F0E750001200C0DEFF01C0DDFF3F
:105350008DEC3DF0050EDB50E8B0F28EE8A0F29E39
:10536000040EDB50E8B0F28CE8A0F29CDECF00F037
:10537000DDCF01F000C0F3FF01C0F4FF060EE15CD9
:1053800003E200D0E16AE552E16EE552E7CFD9FFD2
:105390001200D9CFE6FFE1CFD9FF040EE126060EB9
:1053A000DF6E010EDB6A020EDB6A030EDB6AF2506F
:1053B000800B01E0010EE76E030EE7CFDBFFF2503A
:1053C000400B01E0010EE76E020EE7CFDBFFF29E1D
:1053D000F29CDF06DF5002E18B842AD0FE0EDBCF89
:1053E000E6FF30EC3DF0E552000903E08DEC3DF0C6
:1053F000F0D7660EE66E7AEC3DF0E552000903E068
:105400008DEC3DF0E6D78DEC3DF0FE0EDBCFE6FFF8
:1054100055EC3DF0E552000903E08DEC3DF0D9D7A5
:10542000AAEC3DF0E76E010EE7CFDBFF8DEC3DF01F
:10543000030EDB50E8B0F28EE8A0F29E020EDB50C5
:10544000E8B0F28CE8A0F29C010EDB50006E040E76
:10545000E15C03E200D0E16AE552E16E0050E55202
:10546000E7CFD9FF1200D9CFE6FFE1CFD9FF040E75
:10547000E126060EDF6E010EDB6A020EDB6A030E0A
:10548000DB6AF250800B01E0010EE76E030EE7CFFE
:10549000DBFFF250400B01E0010EE76E020EE7CF9A
:1054A000DBFFF29EF29CDF06DF5002E18B842AD004
:1054B000FE0EDBCFE6FF30EC3DF0E552000903E0E5
:1054C0008DEC3DF0F0D7670EE66E7AEC3DF0E552DC
:1054D000000903E08DEC3DF0E6D78DEC3DF0FE0ECB
:1054E000DBCFE6FF55EC3DF0E552000903E08DEC23
:1054F0003DF0D9D7AAEC3DF0E76E010EE7CFDBFF18
:105500008DEC3DF0030EDB50E8B0F28EE8A0F29E89
:10551000020EDB50E8B0F28CE8A0F29C010EDB50EA
:10552000006E040EE15C03E200D0E16AE552E16E38
:105530000050E552E7CFD9FF1200D9CFE6FFE1CF07
:10554000D9FF050EE126DF6ADE52060EDD6E030E80
:10555000DB6A040EDB6AF250800B01E0010EE76E9D
:10556000040EE7CFDBFFF250400B01E0010EE76EC7
:10557000030EE7CFDBFFF29EF29C010EDB06DB5051
:1055800002E18B8427D0FE0EDBCFE6FF30EC3DF04E
:10559000E552000903E08DEC3DF0EFD7680EE66EB2
:1055A0007AEC3DF0E552000903E08DEC3DF0E5D7E3
:1055B0008DEC3DF0FE0EDBCFE6FF55EC3DF0E55205
:1055C000000903E08DEC3DF0D8D7AAEC3DF0DF6E8A
:1055D0008DEC3DF0040EDB50E8B0F28EE8A0F29EB8
:1055E000030EDB50E8B0F28CE8A0F29CDF50006EB6
:1055F000050EE15C03E200D0E16AE552E16E005085
:10560000E552E7CFD9FF1200D9CFE6FFE1CFD9FFAE
:10561000060EE126DE6ADD6AF36E020EF3CFDBFFD3
:10562000040EDB6A050EDB6AF250800B01E0010E0E
:10563000E76E050EE7CFDBFFF250400B01E0010EF5
:10564000E76E040EE7CFDBFFF29EF29C020EDB0654
:10565000DB5002E18B844CD0FE0EDBCFE6FF30EC5A
:105660003DF0E552000903E08DEC3DF0EFD76F0E01
:10567000E66E7AEC3DF0E552000903E08DEC3DF07A
:10568000E5D78DEC3DF0FE0EDBCFE6FF55EC3DF0AF
:10569000E552000903E08DEC3DF0D8D793EC3DF0E6
:1056A000E76E030EE7CFDBFFDB50DE6EDD6ADECF99
:1056B00000F0DDCF01F000C001F0006A00C0DEFFA5
:1056C00001C0DDFFAAEC3DF0E76E030EE7CFDBFF84
:1056D000DB50E76E000EDFCF00F0010EDBCF01F0F4
:1056E000E750001200C0DEFF01C0DDFF8DEC3DF091
:1056F000050EDB50E8B0F28EE8A0F29E040EDB50FF
:10570000E8B0F28CE8A0F29CDECF00F0DDCF01F033
:1057100000C0F3FF01C0F4FF060EE15C03E200D01D
:10572000E16AE552E16EE552E7CFD9FF1200D9CF29
:10573000E6FFE1CFD9FF040EE126060EDF6E010E73
:10574000DB6A020EDB6A030EDB6AF250800B01E0BB
:10575000010EE76E030EE7CFDBFFF250400B01E0D6
:10576000010EE76E020EE7CFDBFFF29EF29CDF0632
:10577000DF5002E18B842AD0FE0EDBCFE6FF30EC57
:105780003DF0E552000903E08DEC3DF0F0D7700EDE
:10579000E66E7AEC3DF0E552000903E08DEC3DF059
:1057A000E6D78DEC3DF0FE0EDBCFE6FF55EC3DF08D
:1057B000E552000903E08DEC3DF0D9D7AAEC3DF0AD
:1057C000E76E010EE7CFDBFF8DEC3DF0030EDB5003
:1057D000E8B0F28EE8A0F29E020EDB50E8B0F28C48
:1057E000E8A0F29C010EDB50006E040EE15C03E2C7
:1057F00000D0E16AE552E16E0050E552E7CFD9FFF3
:105800001200D9CFE6FFE1CFD9FF040EE126060E44
:10581000DF6E010EDB6A020EDB6A030EDB6AF250FA
:10582000800B01E0010EE76E030EE7CFDBFFF250C5
:10583000400B01E0010EE76E020EE7CFDBFFF29EA8
:10584000F29CDF06DF5002E18B842AD0FE0EDBCF14
:10585000E6FF30EC3DF0E552000903E08DEC3DF051
:10586000F0D7710EE66E7AEC3DF0E552000903E0E8
:105870008DEC3DF0E6D78DEC3DF0FE0EDBCFE6FF84
:1058800055EC3DF0E552000903E08DEC3DF0D9D731
:10589000AAEC3DF0E76E010EE7CFDBFF8DEC3DF0AB
:1058A000030EDB50E8B0F28EE8A0F29E020EDB5051
:1058B000E8B0F28CE8A0F29C010EDB50006E040E02
:1058C000E15C03E200D0E16AE552E16E0050E5528E
:1058D000E7CFD9FF1200D9CFE6FFE1CFD9FF050E00
:1058E000E126DF6ADE52060EDD6E030EDB6A040E71
:1058F000DB6AF250800B01E0010EE76E040EE7CF89
:10590000DBFFF250400B01E0010EE76E030EE7CF24
:10591000DBFFF29EF29C010EDB06DB5002E18B8482
:1059200027D0FE0EDBCFE6FF30EC3DF0E55200095C
:1059300003E08DEC3DF0EFD7720EE66E7AEC3DF0B1
:10594000E552000903E08DEC3DF0E5D78DEC3DF02C
:10595000FE0EDBCFE6FF55EC3DF0E552000903E01B
:105960008DEC3DF0D8D7AAEC3DF0DF6E8DEC3DF02C
:10597000040EDB50E8B0F28EE8A0F29E030EDB507E
:10598000E8B0F28CE8A0F29CDF50006E050EE15CFE
:1059900003E200D0E16AE552E16E0050E552E7CF44
:0459A000D9FF120019
:0C59A400D9CFE6FFE1CFD9FF060EE126C7
:1059B000DF6AACEC32F0E80EE66E030EE66EE66AE5
:1059C000E66A88EC32F0E552E552E552E552020E05
:1059D000E66EC2EC23F0E552020EE66E7CEC26F099
:1059E000E552640EE66E78EC22F0E55200018F0E6F
:1059F0008A6F7C0E8B6F50EC1AF0E66A010EE66E31
:105A00003AEC23F0E552E5520001820E8A6F7C0EDB
:105A10008B6F50EC1AF0010EE66EE6EC21F0E552C9
:105A20000108F9E0010EE66EE6EC21F0E55200090E
:105A3000F9E0DCEC22F0010EE66EE6EC21F0E55236
:105A4000010802E1A8D9F7D7DCEC22F0F8EC31F03C
:105A5000E76E010EE7CFDBFFDBCFE6FF93EC31F023
:105A6000E55260C022F061C023F0F4EC38F021C0B0
:105A700008F022C009F023C00AF024C00BF021C0B6
:105A800026F022C027F023C028F024C029F068C0E7
:105A900021F069C022F06AC023F06BC024F09EECB4
:105AA00039F021C004F022C005F023C006F024C064
:105AB00007F066C022F067C023F0F4EC38F021C094
